{
  "address": "0x07D31750E0b58E4265BD9310DFb6aF9D9B71E1f4",
  "abi": [
    {
      "anonymous": false,
      "inputs": [
        {
          "indexed": true,
          "internalType": "address",
          "name": "previousOwner",
          "type": "address"
        },
        {
          "indexed": true,
          "internalType": "address",
          "name": "newOwner",
          "type": "address"
        }
      ],
      "name": "OwnershipTransferred",
      "type": "event"
    },
    {
      "anonymous": false,
      "inputs": [
        {
          "indexed": true,
          "internalType": "address",
          "name": "caller",
          "type": "address"
        },
        {
          "indexed": true,
          "internalType": "address",
          "name": "owner",
          "type": "address"
        },
        {
          "indexed": true,
          "internalType": "address",
          "name": "token",
          "type": "address"
        },
        {
          "indexed": false,
          "internalType": "uint256",
          "name": "amount",
          "type": "uint256"
        }
      ],
      "name": "TransferToOwner",
      "type": "event"
    },
    {
      "anonymous": false,
      "inputs": [
        {
          "indexed": true,
          "internalType": "address",
          "name": "caller",
          "type": "address"
        },
        {
          "indexed": true,
          "internalType": "address",
          "name": "token",
          "type": "address"
        },
        {
          "indexed": false,
          "internalType": "uint256",
          "name": "amount",
          "type": "uint256"
        }
      ],
      "name": "WithdrawOnChild",
      "type": "event"
    },
    {
      "anonymous": false,
      "inputs": [
        {
          "indexed": true,
          "internalType": "address",
          "name": "caller",
          "type": "address"
        }
      ],
      "name": "WithdrawOnRoot",
      "type": "event"
    },
    {
      "inputs": [
        {
          "internalType": "address",
          "name": "_syProvider",
          "type": "address"
        }
      ],
      "name": "claimAndWithdrawOnChild",
      "outputs": [],
      "stateMutability": "nonpayable",
      "type": "function"
    },
    {
      "inputs": [
        {
          "internalType": "uint256",
          "name": "_withdrawCooldown",
          "type": "uint256"
        },
        {
          "internalType": "address",
          "name": "_rootChainManager",
          "type": "address"
        }
      ],
      "name": "initialize",
      "outputs": [],
      "stateMutability": "nonpayable",
      "type": "function"
    },
    {
      "inputs": [
        {
          "internalType": "address",
          "name": "",
          "type": "address"
        }
      ],
      "name": "lastWithdraw",
      "outputs": [
        {
          "internalType": "uint256",
          "name": "",
          "type": "uint256"
        }
      ],
      "stateMutability": "view",
      "type": "function"
    },
    {
      "inputs": [],
      "name": "owner",
      "outputs": [
        {
          "internalType": "address",
          "name": "",
          "type": "address"
        }
      ],
      "stateMutability": "view",
      "type": "function"
    },
    {
      "inputs": [],
      "name": "renounceOwnership",
      "outputs": [],
      "stateMutability": "nonpayable",
      "type": "function"
    },
    {
      "inputs": [],
      "name": "rootChainManager",
      "outputs": [
        {
          "internalType": "address",
          "name": "",
          "type": "address"
        }
      ],
      "stateMutability": "view",
      "type": "function"
    },
    {
      "inputs": [
        {
          "internalType": "uint256",
          "name": "_withdrawCooldown",
          "type": "uint256"
        }
      ],
      "name": "setWithdrawCooldown",
      "outputs": [],
      "stateMutability": "nonpayable",
      "type": "function"
    },
    {
      "inputs": [
        {
          "internalType": "address",
          "name": "newOwner",
          "type": "address"
        }
      ],
      "name": "transferOwnership",
      "outputs": [],
      "stateMutability": "nonpayable",
      "type": "function"
    },
    {
      "inputs": [
        {
          "internalType": "address",
          "name": "_token",
          "type": "address"
        }
      ],
      "name": "transferToOwner",
      "outputs": [],
      "stateMutability": "nonpayable",
      "type": "function"
    },
    {
      "inputs": [
        {
          "internalType": "bytes",
          "name": "_data",
          "type": "bytes"
        },
        {
          "internalType": "address",
          "name": "_token",
          "type": "address"
        }
      ],
      "name": "withdrawAndTransferToOwner",
      "outputs": [
        {
          "internalType": "bytes",
          "name": "",
          "type": "bytes"
        }
      ],
      "stateMutability": "nonpayable",
      "type": "function"
    },
    {
      "inputs": [],
      "name": "withdrawCooldown",
      "outputs": [
        {
          "internalType": "uint256",
          "name": "",
          "type": "uint256"
        }
      ],
      "stateMutability": "view",
      "type": "function"
    },
    {
      "inputs": [
        {
          "internalType": "address",
          "name": "_childToken",
          "type": "address"
        }
      ],
      "name": "withdrawOnChild",
      "outputs": [],
      "stateMutability": "nonpayable",
      "type": "function"
    },
    {
      "inputs": [
        {
          "internalType": "bytes",
          "name": "_data",
          "type": "bytes"
        }
      ],
      "name": "withdrawOnRoot",
      "outputs": [
        {
          "internalType": "bytes",
          "name": "",
          "type": "bytes"
        }
      ],
      "stateMutability": "nonpayable",
      "type": "function"
    }
  ],
  "transactionHash": "0x4b1de4b576a45ab22b3283f069abba31a5bc8ce5645e5f567261e8427482e898",
  "args": [],
  "solcInputHash": "ccb0235959348758108ea42e9b7d834f",
  "bytecode": "0x608060405234801561001057600080fd5b506123d7806100206000396000f3fe608060405234801561001057600080fd5b50600436106100cf5760003560e01c8063715018a61161008c5780638da5cb5b116100665780638da5cb5b146101fc578063bd07018d1461021a578063da35a26f14610238578063f2fde38b14610254576100cf565b8063715018a6146101ba578063812d504d146101c457806385d3f47e146101e0576100cf565b806316feab75146100d4578063260b1fd9146101045780633cbfe3a11461013457806344feed29146101525780635689c2601461016e578063624d7b721461018a575b600080fd5b6100ee60048036038101906100e991906118c4565b610270565b6040516100fb9190611c57565b60405180910390f35b61011e6004803603810190610119919061187b565b6102e8565b60405161012b9190611c57565b60405180910390f35b61013c610469565b6040516101499190611dfb565b60405180910390f35b61016c60048036038101906101679190611920565b61046f565b005b610188600480360381019061018391906117f4565b61054b565b005b6101a4600480360381019061019f91906117f4565b610706565b6040516101b19190611dfb565b60405180910390f35b6101c261071e565b005b6101de60048036038101906101d991906117f4565b61085b565b005b6101fa60048036038101906101f591906117f4565b610a73565b005b610204610d45565b6040516102119190611c13565b60405180910390f35b610222610d6f565b60405161022f9190611c13565b60405180910390f35b610252600480360381019061024d919061197a565b610d95565b005b61026e600480360381019061026991906117f4565b610f30565b005b606060011515606560009054906101000a900460ff161515146102c8576040517f08c379a00000000000000000000000000000000000000000000000000000000081526004016102bf90611d5b565b60405180910390fd5b60006102d3846102e8565b90506102de8361085b565b8091505092915050565b606060011515606560009054906101000a900460ff16151514610340576040517f08c379a000000000000000000000000000000000000000000000000000000000815260040161033790611d5b565b60405180910390fd5b600080606560019054906101000a900473ffffffffffffffffffffffffffffffffffffffff1673ffffffffffffffffffffffffffffffffffffffff168460405161038a9190611bfc565b6000604051808303816000865af19150503d80600081146103c7576040519150601f19603f3d011682016040523d82523d6000602084013e6103cc565b606091505b5091509150818190610414576040517f08c379a000000000000000000000000000000000000000000000000000000000815260040161040b9190611c79565b60405180910390fd5b5061041d6110dc565b73ffffffffffffffffffffffffffffffffffffffff167fc3ff84400b51b8faa19b096a526771e00f25836296ed44a71bc9d01fd59e4ae360405160405180910390a28092505050919050565b60675481565b6104776110dc565b73ffffffffffffffffffffffffffffffffffffffff16610495610d45565b73ffffffffffffffffffffffffffffffffffffffff16146104eb576040517f08c379a00000000000000000000000000000000000000000000000000000000081526004016104e290611d9b565b60405180910390fd5b60001515606560009054906101000a900460ff16151514610541576040517f08c379a000000000000000000000000000000000000000000000000000000000815260040161053890611cfb565b60405180910390fd5b8060678190555050565b60001515606560009054906101000a900460ff161515146105a1576040517f08c379a000000000000000000000000000000000000000000000000000000000815260040161059890611cfb565b60405180910390fd5b600073ffffffffffffffffffffffffffffffffffffffff168173ffffffffffffffffffffffffffffffffffffffff161415610611576040517f08c379a000000000000000000000000000000000000000000000000000000000815260040161060890611cdb565b60405180910390fd5b600081905060008173ffffffffffffffffffffffffffffffffffffffff1663633156376040518163ffffffff1660e01b815260040160206040518083038186803b15801561065e57600080fd5b505afa158015610672573d6000803e3d6000fd5b505050506040513d601f19601f820116820180604052508101906106969190611821565b90508173ffffffffffffffffffffffffffffffffffffffff1663c2fbe7bc6040518163ffffffff1660e01b8152600401600060405180830381600087803b1580156106e057600080fd5b505af11580156106f4573d6000803e3d6000fd5b5050505061070181610a73565b505050565b60666020528060005260406000206000915090505481565b6107266110dc565b73ffffffffffffffffffffffffffffffffffffffff16610744610d45565b73ffffffffffffffffffffffffffffffffffffffff161461079a576040517f08c379a000000000000000000000000000000000000000000000000000000000815260040161079190611d9b565b60405180910390fd5b600073ffffffffffffffffffffffffffffffffffffffff16603360009054906101000a900473ffffffffffffffffffffffffffffffffffffffff1673ffffffffffffffffffffffffffffffffffffffff167f8be0079c531659141344cd1fd0a4f28419497f9722a3daafe3b4186f6b6457e060405160405180910390a36000603360006101000a81548173ffffffffffffffffffffffffffffffffffffffff021916908373ffffffffffffffffffffffffffffffffffffffff160217905550565b60011515606560009054906101000a900460ff161515146108b1576040517f08c379a00000000000000000000000000000000000000000000000000000000081526004016108a890611d5b565b60405180910390fd5b600073ffffffffffffffffffffffffffffffffffffffff168173ffffffffffffffffffffffffffffffffffffffff161415610921576040517f08c379a000000000000000000000000000000000000000000000000000000000815260040161091890611d3b565b60405180910390fd5b60008190506000610930610d45565b905060008273ffffffffffffffffffffffffffffffffffffffff166370a08231306040518263ffffffff1660e01b815260040161096d9190611c13565b60206040518083038186803b15801561098557600080fd5b505afa158015610999573d6000803e3d6000fd5b505050506040513d601f19601f820116820180604052508101906109bd919061194d565b90506109ea82828573ffffffffffffffffffffffffffffffffffffffff166110e49092919063ffffffff16565b8373ffffffffffffffffffffffffffffffffffffffff168273ffffffffffffffffffffffffffffffffffffffff16610a206110dc565b73ffffffffffffffffffffffffffffffffffffffff167f76a904d36c6485f9a5b321da55bfecf63789bc50598252e91560e3b6175c1c0684604051610a659190611dfb565b60405180910390a450505050565b60001515606560009054906101000a900460ff16151514610ac9576040517f08c379a0000000000000000000000000000000000000000000000000000000008152600401610ac090611cfb565b60405180910390fd5b600073ffffffffffffffffffffffffffffffffffffffff168173ffffffffffffffffffffffffffffffffffffffff161415610b39576040517f08c379a0000000000000000000000000000000000000000000000000000000008152600401610b3090611c9b565b60405180910390fd5b606754606660008373ffffffffffffffffffffffffffffffffffffffff1673ffffffffffffffffffffffffffffffffffffffff16815260200190815260200160002054610b869190611eaf565b431015610b9257610d42565b43606660008373ffffffffffffffffffffffffffffffffffffffff1673ffffffffffffffffffffffffffffffffffffffff16815260200190815260200160002081905550600081905060008173ffffffffffffffffffffffffffffffffffffffff166370a08231306040518263ffffffff1660e01b8152600401610c169190611c13565b60206040518083038186803b158015610c2e57600080fd5b505afa158015610c42573d6000803e3d6000fd5b505050506040513d601f19601f82011682018060405250810190610c66919061194d565b90508173ffffffffffffffffffffffffffffffffffffffff16632e1a7d4d826040518263ffffffff1660e01b8152600401610ca19190611dfb565b600060405180830381600087803b158015610cbb57600080fd5b505af1158015610ccf573d6000803e3d6000fd5b505050508273ffffffffffffffffffffffffffffffffffffffff16610cf26110dc565b73ffffffffffffffffffffffffffffffffffffffff167f03d1c6e11435f9fdf99686494801bee42b031ab3c47c63abdbca7e22c33f5cbd83604051610d379190611dfb565b60405180910390a350505b50565b6000603360009054906101000a900473ffffffffffffffffffffffffffffffffffffffff16905090565b606560019054906101000a900473ffffffffffffffffffffffffffffffffffffffff1681565b600060019054906101000a900460ff1680610dbb575060008054906101000a900460ff16155b610dfa576040517f08c379a0000000000000000000000000000000000000000000000000000000008152600401610df190611d7b565b60405180910390fd5b60008060019054906101000a900460ff161590508015610e4a576001600060016101000a81548160ff02191690831515021790555060016000806101000a81548160ff0219169083151502179055505b610e5261116a565b600073ffffffffffffffffffffffffffffffffffffffff168273ffffffffffffffffffffffffffffffffffffffff1614610ee7576001606560006101000a81548160ff02191690831515021790555081606560016101000a81548173ffffffffffffffffffffffffffffffffffffffff021916908373ffffffffffffffffffffffffffffffffffffffff160217905550610f03565b6000606560006101000a81548160ff0219169083151502179055505b826067819055508015610f2b5760008060016101000a81548160ff0219169083151502179055505b505050565b610f386110dc565b73ffffffffffffffffffffffffffffffffffffffff16610f56610d45565b73ffffffffffffffffffffffffffffffffffffffff1614610fac576040517f08c379a0000000000000000000000000000000000000000000000000000000008152600401610fa390611d9b565b60405180910390fd5b600073ffffffffffffffffffffffffffffffffffffffff168173ffffffffffffffffffffffffffffffffffffffff16141561101c576040517f08c379a000000000000000000000000000000000000000000000000000000000815260040161101390611cbb565b60405180910390fd5b8073ffffffffffffffffffffffffffffffffffffffff16603360009054906101000a900473ffffffffffffffffffffffffffffffffffffffff1673ffffffffffffffffffffffffffffffffffffffff167f8be0079c531659141344cd1fd0a4f28419497f9722a3daafe3b4186f6b6457e060405160405180910390a380603360006101000a81548173ffffffffffffffffffffffffffffffffffffffff021916908373ffffffffffffffffffffffffffffffffffffffff16021790555050565b600033905090565b6111658363a9059cbb60e01b8484604051602401611103929190611c2e565b604051602081830303815290604052907bffffffffffffffffffffffffffffffffffffffffffffffffffffffff19166020820180517bffffffffffffffffffffffffffffffffffffffffffffffffffffffff8381831617835250505050611253565b505050565b600060019054906101000a900460ff1680611190575060008054906101000a900460ff16155b6111cf576040517f08c379a00000000000000000000000000000000000000000000000000000000081526004016111c690611d7b565b60405180910390fd5b60008060019054906101000a900460ff16159050801561121f576001600060016101000a81548160ff02191690831515021790555060016000806101000a81548160ff0219169083151502179055505b61122761131a565b61122f6113f3565b80156112505760008060016101000a81548160ff0219169083151502179055505b50565b60006112b5826040518060400160405280602081526020017f5361666545524332303a206c6f772d6c6576656c2063616c6c206661696c65648152508573ffffffffffffffffffffffffffffffffffffffff166115759092919063ffffffff16565b905060008151111561131557808060200190518101906112d5919061184e565b611314576040517f08c379a000000000000000000000000000000000000000000000000000000000815260040161130b90611ddb565b60405180910390fd5b5b505050565b600060019054906101000a900460ff1680611340575060008054906101000a900460ff16155b61137f576040517f08c379a000000000000000000000000000000000000000000000000000000000815260040161137690611d7b565b60405180910390fd5b60008060019054906101000a900460ff1615905080156113cf576001600060016101000a81548160ff02191690831515021790555060016000806101000a81548160ff0219169083151502179055505b80156113f05760008060016101000a81548160ff0219169083151502179055505b50565b600060019054906101000a900460ff1680611419575060008054906101000a900460ff16155b611458576040517f08c379a000000000000000000000000000000000000000000000000000000000815260040161144f90611d7b565b60405180910390fd5b60008060019054906101000a900460ff1615905080156114a8576001600060016101000a81548160ff02191690831515021790555060016000806101000a81548160ff0219169083151502179055505b60006114b26110dc565b905080603360006101000a81548173ffffffffffffffffffffffffffffffffffffffff021916908373ffffffffffffffffffffffffffffffffffffffff1602179055508073ffffffffffffffffffffffffffffffffffffffff16600073ffffffffffffffffffffffffffffffffffffffff167f8be0079c531659141344cd1fd0a4f28419497f9722a3daafe3b4186f6b6457e060405160405180910390a35080156115725760008060016101000a81548160ff0219169083151502179055505b50565b6060611584848460008561158d565b90509392505050565b6060824710156115d2576040517f08c379a00000000000000000000000000000000000000000000000000000000081526004016115c990611d1b565b60405180910390fd5b6115db856116a1565b61161a576040517f08c379a000000000000000000000000000000000000000000000000000000000815260040161161190611dbb565b60405180910390fd5b6000808673ffffffffffffffffffffffffffffffffffffffff1685876040516116439190611bfc565b60006040518083038185875af1925050503d8060008114611680576040519150601f19603f3d011682016040523d82523d6000602084013e611685565b606091505b50915091506116958282866116b4565b92505050949350505050565b600080823b905060008111915050919050565b606083156116c457829050611714565b6000835111156116d75782518084602001fd5b816040517f08c379a000000000000000000000000000000000000000000000000000000000815260040161170b9190611c79565b60405180910390fd5b9392505050565b600061172e61172984611e3b565b611e16565b90508281526020810184848401111561174a57611749612023565b5b611755848285611f4d565b509392505050565b60008135905061176c8161235c565b92915050565b6000815190506117818161235c565b92915050565b60008151905061179681612373565b92915050565b600082601f8301126117b1576117b061201e565b5b81356117c184826020860161171b565b91505092915050565b6000813590506117d98161238a565b92915050565b6000815190506117ee8161238a565b92915050565b60006020828403121561180a5761180961202d565b5b60006118188482850161175d565b91505092915050565b6000602082840312156118375761183661202d565b5b600061184584828501611772565b91505092915050565b6000602082840312156118645761186361202d565b5b600061187284828501611787565b91505092915050565b6000602082840312156118915761189061202d565b5b600082013567ffffffffffffffff8111156118af576118ae612028565b5b6118bb8482850161179c565b91505092915050565b600080604083850312156118db576118da61202d565b5b600083013567ffffffffffffffff8111156118f9576118f8612028565b5b6119058582860161179c565b92505060206119168582860161175d565b9150509250929050565b6000602082840312156119365761193561202d565b5b6000611944848285016117ca565b91505092915050565b6000602082840312156119635761196261202d565b5b6000611971848285016117df565b91505092915050565b600080604083850312156119915761199061202d565b5b600061199f858286016117ca565b92505060206119b08582860161175d565b9150509250929050565b6119c381611f05565b82525050565b60006119d482611e6c565b6119de8185611e82565b93506119ee818560208601611f5c565b6119f781612032565b840191505092915050565b6000611a0d82611e6c565b611a178185611e93565b9350611a27818560208601611f5c565b80840191505092915050565b6000611a3e82611e77565b611a488185611e9e565b9350611a58818560208601611f5c565b611a6181612032565b840191505092915050565b6000611a79603083611e9e565b9150611a8482612043565b604082019050919050565b6000611a9c602683611e9e565b9150611aa782612092565b604082019050919050565b6000611abf602e83611e9e565b9150611aca826120e1565b604082019050919050565b6000611ae2602f83611e9e565b9150611aed82612130565b604082019050919050565b6000611b05602683611e9e565b9150611b108261217f565b604082019050919050565b6000611b28602a83611e9e565b9150611b33826121ce565b604082019050919050565b6000611b4b602e83611e9e565b9150611b568261221d565b604082019050919050565b6000611b6e602e83611e9e565b9150611b798261226c565b604082019050919050565b6000611b91602083611e9e565b9150611b9c826122bb565b602082019050919050565b6000611bb4601d83611e9e565b9150611bbf826122e4565b602082019050919050565b6000611bd7602a83611e9e565b9150611be28261230d565b604082019050919050565b611bf681611f43565b82525050565b6000611c088284611a02565b915081905092915050565b6000602082019050611c2860008301846119ba565b92915050565b6000604082019050611c4360008301856119ba565b611c506020830184611bed565b9392505050565b60006020820190508181036000830152611c7181846119c9565b905092915050565b60006020820190508181036000830152611c938184611a33565b905092915050565b60006020820190508181036000830152611cb481611a6c565b9050919050565b60006020820190508181036000830152611cd481611a8f565b9050919050565b60006020820190508181036000830152611cf481611ab2565b9050919050565b60006020820190508181036000830152611d1481611ad5565b9050919050565b60006020820190508181036000830152611d3481611af8565b9050919050565b60006020820190508181036000830152611d5481611b1b565b9050919050565b60006020820190508181036000830152611d7481611b3e565b9050919050565b60006020820190508181036000830152611d9481611b61565b9050919050565b60006020820190508181036000830152611db481611b84565b9050919050565b60006020820190508181036000830152611dd481611ba7565b9050919050565b60006020820190508181036000830152611df481611bca565b9050919050565b6000602082019050611e106000830184611bed565b92915050565b6000611e20611e31565b9050611e2c8282611f8f565b919050565b6000604051905090565b600067ffffffffffffffff821115611e5657611e55611fef565b5b611e5f82612032565b9050602081019050919050565b600081519050919050565b600081519050919050565b600082825260208201905092915050565b600081905092915050565b600082825260208201905092915050565b6000611eba82611f43565b9150611ec583611f43565b9250827fffffffffffffffffffffffffffffffffffffffffffffffffffffffffffffffff03821115611efa57611ef9611fc0565b5b828201905092915050565b6000611f1082611f23565b9050919050565b60008115159050919050565b600073ffffffffffffffffffffffffffffffffffffffff82169050919050565b6000819050919050565b82818337600083830152505050565b60005b83811015611f7a578082015181840152602081019050611f5f565b83811115611f89576000848401525b50505050565b611f9882612032565b810181811067ffffffffffffffff82111715611fb757611fb6611fef565b5b80604052505050565b7f4e487b7100000000000000000000000000000000000000000000000000000000600052601160045260246000fd5b7f4e487b7100000000000000000000000000000000000000000000000000000000600052604160045260246000fd5b600080fd5b600080fd5b600080fd5b600080fd5b6000601f19601f8301169050919050565b7f4861727665737465723a206368696c6420746f6b656e2061646472657373206d60008201527f7573742062652073706563696669656400000000000000000000000000000000602082015250565b7f4f776e61626c653a206e6577206f776e657220697320746865207a65726f206160008201527f6464726573730000000000000000000000000000000000000000000000000000602082015250565b7f4861727665737465723a2073792070726f76696465722061646472657373206d60008201527f757374206e6f7420626520307830000000000000000000000000000000000000602082015250565b7f4861727665737465723a2073686f756c64206f6e6c792062652063616c6c656460008201527f206f6e206368696c6420636861696e0000000000000000000000000000000000602082015250565b7f416464726573733a20696e73756666696369656e742062616c616e636520666f60008201527f722063616c6c0000000000000000000000000000000000000000000000000000602082015250565b7f4861727665737465723a20746f6b656e2061646472657373206d75737420626560008201527f2073706563696669656400000000000000000000000000000000000000000000602082015250565b7f4861727665737465723a2073686f756c64206f6e6c792062652063616c6c656460008201527f206f6e20726f6f7420636861696e000000000000000000000000000000000000602082015250565b7f496e697469616c697a61626c653a20636f6e747261637420697320616c72656160008201527f647920696e697469616c697a6564000000000000000000000000000000000000602082015250565b7f4f776e61626c653a2063616c6c6572206973206e6f7420746865206f776e6572600082015250565b7f416464726573733a2063616c6c20746f206e6f6e2d636f6e7472616374000000600082015250565b7f5361666545524332303a204552433230206f7065726174696f6e20646964206e60008201527f6f74207375636365656400000000000000000000000000000000000000000000602082015250565b61236581611f05565b811461237057600080fd5b50565b61237c81611f17565b811461238757600080fd5b50565b61239381611f43565b811461239e57600080fd5b5056fea2646970667358221220aa8034b065edddd12480df442f81c72ef45f7209a57d8938c6c8d7135c9e30aa64736f6c63430008060033",
  "devdoc": {
    "author": "Alex T",
    "details": "It needs to be deployed at the same address on both chains. Uses CREATE2 on deploy to achieve that",
    "events": {
      "TransferToOwner(address,address,address,uint256)": {
        "details": "Emitted when transferToOwner is called",
        "params": {
          "amount": "The amount of tokens that were sent to the child chain",
          "caller": "Address that called transferToOwner",
          "owner": "Address that the funds have been transferred to",
          "token": "Address of the transferred token"
        }
      },
      "WithdrawOnChild(address,address,uint256)": {
        "details": "Emitted when withdrawOnChild is called",
        "params": {
          "amount": "The amount of tokens that were withdrawn",
          "caller": "Address that called withdrawOnChild",
          "token": "Address of the withdrawn token"
        }
      },
      "WithdrawOnRoot(address)": {
        "details": "Emitted when withdrawOnRoot is called",
        "params": {
          "caller": "Address that called withdrawOnRoot"
        }
      }
    },
    "kind": "dev",
    "methods": {
      "claimAndWithdrawOnChild(address)": {
        "details": "Helper that transfer fees from a SmartYield deployment as underlaying token.",
        "params": {
          "_syProvider": "SmartYield deployment address"
        }
      },
      "initialize(uint256,address)": {
        "details": "Needs to be called after deployment. Get addresses from https://github.com/maticnetwork/static/tree/master/network",
        "params": {
          "_rootChainManager": "Address of Polygon rootChainManager. Set to zero address on child chain",
          "_withdrawCooldown": "Number of blocks needed between withdrawals"
        }
      },
      "owner()": {
        "details": "Returns the address of the current owner."
      },
      "renounceOwnership()": {
        "details": "Leaves the contract without owner. It will not be possible to call `onlyOwner` functions anymore. Can only be called by the current owner. NOTE: Renouncing ownership will leave the contract without an owner, thereby removing any functionality that is only available to the owner."
      },
      "setWithdrawCooldown(uint256)": {
        "details": "This limit is set to not spam the withdrawal process with lots of small withdrawals",
        "params": {
          "_withdrawCooldown": "Number of blocks needed between withdrawals"
        }
      },
      "transferOwnership(address)": {
        "details": "Transfers ownership of the contract to a new account (`newOwner`). Can only be called by the current owner."
      },
      "transferToOwner(address)": {
        "details": "Use this after withdrawOnRoot to transfer what you have exited from Polygon to owner",
        "params": {
          "_token": "Address of token to transfer"
        }
      },
      "withdrawAndTransferToOwner(bytes,address)": {
        "details": "Calls withdrawOnRoot then transferToOwner",
        "params": {
          "_data": "Exit payload created with the Matic SDK",
          "_token": "Address of token to transfer"
        }
      },
      "withdrawOnChild(address)": {
        "details": "Emits WithdrawOnChild on succesful withdraw and burn",
        "params": {
          "_childToken": "Address of token to withdraw"
        }
      },
      "withdrawOnRoot(bytes)": {
        "details": "Forwards the exit call to the Polygon rootChainManager",
        "params": {
          "_data": "Exit payload created with the Matic SDK"
        },
        "returns": {
          "_0": "Bytes return of the rootChainManager exit call"
        }
      }
    },
    "title": "PolygonTokenHarvester",
    "version": 1
  },
  "userdoc": {
    "events": {
      "TransferToOwner(address,address,address,uint256)": {
        "notice": "Logs a transfer of tokens to owner"
      },
      "WithdrawOnChild(address,address,uint256)": {
        "notice": "Logs withdrawal being made on the child chain"
      },
      "WithdrawOnRoot(address)": {
        "notice": "Logs a withdrawal being made on the root chain"
      }
    },
    "kind": "user",
    "methods": {
      "claimAndWithdrawOnChild(address)": {
        "notice": "Transfer fees from SmartYield and withdraw them from the child chain"
      },
      "initialize(uint256,address)": {
        "notice": "PolygonTokenHarvester initializer"
      },
      "setWithdrawCooldown(uint256)": {
        "notice": "Sets the minimum number of blocks that must pass between withdrawals"
      },
      "transferToOwner(address)": {
        "notice": "Transfers full balance of token to owner"
      },
      "withdrawAndTransferToOwner(bytes,address)": {
        "notice": "Exit funds from polygon and transfer to owner"
      },
      "withdrawOnChild(address)": {
        "notice": "Withdraws full token balance from the child chain"
      },
      "withdrawOnRoot(bytes)": {
        "notice": "Withdraws to itself exited funds from Polygon"
      }
    },
    "notice": "Assists with moving any given token from the child chain to the root chain. Made for Polygon",
    "version": 1
  },
  "storageLayout": {
    "storage": [
      {
        "astId": 136,
        "contract": "contracts/PolygonTokenHarvester.sol:PolygonTokenHarvester",
        "label": "_initialized",
        "offset": 0,
        "slot": "0",
        "type": "t_bool"
      },
      {
        "astId": 139,
        "contract": "contracts/PolygonTokenHarvester.sol:PolygonTokenHarvester",
        "label": "_initializing",
        "offset": 1,
        "slot": "0",
        "type": "t_bool"
      },
      {
        "astId": 220,
        "contract": "contracts/PolygonTokenHarvester.sol:PolygonTokenHarvester",
        "label": "__gap",
        "offset": 0,
        "slot": "1",
        "type": "t_array(t_uint256)50_storage"
      },
      {
        "astId": 10,
        "contract": "contracts/PolygonTokenHarvester.sol:PolygonTokenHarvester",
        "label": "_owner",
        "offset": 0,
        "slot": "51",
        "type": "t_address"
      },
      {
        "astId": 129,
        "contract": "contracts/PolygonTokenHarvester.sol:PolygonTokenHarvester",
        "label": "__gap",
        "offset": 0,
        "slot": "52",
        "type": "t_array(t_uint256)49_storage"
      },
      {
        "astId": 1960,
        "contract": "contracts/PolygonTokenHarvester.sol:PolygonTokenHarvester",
        "label": "_onRootChain",
        "offset": 0,
        "slot": "101",
        "type": "t_bool"
      },
      {
        "astId": 1962,
        "contract": "contracts/PolygonTokenHarvester.sol:PolygonTokenHarvester",
        "label": "rootChainManager",
        "offset": 1,
        "slot": "101",
        "type": "t_address"
      },
      {
        "astId": 1966,
        "contract": "contracts/PolygonTokenHarvester.sol:PolygonTokenHarvester",
        "label": "lastWithdraw",
        "offset": 0,
        "slot": "102",
        "type": "t_mapping(t_address,t_uint256)"
      },
      {
        "astId": 1968,
        "contract": "contracts/PolygonTokenHarvester.sol:PolygonTokenHarvester",
        "label": "withdrawCooldown",
        "offset": 0,
        "slot": "103",
        "type": "t_uint256"
      }
    ],
    "types": {
      "t_address": {
        "encoding": "inplace",
        "label": "address",
        "numberOfBytes": "20"
      },
      "t_array(t_uint256)49_storage": {
        "base": "t_uint256",
        "encoding": "inplace",
        "label": "uint256[49]",
        "numberOfBytes": "1568"
      },
      "t_array(t_uint256)50_storage": {
        "base": "t_uint256",
        "encoding": "inplace",
        "label": "uint256[50]",
        "numberOfBytes": "1600"
      },
      "t_bool": {
        "encoding": "inplace",
        "label": "bool",
        "numberOfBytes": "1"
      },
      "t_mapping(t_address,t_uint256)": {
        "encoding": "mapping",
        "key": "t_address",
        "label": "mapping(address => uint256)",
        "numberOfBytes": "32",
        "value": "t_uint256"
      },
      "t_uint256": {
        "encoding": "inplace",
        "label": "uint256",
        "numberOfBytes": "32"
      }
    }
  }
}