{
  "address": "0x70a40abC43Db72Fa86a5DCC12a2cFC89ddA2DD0c",
  "abi": [
    {
      "anonymous": false,
      "inputs": [
        {
          "indexed": true,
          "internalType": "address",
          "name": "previousOwner",
          "type": "address"
        },
        {
          "indexed": true,
          "internalType": "address",
          "name": "newOwner",
          "type": "address"
        }
      ],
      "name": "OwnershipTransferred",
      "type": "event"
    },
    {
      "anonymous": false,
      "inputs": [
        {
          "indexed": true,
          "internalType": "address",
          "name": "caller",
          "type": "address"
        },
        {
          "indexed": true,
          "internalType": "address",
          "name": "spender",
          "type": "address"
        },
        {
          "indexed": false,
          "internalType": "uint256",
          "name": "amount",
          "type": "uint256"
        }
      ],
      "name": "SetAllowance",
      "type": "event"
    },
    {
      "anonymous": false,
      "inputs": [
        {
          "indexed": true,
          "internalType": "address",
          "name": "caller",
          "type": "address"
        },
        {
          "indexed": true,
          "internalType": "address",
          "name": "owner",
          "type": "address"
        },
        {
          "indexed": true,
          "internalType": "address",
          "name": "token",
          "type": "address"
        },
        {
          "indexed": false,
          "internalType": "uint256",
          "name": "amount",
          "type": "uint256"
        }
      ],
      "name": "TransferToOwner",
      "type": "event"
    },
    {
      "anonymous": false,
      "inputs": [
        {
          "indexed": true,
          "internalType": "address",
          "name": "caller",
          "type": "address"
        },
        {
          "indexed": true,
          "internalType": "address",
          "name": "token",
          "type": "address"
        },
        {
          "indexed": false,
          "internalType": "uint256",
          "name": "amount",
          "type": "uint256"
        }
      ],
      "name": "WithdrawOnChild",
      "type": "event"
    },
    {
      "anonymous": false,
      "inputs": [
        {
          "indexed": true,
          "internalType": "address",
          "name": "caller",
          "type": "address"
        }
      ],
      "name": "WithdrawOnRoot",
      "type": "event"
    },
    {
      "inputs": [
        {
          "internalType": "address",
          "name": "_syProvider",
          "type": "address"
        }
      ],
      "name": "claimAndWithdrawOnChild",
      "outputs": [],
      "stateMutability": "nonpayable",
      "type": "function"
    },
    {
      "inputs": [
        {
          "internalType": "address[]",
          "name": "_syProviders",
          "type": "address[]"
        }
      ],
      "name": "claimAndWithdrawOnChildMulti",
      "outputs": [],
      "stateMutability": "nonpayable",
      "type": "function"
    },
    {
      "inputs": [
        {
          "internalType": "uint256",
          "name": "_withdrawCooldown",
          "type": "uint256"
        },
        {
          "internalType": "address",
          "name": "_rootChainManager",
          "type": "address"
        }
      ],
      "name": "initialize",
      "outputs": [],
      "stateMutability": "nonpayable",
      "type": "function"
    },
    {
      "inputs": [
        {
          "internalType": "address",
          "name": "",
          "type": "address"
        }
      ],
      "name": "lastWithdraw",
      "outputs": [
        {
          "internalType": "uint256",
          "name": "",
          "type": "uint256"
        }
      ],
      "stateMutability": "view",
      "type": "function"
    },
    {
      "inputs": [],
      "name": "owner",
      "outputs": [
        {
          "internalType": "address",
          "name": "",
          "type": "address"
        }
      ],
      "stateMutability": "view",
      "type": "function"
    },
    {
      "inputs": [],
      "name": "renounceOwnership",
      "outputs": [],
      "stateMutability": "nonpayable",
      "type": "function"
    },
    {
      "inputs": [],
      "name": "rootChainManager",
      "outputs": [
        {
          "internalType": "address",
          "name": "",
          "type": "address"
        }
      ],
      "stateMutability": "view",
      "type": "function"
    },
    {
      "inputs": [
        {
          "internalType": "uint256",
          "name": "_withdrawCooldown",
          "type": "uint256"
        }
      ],
      "name": "setWithdrawCooldown",
      "outputs": [],
      "stateMutability": "nonpayable",
      "type": "function"
    },
    {
      "inputs": [
        {
          "internalType": "address",
          "name": "newOwner",
          "type": "address"
        }
      ],
      "name": "transferOwnership",
      "outputs": [],
      "stateMutability": "nonpayable",
      "type": "function"
    },
    {
      "inputs": [
        {
          "internalType": "address",
          "name": "_token",
          "type": "address"
        }
      ],
      "name": "transferToOwner",
      "outputs": [],
      "stateMutability": "nonpayable",
      "type": "function"
    },
    {
      "inputs": [],
      "name": "withdrawCooldown",
      "outputs": [
        {
          "internalType": "uint256",
          "name": "",
          "type": "uint256"
        }
      ],
      "stateMutability": "view",
      "type": "function"
    },
    {
      "inputs": [
        {
          "internalType": "address",
          "name": "_childToken",
          "type": "address"
        }
      ],
      "name": "withdrawOnChild",
      "outputs": [],
      "stateMutability": "nonpayable",
      "type": "function"
    },
    {
      "inputs": [
        {
          "internalType": "bytes",
          "name": "_data",
          "type": "bytes"
        }
      ],
      "name": "withdrawOnRoot",
      "outputs": [],
      "stateMutability": "nonpayable",
      "type": "function"
    }
  ],
  "transactionHash": "0x251a9fdb9113e546f81fbb8a0e6bf6bb73999742146e8d99a0eea22a8d1c84d4",
  "args": [],
  "solcInputHash": "d993574b8a002760636776466d6d0620",
  "bytecode": "0x608060405234801561001057600080fd5b5061253b806100206000396000f3fe608060405234801561001057600080fd5b50600436106100cf5760003560e01c8063812d504d1161008c578063bd07018d11610066578063bd07018d146101d6578063bebaa100146101f4578063da35a26f14610210578063f2fde38b1461022c576100cf565b8063812d504d1461018057806385d3f47e1461019c5780638da5cb5b146101b8576100cf565b8063260b1fd9146100d45780633cbfe3a1146100f057806344feed291461010e5780635689c2601461012a578063624d7b7214610146578063715018a614610176575b600080fd5b6100ee60048036038101906100e9919061195c565b610248565b005b6100f8610378565b6040516101059190611eaf565b60405180910390f35b6101286004803603810190610123919061199d565b61037e565b005b610144600480360381019061013f91906118a0565b61045a565b005b610160600480360381019061015b91906118a0565b610617565b60405161016d9190611eaf565b60405180910390f35b61017e61062f565b005b61019a600480360381019061019591906118a0565b61076c565b005b6101b660048036038101906101b191906118a0565b610984565b005b6101c0610c56565b6040516101cd9190611ca7565b60405180910390f35b6101de610c80565b6040516101eb9190611ca7565b60405180910390f35b61020e600480360381019061020991906118f2565b610ca6565b005b61022a600480360381019061022591906119ef565b610db1565b005b610246600480360381019061024191906118a0565b610f4e565b005b60011515606560009054906101000a900460ff1615151461029e576040517f08c379a000000000000000000000000000000000000000000000000000000000815260040161029590611e0f565b60405180910390fd5b606560019054906101000a900473ffffffffffffffffffffffffffffffffffffffff1673ffffffffffffffffffffffffffffffffffffffff16633805550f826040518263ffffffff1660e01b81526004016102f99190611ceb565b600060405180830381600087803b15801561031357600080fd5b505af1158015610327573d6000803e3d6000fd5b505050506103336110fa565b73ffffffffffffffffffffffffffffffffffffffff167fc3ff84400b51b8faa19b096a526771e00f25836296ed44a71bc9d01fd59e4ae360405160405180910390a250565b60675481565b6103866110fa565b73ffffffffffffffffffffffffffffffffffffffff166103a4610c56565b73ffffffffffffffffffffffffffffffffffffffff16146103fa576040517f08c379a00000000000000000000000000000000000000000000000000000000081526004016103f190611e4f565b60405180910390fd5b60001515606560009054906101000a900460ff16151514610450576040517f08c379a000000000000000000000000000000000000000000000000000000000815260040161044790611daf565b60405180910390fd5b8060678190555050565b60001515606560009054906101000a900460ff161515146104b0576040517f08c379a00000000000000000000000000000000000000000000000000000000081526004016104a790611daf565b60405180910390fd5b600073ffffffffffffffffffffffffffffffffffffffff168173ffffffffffffffffffffffffffffffffffffffff161415610520576040517f08c379a000000000000000000000000000000000000000000000000000000000815260040161051790611d8f565b60405180910390fd5b600081905060008173ffffffffffffffffffffffffffffffffffffffff1663633156376040518163ffffffff1660e01b8152600401602060405180830381600087803b15801561056f57600080fd5b505af1158015610583573d6000803e3d6000fd5b505050506040513d601f19601f820116820180604052508101906105a791906118c9565b90508173ffffffffffffffffffffffffffffffffffffffff1663c2fbe7bc6040518163ffffffff1660e01b8152600401600060405180830381600087803b1580156105f157600080fd5b505af1158015610605573d6000803e3d6000fd5b5050505061061281610984565b505050565b60666020528060005260406000206000915090505481565b6106376110fa565b73ffffffffffffffffffffffffffffffffffffffff16610655610c56565b73ffffffffffffffffffffffffffffffffffffffff16146106ab576040517f08c379a00000000000000000000000000000000000000000000000000000000081526004016106a290611e4f565b60405180910390fd5b600073ffffffffffffffffffffffffffffffffffffffff16603360009054906101000a900473ffffffffffffffffffffffffffffffffffffffff1673ffffffffffffffffffffffffffffffffffffffff167f8be0079c531659141344cd1fd0a4f28419497f9722a3daafe3b4186f6b6457e060405160405180910390a36000603360006101000a81548173ffffffffffffffffffffffffffffffffffffffff021916908373ffffffffffffffffffffffffffffffffffffffff160217905550565b60011515606560009054906101000a900460ff161515146107c2576040517f08c379a00000000000000000000000000000000000000000000000000000000081526004016107b990611e0f565b60405180910390fd5b600073ffffffffffffffffffffffffffffffffffffffff168173ffffffffffffffffffffffffffffffffffffffff161415610832576040517f08c379a000000000000000000000000000000000000000000000000000000000815260040161082990611def565b60405180910390fd5b60008190506000610841610c56565b905060008273ffffffffffffffffffffffffffffffffffffffff166370a08231306040518263ffffffff1660e01b815260040161087e9190611ca7565b60206040518083038186803b15801561089657600080fd5b505afa1580156108aa573d6000803e3d6000fd5b505050506040513d601f19601f820116820180604052508101906108ce91906119c6565b90506108fb82828573ffffffffffffffffffffffffffffffffffffffff166111029092919063ffffffff16565b8373ffffffffffffffffffffffffffffffffffffffff168273ffffffffffffffffffffffffffffffffffffffff166109316110fa565b73ffffffffffffffffffffffffffffffffffffffff167f76a904d36c6485f9a5b321da55bfecf63789bc50598252e91560e3b6175c1c06846040516109769190611eaf565b60405180910390a450505050565b60001515606560009054906101000a900460ff161515146109da576040517f08c379a00000000000000000000000000000000000000000000000000000000081526004016109d190611daf565b60405180910390fd5b600073ffffffffffffffffffffffffffffffffffffffff168173ffffffffffffffffffffffffffffffffffffffff161415610a4a576040517f08c379a0000000000000000000000000000000000000000000000000000000008152600401610a4190611d4f565b60405180910390fd5b606754606660008373ffffffffffffffffffffffffffffffffffffffff1673ffffffffffffffffffffffffffffffffffffffff16815260200190815260200160002054610a979190611f8f565b431015610aa357610c53565b43606660008373ffffffffffffffffffffffffffffffffffffffff1673ffffffffffffffffffffffffffffffffffffffff16815260200190815260200160002081905550600081905060008173ffffffffffffffffffffffffffffffffffffffff166370a08231306040518263ffffffff1660e01b8152600401610b279190611ca7565b60206040518083038186803b158015610b3f57600080fd5b505afa158015610b53573d6000803e3d6000fd5b505050506040513d601f19601f82011682018060405250810190610b7791906119c6565b90508173ffffffffffffffffffffffffffffffffffffffff16632e1a7d4d826040518263ffffffff1660e01b8152600401610bb29190611eaf565b600060405180830381600087803b158015610bcc57600080fd5b505af1158015610be0573d6000803e3d6000fd5b505050508273ffffffffffffffffffffffffffffffffffffffff16610c036110fa565b73ffffffffffffffffffffffffffffffffffffffff167f03d1c6e11435f9fdf99686494801bee42b031ab3c47c63abdbca7e22c33f5cbd83604051610c489190611eaf565b60405180910390a350505b50565b6000603360009054906101000a900473ffffffffffffffffffffffffffffffffffffffff16905090565b606560019054906101000a900473ffffffffffffffffffffffffffffffffffffffff1681565b60001515606560009054906101000a900460ff16151514610cfc576040517f08c379a0000000000000000000000000000000000000000000000000000000008152600401610cf390611daf565b60405180910390fd5b60008151905060008111610d45576040517f08c379a0000000000000000000000000000000000000000000000000000000008152600401610d3c90611d2f565b60405180910390fd5b60005b81811015610dac57610d99838281518110610d8c577f4e487b7100000000000000000000000000000000000000000000000000000000600052603260045260246000fd5b602002602001015161045a565b8080610da4906120a0565b915050610d48565b505050565b600060019054906101000a900460ff1680610dd7575060008054906101000a900460ff16155b610e16576040517f08c379a0000000000000000000000000000000000000000000000000000000008152600401610e0d90611e2f565b60405180910390fd5b60008060019054906101000a900460ff161590508015610e66576001600060016101000a81548160ff02191690831515021790555060016000806101000a81548160ff0219169083151502179055505b610e6e611188565b610e778361037e565b600073ffffffffffffffffffffffffffffffffffffffff168273ffffffffffffffffffffffffffffffffffffffff1614610f0c576001606560006101000a81548160ff02191690831515021790555081606560016101000a81548173ffffffffffffffffffffffffffffffffffffffff021916908373ffffffffffffffffffffffffffffffffffffffff160217905550610f28565b6000606560006101000a81548160ff0219169083151502179055505b8015610f495760008060016101000a81548160ff0219169083151502179055505b505050565b610f566110fa565b73ffffffffffffffffffffffffffffffffffffffff16610f74610c56565b73ffffffffffffffffffffffffffffffffffffffff1614610fca576040517f08c379a0000000000000000000000000000000000000000000000000000000008152600401610fc190611e4f565b60405180910390fd5b600073ffffffffffffffffffffffffffffffffffffffff168173ffffffffffffffffffffffffffffffffffffffff16141561103a576040517f08c379a000000000000000000000000000000000000000000000000000000000815260040161103190611d6f565b60405180910390fd5b8073ffffffffffffffffffffffffffffffffffffffff16603360009054906101000a900473ffffffffffffffffffffffffffffffffffffffff1673ffffffffffffffffffffffffffffffffffffffff167f8be0079c531659141344cd1fd0a4f28419497f9722a3daafe3b4186f6b6457e060405160405180910390a380603360006101000a81548173ffffffffffffffffffffffffffffffffffffffff021916908373ffffffffffffffffffffffffffffffffffffffff16021790555050565b600033905090565b6111838363a9059cbb60e01b8484604051602401611121929190611cc2565b604051602081830303815290604052907bffffffffffffffffffffffffffffffffffffffffffffffffffffffff19166020820180517bffffffffffffffffffffffffffffffffffffffffffffffffffffffff8381831617835250505050611271565b505050565b600060019054906101000a900460ff16806111ae575060008054906101000a900460ff16155b6111ed576040517f08c379a00000000000000000000000000000000000000000000000000000000081526004016111e490611e2f565b60405180910390fd5b60008060019054906101000a900460ff16159050801561123d576001600060016101000a81548160ff02191690831515021790555060016000806101000a81548160ff0219169083151502179055505b611245611338565b61124d611411565b801561126e5760008060016101000a81548160ff0219169083151502179055505b50565b60006112d3826040518060400160405280602081526020017f5361666545524332303a206c6f772d6c6576656c2063616c6c206661696c65648152508573ffffffffffffffffffffffffffffffffffffffff166115939092919063ffffffff16565b905060008151111561133357808060200190518101906112f39190611933565b611332576040517f08c379a000000000000000000000000000000000000000000000000000000000815260040161132990611e8f565b60405180910390fd5b5b505050565b600060019054906101000a900460ff168061135e575060008054906101000a900460ff16155b61139d576040517f08c379a000000000000000000000000000000000000000000000000000000000815260040161139490611e2f565b60405180910390fd5b60008060019054906101000a900460ff1615905080156113ed576001600060016101000a81548160ff02191690831515021790555060016000806101000a81548160ff0219169083151502179055505b801561140e5760008060016101000a81548160ff0219169083151502179055505b50565b600060019054906101000a900460ff1680611437575060008054906101000a900460ff16155b611476576040517f08c379a000000000000000000000000000000000000000000000000000000000815260040161146d90611e2f565b60405180910390fd5b60008060019054906101000a900460ff1615905080156114c6576001600060016101000a81548160ff02191690831515021790555060016000806101000a81548160ff0219169083151502179055505b60006114d06110fa565b905080603360006101000a81548173ffffffffffffffffffffffffffffffffffffffff021916908373ffffffffffffffffffffffffffffffffffffffff1602179055508073ffffffffffffffffffffffffffffffffffffffff16600073ffffffffffffffffffffffffffffffffffffffff167f8be0079c531659141344cd1fd0a4f28419497f9722a3daafe3b4186f6b6457e060405160405180910390a35080156115905760008060016101000a81548160ff0219169083151502179055505b50565b60606115a284846000856115ab565b90509392505050565b6060824710156115f0576040517f08c379a00000000000000000000000000000000000000000000000000000000081526004016115e790611dcf565b60405180910390fd5b6115f9856116bf565b611638576040517f08c379a000000000000000000000000000000000000000000000000000000000815260040161162f90611e6f565b60405180910390fd5b6000808673ffffffffffffffffffffffffffffffffffffffff1685876040516116619190611c90565b60006040518083038185875af1925050503d806000811461169e576040519150601f19603f3d011682016040523d82523d6000602084013e6116a3565b606091505b50915091506116b38282866116d2565b92505050949350505050565b600080823b905060008111915050919050565b606083156116e257829050611732565b6000835111156116f55782518084602001fd5b816040517f08c379a00000000000000000000000000000000000000000000000000000000081526004016117299190611d0d565b60405180910390fd5b9392505050565b600061174c61174784611eef565b611eca565b9050808382526020820190508285602086028201111561176b57600080fd5b60005b8581101561179b578161178188826117e3565b84526020840193506020830192505060018101905061176e565b5050509392505050565b60006117b86117b384611f1b565b611eca565b9050828152602081018484840111156117d057600080fd5b6117db84828561202d565b509392505050565b6000813590506117f2816124c0565b92915050565b600081519050611807816124c0565b92915050565b600082601f83011261181e57600080fd5b813561182e848260208601611739565b91505092915050565b600081519050611846816124d7565b92915050565b600082601f83011261185d57600080fd5b813561186d8482602086016117a5565b91505092915050565b600081359050611885816124ee565b92915050565b60008151905061189a816124ee565b92915050565b6000602082840312156118b257600080fd5b60006118c0848285016117e3565b91505092915050565b6000602082840312156118db57600080fd5b60006118e9848285016117f8565b91505092915050565b60006020828403121561190457600080fd5b600082013567ffffffffffffffff81111561191e57600080fd5b61192a8482850161180d565b91505092915050565b60006020828403121561194557600080fd5b600061195384828501611837565b91505092915050565b60006020828403121561196e57600080fd5b600082013567ffffffffffffffff81111561198857600080fd5b6119948482850161184c565b91505092915050565b6000602082840312156119af57600080fd5b60006119bd84828501611876565b91505092915050565b6000602082840312156119d857600080fd5b60006119e68482850161188b565b91505092915050565b60008060408385031215611a0257600080fd5b6000611a1085828601611876565b9250506020611a21858286016117e3565b9150509250929050565b611a3481611fe5565b82525050565b6000611a4582611f4c565b611a4f8185611f62565b9350611a5f81856020860161203c565b611a6881612147565b840191505092915050565b6000611a7e82611f4c565b611a888185611f73565b9350611a9881856020860161203c565b80840191505092915050565b6000611aaf82611f57565b611ab98185611f7e565b9350611ac981856020860161203c565b611ad281612147565b840191505092915050565b6000611aea603183611f7e565b9150611af582612158565b604082019050919050565b6000611b0d603083611f7e565b9150611b18826121a7565b604082019050919050565b6000611b30602683611f7e565b9150611b3b826121f6565b604082019050919050565b6000611b53602e83611f7e565b9150611b5e82612245565b604082019050919050565b6000611b76602f83611f7e565b9150611b8182612294565b604082019050919050565b6000611b99602683611f7e565b9150611ba4826122e3565b604082019050919050565b6000611bbc602a83611f7e565b9150611bc782612332565b604082019050919050565b6000611bdf602e83611f7e565b9150611bea82612381565b604082019050919050565b6000611c02602e83611f7e565b9150611c0d826123d0565b604082019050919050565b6000611c25602083611f7e565b9150611c308261241f565b602082019050919050565b6000611c48601d83611f7e565b9150611c5382612448565b602082019050919050565b6000611c6b602a83611f7e565b9150611c7682612471565b604082019050919050565b611c8a81612023565b82525050565b6000611c9c8284611a73565b915081905092915050565b6000602082019050611cbc6000830184611a2b565b92915050565b6000604082019050611cd76000830185611a2b565b611ce46020830184611c81565b9392505050565b60006020820190508181036000830152611d058184611a3a565b905092915050565b60006020820190508181036000830152611d278184611aa4565b905092915050565b60006020820190508181036000830152611d4881611add565b9050919050565b60006020820190508181036000830152611d6881611b00565b9050919050565b60006020820190508181036000830152611d8881611b23565b9050919050565b60006020820190508181036000830152611da881611b46565b9050919050565b60006020820190508181036000830152611dc881611b69565b9050919050565b60006020820190508181036000830152611de881611b8c565b9050919050565b60006020820190508181036000830152611e0881611baf565b9050919050565b60006020820190508181036000830152611e2881611bd2565b9050919050565b60006020820190508181036000830152611e4881611bf5565b9050919050565b60006020820190508181036000830152611e6881611c18565b9050919050565b60006020820190508181036000830152611e8881611c3b565b9050919050565b60006020820190508181036000830152611ea881611c5e565b9050919050565b6000602082019050611ec46000830184611c81565b92915050565b6000611ed4611ee5565b9050611ee0828261206f565b919050565b6000604051905090565b600067ffffffffffffffff821115611f0a57611f09612118565b5b602082029050602081019050919050565b600067ffffffffffffffff821115611f3657611f35612118565b5b611f3f82612147565b9050602081019050919050565b600081519050919050565b600081519050919050565b600082825260208201905092915050565b600081905092915050565b600082825260208201905092915050565b6000611f9a82612023565b9150611fa583612023565b9250827fffffffffffffffffffffffffffffffffffffffffffffffffffffffffffffffff03821115611fda57611fd96120e9565b5b828201905092915050565b6000611ff082612003565b9050919050565b60008115159050919050565b600073ffffffffffffffffffffffffffffffffffffffff82169050919050565b6000819050919050565b82818337600083830152505050565b60005b8381101561205a57808201518184015260208101905061203f565b83811115612069576000848401525b50505050565b61207882612147565b810181811067ffffffffffffffff8211171561209757612096612118565b5b80604052505050565b60006120ab82612023565b91507fffffffffffffffffffffffffffffffffffffffffffffffffffffffffffffffff8214156120de576120dd6120e9565b5b600182019050919050565b7f4e487b7100000000000000000000000000000000000000000000000000000000600052601160045260246000fd5b7f4e487b7100000000000000000000000000000000000000000000000000000000600052604160045260246000fd5b6000601f19601f8301169050919050565b7f4861727665737465723a206e65656420746f207370656369667920737920707260008201527f6f76696465727320666f7220636c61696d000000000000000000000000000000602082015250565b7f4861727665737465723a206368696c6420746f6b656e2061646472657373206d60008201527f7573742062652073706563696669656400000000000000000000000000000000602082015250565b7f4f776e61626c653a206e6577206f776e657220697320746865207a65726f206160008201527f6464726573730000000000000000000000000000000000000000000000000000602082015250565b7f4861727665737465723a2073792070726f76696465722061646472657373206d60008201527f757374206e6f7420626520307830000000000000000000000000000000000000602082015250565b7f4861727665737465723a2073686f756c64206f6e6c792062652063616c6c656460008201527f206f6e206368696c6420636861696e0000000000000000000000000000000000602082015250565b7f416464726573733a20696e73756666696369656e742062616c616e636520666f60008201527f722063616c6c0000000000000000000000000000000000000000000000000000602082015250565b7f4861727665737465723a20746f6b656e2061646472657373206d75737420626560008201527f2073706563696669656400000000000000000000000000000000000000000000602082015250565b7f4861727665737465723a2073686f756c64206f6e6c792062652063616c6c656460008201527f206f6e20726f6f7420636861696e000000000000000000000000000000000000602082015250565b7f496e697469616c697a61626c653a20636f6e747261637420697320616c72656160008201527f647920696e697469616c697a6564000000000000000000000000000000000000602082015250565b7f4f776e61626c653a2063616c6c6572206973206e6f7420746865206f776e6572600082015250565b7f416464726573733a2063616c6c20746f206e6f6e2d636f6e7472616374000000600082015250565b7f5361666545524332303a204552433230206f7065726174696f6e20646964206e60008201527f6f74207375636365656400000000000000000000000000000000000000000000602082015250565b6124c981611fe5565b81146124d457600080fd5b50565b6124e081611ff7565b81146124eb57600080fd5b50565b6124f781612023565b811461250257600080fd5b5056fea2646970667358221220ff44e0e6ccc94b8645c6cebbe90a7dc3541a4de7f2b8f895d3f57f2c6402af1c64736f6c63430008040033",
  "devdoc": {
    "kind": "dev",
    "methods": {
      "owner()": {
        "details": "Returns the address of the current owner."
      },
      "renounceOwnership()": {
        "details": "Leaves the contract without owner. It will not be possible to call `onlyOwner` functions anymore. Can only be called by the current owner. NOTE: Renouncing ownership will leave the contract without an owner, thereby removing any functionality that is only available to the owner."
      },
      "transferOwnership(address)": {
        "details": "Transfers ownership of the contract to a new account (`newOwner`). Can only be called by the current owner."
      }
    },
    "version": 1
  },
  "userdoc": {
    "kind": "user",
    "methods": {},
    "version": 1
  },
  "storageLayout": {
    "storage": [
      {
        "astId": 136,
        "contract": "contracts/PolygonTokenHarvester.sol:PolygonTokenHarvester",
        "label": "_initialized",
        "offset": 0,
        "slot": "0",
        "type": "t_bool"
      },
      {
        "astId": 139,
        "contract": "contracts/PolygonTokenHarvester.sol:PolygonTokenHarvester",
        "label": "_initializing",
        "offset": 1,
        "slot": "0",
        "type": "t_bool"
      },
      {
        "astId": 220,
        "contract": "contracts/PolygonTokenHarvester.sol:PolygonTokenHarvester",
        "label": "__gap",
        "offset": 0,
        "slot": "1",
        "type": "t_array(t_uint256)50_storage"
      },
      {
        "astId": 10,
        "contract": "contracts/PolygonTokenHarvester.sol:PolygonTokenHarvester",
        "label": "_owner",
        "offset": 0,
        "slot": "51",
        "type": "t_address"
      },
      {
        "astId": 129,
        "contract": "contracts/PolygonTokenHarvester.sol:PolygonTokenHarvester",
        "label": "__gap",
        "offset": 0,
        "slot": "52",
        "type": "t_array(t_uint256)49_storage"
      },
      {
        "astId": 847,
        "contract": "contracts/PolygonTokenHarvester.sol:PolygonTokenHarvester",
        "label": "_onRootChain",
        "offset": 0,
        "slot": "101",
        "type": "t_bool"
      },
      {
        "astId": 849,
        "contract": "contracts/PolygonTokenHarvester.sol:PolygonTokenHarvester",
        "label": "rootChainManager",
        "offset": 1,
        "slot": "101",
        "type": "t_address"
      },
      {
        "astId": 853,
        "contract": "contracts/PolygonTokenHarvester.sol:PolygonTokenHarvester",
        "label": "lastWithdraw",
        "offset": 0,
        "slot": "102",
        "type": "t_mapping(t_address,t_uint256)"
      },
      {
        "astId": 855,
        "contract": "contracts/PolygonTokenHarvester.sol:PolygonTokenHarvester",
        "label": "withdrawCooldown",
        "offset": 0,
        "slot": "103",
        "type": "t_uint256"
      }
    ],
    "types": {
      "t_address": {
        "encoding": "inplace",
        "label": "address",
        "numberOfBytes": "20"
      },
      "t_array(t_uint256)49_storage": {
        "base": "t_uint256",
        "encoding": "inplace",
        "label": "uint256[49]",
        "numberOfBytes": "1568"
      },
      "t_array(t_uint256)50_storage": {
        "base": "t_uint256",
        "encoding": "inplace",
        "label": "uint256[50]",
        "numberOfBytes": "1600"
      },
      "t_bool": {
        "encoding": "inplace",
        "label": "bool",
        "numberOfBytes": "1"
      },
      "t_mapping(t_address,t_uint256)": {
        "encoding": "mapping",
        "key": "t_address",
        "label": "mapping(address => uint256)",
        "numberOfBytes": "32",
        "value": "t_uint256"
      },
      "t_uint256": {
        "encoding": "inplace",
        "label": "uint256",
        "numberOfBytes": "32"
      }
    }
  }
}