{
  "address": "0x25Ad61Faf0F01e6A080B57189aFD112D5179fe7a",
  "abi": [
    {
      "inputs": [
        {
          "internalType": "address",
          "name": "_fxChild",
          "type": "address"
        }
      ],
      "stateMutability": "nonpayable",
      "type": "constructor"
    },
    {
      "anonymous": false,
      "inputs": [
        {
          "indexed": false,
          "internalType": "bytes",
          "name": "message",
          "type": "bytes"
        }
      ],
      "name": "MessageSent",
      "type": "event"
    },
    {
      "anonymous": false,
      "inputs": [
        {
          "indexed": true,
          "internalType": "address",
          "name": "previousOwner",
          "type": "address"
        },
        {
          "indexed": true,
          "internalType": "address",
          "name": "newOwner",
          "type": "address"
        }
      ],
      "name": "OwnershipTransferred",
      "type": "event"
    },
    {
      "inputs": [],
      "name": "fxChild",
      "outputs": [
        {
          "internalType": "address",
          "name": "",
          "type": "address"
        }
      ],
      "stateMutability": "view",
      "type": "function"
    },
    {
      "inputs": [],
      "name": "fxRootTunnel",
      "outputs": [
        {
          "internalType": "address",
          "name": "",
          "type": "address"
        }
      ],
      "stateMutability": "view",
      "type": "function"
    },
    {
      "inputs": [],
      "name": "latestData",
      "outputs": [
        {
          "internalType": "bytes",
          "name": "",
          "type": "bytes"
        }
      ],
      "stateMutability": "view",
      "type": "function"
    },
    {
      "inputs": [],
      "name": "latestRootMessageSender",
      "outputs": [
        {
          "internalType": "address",
          "name": "",
          "type": "address"
        }
      ],
      "stateMutability": "view",
      "type": "function"
    },
    {
      "inputs": [],
      "name": "latestStateId",
      "outputs": [
        {
          "internalType": "uint256",
          "name": "",
          "type": "uint256"
        }
      ],
      "stateMutability": "view",
      "type": "function"
    },
    {
      "inputs": [],
      "name": "owner",
      "outputs": [
        {
          "internalType": "address",
          "name": "",
          "type": "address"
        }
      ],
      "stateMutability": "view",
      "type": "function"
    },
    {
      "inputs": [
        {
          "internalType": "uint256",
          "name": "stateId",
          "type": "uint256"
        },
        {
          "internalType": "address",
          "name": "rootMessageSender",
          "type": "address"
        },
        {
          "internalType": "bytes",
          "name": "data",
          "type": "bytes"
        }
      ],
      "name": "processMessageFromRoot",
      "outputs": [],
      "stateMutability": "nonpayable",
      "type": "function"
    },
    {
      "inputs": [],
      "name": "renounceOwnership",
      "outputs": [],
      "stateMutability": "nonpayable",
      "type": "function"
    },
    {
      "inputs": [
        {
          "internalType": "bytes",
          "name": "message",
          "type": "bytes"
        }
      ],
      "name": "sendMessageToRoot",
      "outputs": [],
      "stateMutability": "nonpayable",
      "type": "function"
    },
    {
      "inputs": [
        {
          "internalType": "address",
          "name": "_fxRootTunnel",
          "type": "address"
        }
      ],
      "name": "setFxRootTunnel",
      "outputs": [],
      "stateMutability": "nonpayable",
      "type": "function"
    },
    {
      "inputs": [
        {
          "internalType": "address",
          "name": "newOwner",
          "type": "address"
        }
      ],
      "name": "transferOwnership",
      "outputs": [],
      "stateMutability": "nonpayable",
      "type": "function"
    }
  ],
  "transactionHash": "0x74c119fd4e487fd7d599513e20a25aa42b3dc6bb1545d20c58dc69d87bc57348",
  "args": [
    "0xCf73231F28B7331BBe3124B907840A94851f9f11"
  ],
  "solcInputHash": "44b6ef53bd637867bd6c4e5ca8a7fb1b",
  "bytecode": "0x60806040523480156200001157600080fd5b506040516200180838038062001808833981810160405281019062000037919062000150565b80806000806101000a81548173ffffffffffffffffffffffffffffffffffffffff021916908373ffffffffffffffffffffffffffffffffffffffff1602179055505060006200008b6200013160201b60201c565b905080600260006101000a81548173ffffffffffffffffffffffffffffffffffffffff021916908373ffffffffffffffffffffffffffffffffffffffff1602179055508073ffffffffffffffffffffffffffffffffffffffff16600073ffffffffffffffffffffffffffffffffffffffff167f8be0079c531659141344cd1fd0a4f28419497f9722a3daafe3b4186f6b6457e060405160405180910390a35050620001d5565b600033905090565b6000815190506200014a81620001bb565b92915050565b600060208284031215620001695762000168620001b6565b5b6000620001798482850162000139565b91505092915050565b60006200018f8262000196565b9050919050565b600073ffffffffffffffffffffffffffffffffffffffff82169050919050565b600080fd5b620001c68162000182565b8114620001d257600080fd5b50565b61162380620001e56000396000f3fe608060405234801561001057600080fd5b50600436106100a95760003560e01c8063888370941161007157806388837094146101305780638da5cb5b1461014c5780639a113ee21461016a5780639a7c4b7114610186578063e6a8e745146101a2578063f2fde38b146101c0576100a9565b8063142bc2ae146100ae578063450d11f0146100cc5780635a319df9146100ea578063715018a6146101085780637f1e9cb014610112575b600080fd5b6100b66101dc565b6040516100c391906110fa565b60405180910390f35b6100d461026a565b6040516100e191906110df565b60405180910390f35b6100f261028e565b6040516100ff91906111de565b60405180910390f35b610110610294565b005b61011a6103d1565b60405161012791906110df565b60405180910390f35b61014a60048036038101906101459190610dc9565b6103f7565b005b6101546104cc565b60405161016191906110df565b60405180910390f35b610184600480360381019061017f9190610e52565b6104f6565b005b6101a0600480360381019061019b9190610ee4565b61057e565b005b6101aa610661565b6040516101b791906110df565b60405180910390f35b6101da60048036038101906101d59190610dc9565b610687565b005b600580546101e990611353565b80601f016020809104026020016040519081016040528092919081815260200182805461021590611353565b80156102625780601f1061023757610100808354040283529160200191610262565b820191906000526020600020905b81548152906001019060200180831161024557829003601f168201915b505050505081565b60008054906101000a900473ffffffffffffffffffffffffffffffffffffffff1681565b60035481565b61029c610833565b73ffffffffffffffffffffffffffffffffffffffff166102ba6104cc565b73ffffffffffffffffffffffffffffffffffffffff1614610310576040517f08c379a00000000000000000000000000000000000000000000000000000000081526004016103079061119e565b60405180910390fd5b600073ffffffffffffffffffffffffffffffffffffffff16600260009054906101000a900473ffffffffffffffffffffffffffffffffffffffff1673ffffffffffffffffffffffffffffffffffffffff167f8be0079c531659141344cd1fd0a4f28419497f9722a3daafe3b4186f6b6457e060405160405180910390a36000600260006101000a81548173ffffffffffffffffffffffffffffffffffffffff021916908373ffffffffffffffffffffffffffffffffffffffff160217905550565b600160009054906101000a900473ffffffffffffffffffffffffffffffffffffffff1681565b600073ffffffffffffffffffffffffffffffffffffffff16600160009054906101000a900473ffffffffffffffffffffffffffffffffffffffff1673ffffffffffffffffffffffffffffffffffffffff1614610488576040517f08c379a000000000000000000000000000000000000000000000000000000000815260040161047f906111be565b60405180910390fd5b80600160006101000a81548173ffffffffffffffffffffffffffffffffffffffff021916908373ffffffffffffffffffffffffffffffffffffffff16021790555050565b6000600260009054906101000a900473ffffffffffffffffffffffffffffffffffffffff16905090565b6104fe610833565b73ffffffffffffffffffffffffffffffffffffffff1661051c6104cc565b73ffffffffffffffffffffffffffffffffffffffff1614610572576040517f08c379a00000000000000000000000000000000000000000000000000000000081526004016105699061119e565b60405180910390fd5b61057b8161083b565b50565b60008054906101000a900473ffffffffffffffffffffffffffffffffffffffff1673ffffffffffffffffffffffffffffffffffffffff163373ffffffffffffffffffffffffffffffffffffffff161461060c576040517f08c379a00000000000000000000000000000000000000000000000000000000081526004016106039061113e565b60405180910390fd5b61065b848484848080601f016020809104026020016040519081016040528093929190818152602001838380828437600081840152601f19601f82011690508083019250505050505050610875565b50505050565b600460009054906101000a900473ffffffffffffffffffffffffffffffffffffffff1681565b61068f610833565b73ffffffffffffffffffffffffffffffffffffffff166106ad6104cc565b73ffffffffffffffffffffffffffffffffffffffff1614610703576040517f08c379a00000000000000000000000000000000000000000000000000000000081526004016106fa9061119e565b60405180910390fd5b600073ffffffffffffffffffffffffffffffffffffffff168173ffffffffffffffffffffffffffffffffffffffff161415610773576040517f08c379a000000000000000000000000000000000000000000000000000000000815260040161076a9061117e565b60405180910390fd5b8073ffffffffffffffffffffffffffffffffffffffff16600260009054906101000a900473ffffffffffffffffffffffffffffffffffffffff1673ffffffffffffffffffffffffffffffffffffffff167f8be0079c531659141344cd1fd0a4f28419497f9722a3daafe3b4186f6b6457e060405160405180910390a380600260006101000a81548173ffffffffffffffffffffffffffffffffffffffff021916908373ffffffffffffffffffffffffffffffffffffffff16021790555050565b600033905090565b7f8c5261668696ce22758910d05bab8f186d6eb247ceac2af2e82c7dc17669b0368160405161086a91906110fa565b60405180910390a150565b81600160009054906101000a900473ffffffffffffffffffffffffffffffffffffffff1673ffffffffffffffffffffffffffffffffffffffff168173ffffffffffffffffffffffffffffffffffffffff1614610906576040517f08c379a00000000000000000000000000000000000000000000000000000000081526004016108fd9061115e565b60405180910390fd5b8360038190555082600460006101000a81548173ffffffffffffffffffffffffffffffffffffffff021916908373ffffffffffffffffffffffffffffffffffffffff1602179055508160059080519060200190610964929190610b41565b506000808380602001905181019061097c9190610df6565b915091506000808373ffffffffffffffffffffffffffffffffffffffff16836040516109a891906110c8565b6000604051808303816000865af19150503d80600081146109e5576040519150601f19603f3d011682016040523d82523d6000602084013e6109ea565b606091505b509150915081610a7557604481511015610a0357600080fd5b600481019050610a2581806020019051810190610a209190610e9b565b610a7f565b80806020019051810190610a399190610e9b565b6040517f08c379a0000000000000000000000000000000000000000000000000000000008152600401610a6c919061111c565b60405180910390fd5b5050505050505050565b610b1581604051602401610a93919061111c565b6040516020818303038152906040527f41304fac000000000000000000000000000000000000000000000000000000007bffffffffffffffffffffffffffffffffffffffffffffffffffffffff19166020820180517bffffffffffffffffffffffffffffffffffffffffffffffffffffffff8381831617835250505050610b18565b50565b60008151905060006a636f6e736f6c652e6c6f679050602083016000808483855afa5050505050565b828054610b4d90611353565b90600052602060002090601f016020900481019282610b6f5760008555610bb6565b82601f10610b8857805160ff1916838001178555610bb6565b82800160010185558215610bb6579182015b82811115610bb5578251825591602001919060010190610b9a565b5b509050610bc39190610bc7565b5090565b5b80821115610be0576000816000905550600101610bc8565b5090565b6000610bf7610bf28461121e565b6111f9565b905082815260208101848484011115610c1357610c12611423565b5b610c1e848285611311565b509392505050565b6000610c39610c348461121e565b6111f9565b905082815260208101848484011115610c5557610c54611423565b5b610c60848285611320565b509392505050565b6000610c7b610c768461124f565b6111f9565b905082815260208101848484011115610c9757610c96611423565b5b610ca2848285611320565b509392505050565b600081359050610cb9816115a8565b92915050565b600081519050610cce816115bf565b92915050565b60008083601f840112610cea57610ce9611419565b5b8235905067ffffffffffffffff811115610d0757610d06611414565b5b602083019150836001820283011115610d2357610d2261141e565b5b9250929050565b600082601f830112610d3f57610d3e611419565b5b8135610d4f848260208601610be4565b91505092915050565b600082601f830112610d6d57610d6c611419565b5b8151610d7d848260208601610c26565b91505092915050565b600082601f830112610d9b57610d9a611419565b5b8151610dab848260208601610c68565b91505092915050565b600081359050610dc3816115d6565b92915050565b600060208284031215610ddf57610dde61142d565b5b6000610ded84828501610caa565b91505092915050565b60008060408385031215610e0d57610e0c61142d565b5b6000610e1b85828601610cbf565b925050602083015167ffffffffffffffff811115610e3c57610e3b611428565b5b610e4885828601610d58565b9150509250929050565b600060208284031215610e6857610e6761142d565b5b600082013567ffffffffffffffff811115610e8657610e85611428565b5b610e9284828501610d2a565b91505092915050565b600060208284031215610eb157610eb061142d565b5b600082015167ffffffffffffffff811115610ecf57610ece611428565b5b610edb84828501610d86565b91505092915050565b60008060008060608587031215610efe57610efd61142d565b5b6000610f0c87828801610db4565b9450506020610f1d87828801610caa565b935050604085013567ffffffffffffffff811115610f3e57610f3d611428565b5b610f4a87828801610cd4565b925092505092959194509250565b610f61816112c3565b82525050565b6000610f7282611280565b610f7c8185611296565b9350610f8c818560208601611320565b610f9581611432565b840191505092915050565b6000610fab82611280565b610fb581856112a7565b9350610fc5818560208601611320565b80840191505092915050565b6000610fdc8261128b565b610fe681856112b2565b9350610ff6818560208601611320565b610fff81611432565b840191505092915050565b60006110176021836112b2565b915061102282611443565b604082019050919050565b600061103a602b836112b2565b915061104582611492565b604082019050919050565b600061105d6026836112b2565b9150611068826114e1565b604082019050919050565b60006110806020836112b2565b915061108b82611530565b602082019050919050565b60006110a3602a836112b2565b91506110ae82611559565b604082019050919050565b6110c281611307565b82525050565b60006110d48284610fa0565b915081905092915050565b60006020820190506110f46000830184610f58565b92915050565b600060208201905081810360008301526111148184610f67565b905092915050565b600060208201905081810360008301526111368184610fd1565b905092915050565b600060208201905081810360008301526111578161100a565b9050919050565b600060208201905081810360008301526111778161102d565b9050919050565b6000602082019050818103600083015261119781611050565b9050919050565b600060208201905081810360008301526111b781611073565b9050919050565b600060208201905081810360008301526111d781611096565b9050919050565b60006020820190506111f360008301846110b9565b92915050565b6000611203611214565b905061120f8282611385565b919050565b6000604051905090565b600067ffffffffffffffff821115611239576112386113e5565b5b61124282611432565b9050602081019050919050565b600067ffffffffffffffff82111561126a576112696113e5565b5b61127382611432565b9050602081019050919050565b600081519050919050565b600081519050919050565b600082825260208201905092915050565b600081905092915050565b600082825260208201905092915050565b60006112ce826112e7565b9050919050565b60006112e0826112e7565b9050919050565b600073ffffffffffffffffffffffffffffffffffffffff82169050919050565b6000819050919050565b82818337600083830152505050565b60005b8381101561133e578082015181840152602081019050611323565b8381111561134d576000848401525b50505050565b6000600282049050600182168061136b57607f821691505b6020821081141561137f5761137e6113b6565b5b50919050565b61138e82611432565b810181811067ffffffffffffffff821117156113ad576113ac6113e5565b5b80604052505050565b7f4e487b7100000000000000000000000000000000000000000000000000000000600052602260045260246000fd5b7f4e487b7100000000000000000000000000000000000000000000000000000000600052604160045260246000fd5b600080fd5b600080fd5b600080fd5b600080fd5b600080fd5b600080fd5b6000601f19601f8301169050919050565b7f4678426173654368696c6454756e6e656c3a20494e56414c49445f53454e444560008201527f5200000000000000000000000000000000000000000000000000000000000000602082015250565b7f4678426173654368696c6454756e6e656c3a20494e56414c49445f53454e444560008201527f525f46524f4d5f524f4f54000000000000000000000000000000000000000000602082015250565b7f4f776e61626c653a206e6577206f776e657220697320746865207a65726f206160008201527f6464726573730000000000000000000000000000000000000000000000000000602082015250565b7f4f776e61626c653a2063616c6c6572206973206e6f7420746865206f776e6572600082015250565b7f4678426173654368696c6454756e6e656c3a20524f4f545f54554e4e454c5f4160008201527f4c52454144595f53455400000000000000000000000000000000000000000000602082015250565b6115b1816112c3565b81146115bc57600080fd5b50565b6115c8816112d5565b81146115d357600080fd5b50565b6115df81611307565b81146115ea57600080fd5b5056fea2646970667358221220ff25582cc1180e5af330e66662bec801896452943c5599c101666fd6eb1e3e6a64736f6c63430008050033",
  "devdoc": {
    "kind": "dev",
    "methods": {
      "owner()": {
        "details": "Returns the address of the current owner."
      },
      "renounceOwnership()": {
        "details": "Leaves the contract without owner. It will not be possible to call `onlyOwner` functions anymore. Can only be called by the current owner. NOTE: Renouncing ownership will leave the contract without an owner, thereby removing any functionality that is only available to the owner."
      },
      "transferOwnership(address)": {
        "details": "Transfers ownership of the contract to a new account (`newOwner`). Can only be called by the current owner."
      }
    },
    "version": 1
  },
  "userdoc": {
    "kind": "user",
    "methods": {},
    "version": 1
  },
  "storageLayout": {
    "storage": [
      {
        "astId": 307,
        "contract": "contracts/PolygonDAOChild.sol:PolygonDAOChild",
        "label": "fxChild",
        "offset": 0,
        "slot": "0",
        "type": "t_address"
      },
      {
        "astId": 309,
        "contract": "contracts/PolygonDAOChild.sol:PolygonDAOChild",
        "label": "fxRootTunnel",
        "offset": 0,
        "slot": "1",
        "type": "t_address"
      },
      {
        "astId": 7,
        "contract": "contracts/PolygonDAOChild.sol:PolygonDAOChild",
        "label": "_owner",
        "offset": 0,
        "slot": "2",
        "type": "t_address"
      },
      {
        "astId": 144,
        "contract": "contracts/PolygonDAOChild.sol:PolygonDAOChild",
        "label": "latestStateId",
        "offset": 0,
        "slot": "3",
        "type": "t_uint256"
      },
      {
        "astId": 146,
        "contract": "contracts/PolygonDAOChild.sol:PolygonDAOChild",
        "label": "latestRootMessageSender",
        "offset": 0,
        "slot": "4",
        "type": "t_address"
      },
      {
        "astId": 148,
        "contract": "contracts/PolygonDAOChild.sol:PolygonDAOChild",
        "label": "latestData",
        "offset": 0,
        "slot": "5",
        "type": "t_bytes_storage"
      }
    ],
    "types": {
      "t_address": {
        "encoding": "inplace",
        "label": "address",
        "numberOfBytes": "20"
      },
      "t_bytes_storage": {
        "encoding": "bytes",
        "label": "bytes",
        "numberOfBytes": "32"
      },
      "t_uint256": {
        "encoding": "inplace",
        "label": "uint256",
        "numberOfBytes": "32"
      }
    }
  }
}