{
  "address": "0x52B563cCa6c2eb3fcC8cC5A038328D9BA426dF69",
  "abi": [
    {
      "inputs": [
        {
          "internalType": "address",
          "name": "bond",
          "type": "address"
        }
      ],
      "stateMutability": "nonpayable",
      "type": "constructor"
    },
    {
      "anonymous": false,
      "inputs": [
        {
          "indexed": true,
          "internalType": "address",
          "name": "previousOwner",
          "type": "address"
        },
        {
          "indexed": true,
          "internalType": "address",
          "name": "newOwner",
          "type": "address"
        }
      ],
      "name": "OwnershipTransferred",
      "type": "event"
    },
    {
      "anonymous": false,
      "inputs": [
        {
          "indexed": true,
          "internalType": "address",
          "name": "caller",
          "type": "address"
        },
        {
          "indexed": true,
          "internalType": "address",
          "name": "spender",
          "type": "address"
        },
        {
          "indexed": false,
          "internalType": "uint256",
          "name": "amount",
          "type": "uint256"
        }
      ],
      "name": "SetAllowance",
      "type": "event"
    },
    {
      "inputs": [],
      "name": "owner",
      "outputs": [
        {
          "internalType": "address",
          "name": "",
          "type": "address"
        }
      ],
      "stateMutability": "view",
      "type": "function"
    },
    {
      "inputs": [],
      "name": "renounceOwnership",
      "outputs": [],
      "stateMutability": "nonpayable",
      "type": "function"
    },
    {
      "inputs": [
        {
          "internalType": "address",
          "name": "spender",
          "type": "address"
        },
        {
          "internalType": "uint256",
          "name": "amount",
          "type": "uint256"
        }
      ],
      "name": "setAllowance",
      "outputs": [],
      "stateMutability": "nonpayable",
      "type": "function"
    },
    {
      "inputs": [
        {
          "internalType": "address",
          "name": "newOwner",
          "type": "address"
        }
      ],
      "name": "transferOwnership",
      "outputs": [],
      "stateMutability": "nonpayable",
      "type": "function"
    }
  ],
  "transactionHash": "0x145b19b1fc935e6f1dc09e664e66c0602bd8777ebd30b733a5ae3e62bea7ae36",
  "args": [
    "0xc40a66AFB908789341A58B8423F89fE2cb7Dc1f9"
  ],
  "solcInputHash": "4555173d5430bd3fb7c00f8b4d749b44",
  "bytecode": "0x608060405234801561001057600080fd5b50604051610a3b380380610a3b83398181016040528101906100329190610144565b600061004261012760201b60201c565b9050806000806101000a81548173ffffffffffffffffffffffffffffffffffffffff021916908373ffffffffffffffffffffffffffffffffffffffff1602179055508073ffffffffffffffffffffffffffffffffffffffff16600073ffffffffffffffffffffffffffffffffffffffff167f8be0079c531659141344cd1fd0a4f28419497f9722a3daafe3b4186f6b6457e060405160405180910390a35080600160006101000a81548173ffffffffffffffffffffffffffffffffffffffff021916908373ffffffffffffffffffffffffffffffffffffffff160217905550506101b6565b600033905090565b60008151905061013e8161019f565b92915050565b60006020828403121561015657600080fd5b60006101648482850161012f565b91505092915050565b60006101788261017f565b9050919050565b600073ffffffffffffffffffffffffffffffffffffffff82169050919050565b6101a88161016d565b81146101b357600080fd5b50565b610876806101c56000396000f3fe608060405234801561001057600080fd5b506004361061004c5760003560e01c8063310ec4a714610051578063715018a61461006d5780638da5cb5b14610077578063f2fde38b14610095575b600080fd5b61006b600480360381019061006691906105c2565b6100b1565b005b610075610246565b005b61007f610380565b60405161008c919061068b565b60405180910390f35b6100af60048036038101906100aa9190610599565b6103a9565b005b6100b9610552565b73ffffffffffffffffffffffffffffffffffffffff166100d7610380565b73ffffffffffffffffffffffffffffffffffffffff161461012d576040517f08c379a0000000000000000000000000000000000000000000000000000000008152600401610124906106ef565b60405180910390fd5b600160009054906101000a900473ffffffffffffffffffffffffffffffffffffffff1673ffffffffffffffffffffffffffffffffffffffff1663095ea7b383836040518363ffffffff1660e01b815260040161018a9291906106a6565b602060405180830381600087803b1580156101a457600080fd5b505af11580156101b8573d6000803e3d6000fd5b505050506040513d601f19601f820116820180604052508101906101dc91906105fe565b508173ffffffffffffffffffffffffffffffffffffffff163373ffffffffffffffffffffffffffffffffffffffff167f3c07380f6fcae3bac39771c60e5c680334073911f2176b65f1d6925ba0badcdf8360405161023a919061070f565b60405180910390a35050565b61024e610552565b73ffffffffffffffffffffffffffffffffffffffff1661026c610380565b73ffffffffffffffffffffffffffffffffffffffff16146102c2576040517f08c379a00000000000000000000000000000000000000000000000000000000081526004016102b9906106ef565b60405180910390fd5b600073ffffffffffffffffffffffffffffffffffffffff1660008054906101000a900473ffffffffffffffffffffffffffffffffffffffff1673ffffffffffffffffffffffffffffffffffffffff167f8be0079c531659141344cd1fd0a4f28419497f9722a3daafe3b4186f6b6457e060405160405180910390a360008060006101000a81548173ffffffffffffffffffffffffffffffffffffffff021916908373ffffffffffffffffffffffffffffffffffffffff160217905550565b60008060009054906101000a900473ffffffffffffffffffffffffffffffffffffffff16905090565b6103b1610552565b73ffffffffffffffffffffffffffffffffffffffff166103cf610380565b73ffffffffffffffffffffffffffffffffffffffff1614610425576040517f08c379a000000000000000000000000000000000000000000000000000000000815260040161041c906106ef565b60405180910390fd5b600073ffffffffffffffffffffffffffffffffffffffff168173ffffffffffffffffffffffffffffffffffffffff161415610495576040517f08c379a000000000000000000000000000000000000000000000000000000000815260040161048c906106cf565b60405180910390fd5b8073ffffffffffffffffffffffffffffffffffffffff1660008054906101000a900473ffffffffffffffffffffffffffffffffffffffff1673ffffffffffffffffffffffffffffffffffffffff167f8be0079c531659141344cd1fd0a4f28419497f9722a3daafe3b4186f6b6457e060405160405180910390a3806000806101000a81548173ffffffffffffffffffffffffffffffffffffffff021916908373ffffffffffffffffffffffffffffffffffffffff16021790555050565b600033905090565b600081359050610569816107fb565b92915050565b60008151905061057e81610812565b92915050565b60008135905061059381610829565b92915050565b6000602082840312156105ab57600080fd5b60006105b98482850161055a565b91505092915050565b600080604083850312156105d557600080fd5b60006105e38582860161055a565b92505060206105f485828601610584565b9150509250929050565b60006020828403121561061057600080fd5b600061061e8482850161056f565b91505092915050565b6106308161073b565b82525050565b600061064360268361072a565b915061064e82610783565b604082019050919050565b600061066660208361072a565b9150610671826107d2565b602082019050919050565b61068581610779565b82525050565b60006020820190506106a06000830184610627565b92915050565b60006040820190506106bb6000830185610627565b6106c8602083018461067c565b9392505050565b600060208201905081810360008301526106e881610636565b9050919050565b6000602082019050818103600083015261070881610659565b9050919050565b6000602082019050610724600083018461067c565b92915050565b600082825260208201905092915050565b600061074682610759565b9050919050565b60008115159050919050565b600073ffffffffffffffffffffffffffffffffffffffff82169050919050565b6000819050919050565b7f4f776e61626c653a206e6577206f776e657220697320746865207a65726f206160008201527f6464726573730000000000000000000000000000000000000000000000000000602082015250565b7f4f776e61626c653a2063616c6c6572206973206e6f7420746865206f776e6572600082015250565b6108048161073b565b811461080f57600080fd5b50565b61081b8161074d565b811461082657600080fd5b50565b61083281610779565b811461083d57600080fd5b5056fea2646970667358221220906cb23bdd1b156c98a306d1dcb09e70a8bdb4105aaa5f2a853896c9401f722e64736f6c63430008040033",
  "devdoc": {
    "kind": "dev",
    "methods": {
      "owner()": {
        "details": "Returns the address of the current owner."
      },
      "renounceOwnership()": {
        "details": "Leaves the contract without owner. It will not be possible to call `onlyOwner` functions anymore. Can only be called by the current owner. NOTE: Renouncing ownership will leave the contract without an owner, thereby removing any functionality that is only available to the owner."
      },
      "transferOwnership(address)": {
        "details": "Transfers ownership of the contract to a new account (`newOwner`). Can only be called by the current owner."
      }
    },
    "version": 1
  },
  "userdoc": {
    "kind": "user",
    "methods": {},
    "version": 1
  },
  "storageLayout": {
    "storage": [
      {
        "astId": 7,
        "contract": "contracts/CommunityVault.sol:CommunityVault",
        "label": "_owner",
        "offset": 0,
        "slot": "0",
        "type": "t_address"
      },
      {
        "astId": 219,
        "contract": "contracts/CommunityVault.sol:CommunityVault",
        "label": "_bond",
        "offset": 0,
        "slot": "1",
        "type": "t_contract(IERC20)187"
      }
    ],
    "types": {
      "t_address": {
        "encoding": "inplace",
        "label": "address",
        "numberOfBytes": "20"
      },
      "t_contract(IERC20)187": {
        "encoding": "inplace",
        "label": "contract IERC20",
        "numberOfBytes": "20"
      }
    }
  }
}