{
  "address": "0xf6262224e5da988ec90adACf1F4F194b1D63EC75",
  "abi": [
    {
      "inputs": [
        {
          "internalType": "address",
          "name": "_fxChild",
          "type": "address"
        }
      ],
      "stateMutability": "nonpayable",
      "type": "constructor"
    },
    {
      "anonymous": false,
      "inputs": [
        {
          "indexed": false,
          "internalType": "bytes",
          "name": "message",
          "type": "bytes"
        }
      ],
      "name": "MessageSent",
      "type": "event"
    },
    {
      "anonymous": false,
      "inputs": [
        {
          "indexed": true,
          "internalType": "address",
          "name": "previousOwner",
          "type": "address"
        },
        {
          "indexed": true,
          "internalType": "address",
          "name": "newOwner",
          "type": "address"
        }
      ],
      "name": "OwnershipTransferred",
      "type": "event"
    },
    {
      "inputs": [],
      "name": "fxChild",
      "outputs": [
        {
          "internalType": "address",
          "name": "",
          "type": "address"
        }
      ],
      "stateMutability": "view",
      "type": "function"
    },
    {
      "inputs": [],
      "name": "fxRootTunnel",
      "outputs": [
        {
          "internalType": "address",
          "name": "",
          "type": "address"
        }
      ],
      "stateMutability": "view",
      "type": "function"
    },
    {
      "inputs": [],
      "name": "latestData",
      "outputs": [
        {
          "internalType": "bytes",
          "name": "",
          "type": "bytes"
        }
      ],
      "stateMutability": "view",
      "type": "function"
    },
    {
      "inputs": [],
      "name": "latestRootMessageSender",
      "outputs": [
        {
          "internalType": "address",
          "name": "",
          "type": "address"
        }
      ],
      "stateMutability": "view",
      "type": "function"
    },
    {
      "inputs": [],
      "name": "latestStateId",
      "outputs": [
        {
          "internalType": "uint256",
          "name": "",
          "type": "uint256"
        }
      ],
      "stateMutability": "view",
      "type": "function"
    },
    {
      "inputs": [],
      "name": "owner",
      "outputs": [
        {
          "internalType": "address",
          "name": "",
          "type": "address"
        }
      ],
      "stateMutability": "view",
      "type": "function"
    },
    {
      "inputs": [
        {
          "internalType": "uint256",
          "name": "stateId",
          "type": "uint256"
        },
        {
          "internalType": "address",
          "name": "rootMessageSender",
          "type": "address"
        },
        {
          "internalType": "bytes",
          "name": "data",
          "type": "bytes"
        }
      ],
      "name": "processMessageFromRoot",
      "outputs": [],
      "stateMutability": "nonpayable",
      "type": "function"
    },
    {
      "inputs": [
        {
          "internalType": "uint256",
          "name": "stateId",
          "type": "uint256"
        },
        {
          "internalType": "address",
          "name": "sender",
          "type": "address"
        },
        {
          "internalType": "bytes",
          "name": "data",
          "type": "bytes"
        }
      ],
      "name": "processMessageFromRootTest",
      "outputs": [],
      "stateMutability": "nonpayable",
      "type": "function"
    },
    {
      "inputs": [],
      "name": "renounceOwnership",
      "outputs": [],
      "stateMutability": "nonpayable",
      "type": "function"
    },
    {
      "inputs": [
        {
          "internalType": "bytes",
          "name": "message",
          "type": "bytes"
        }
      ],
      "name": "sendMessageToRoot",
      "outputs": [],
      "stateMutability": "nonpayable",
      "type": "function"
    },
    {
      "inputs": [
        {
          "internalType": "address",
          "name": "_fxRootTunnel",
          "type": "address"
        }
      ],
      "name": "setFxRootTunnel",
      "outputs": [],
      "stateMutability": "nonpayable",
      "type": "function"
    },
    {
      "inputs": [
        {
          "internalType": "address",
          "name": "newOwner",
          "type": "address"
        }
      ],
      "name": "transferOwnership",
      "outputs": [],
      "stateMutability": "nonpayable",
      "type": "function"
    }
  ],
  "transactionHash": "0x89d24790235abc0ca2e06bea70463452600c2ca178cda602addcf8282c90b075",
  "args": [
    "0xB011D306D36c396847bA42b1c7AEb8E96C540d9a"
  ],
  "solcInputHash": "44b6ef53bd637867bd6c4e5ca8a7fb1b",
  "bytecode": "0x60806040523480156200001157600080fd5b50604051620018b0380380620018b0833981810160405281019062000037919062000152565b8080806000806101000a81548173ffffffffffffffffffffffffffffffffffffffff021916908373ffffffffffffffffffffffffffffffffffffffff1602179055505060006200008c6200013360201b60201c565b905080600260006101000a81548173ffffffffffffffffffffffffffffffffffffffff021916908373ffffffffffffffffffffffffffffffffffffffff1602179055508073ffffffffffffffffffffffffffffffffffffffff16600073ffffffffffffffffffffffffffffffffffffffff167f8be0079c531659141344cd1fd0a4f28419497f9722a3daafe3b4186f6b6457e060405160405180910390a3505050620001d7565b600033905090565b6000815190506200014c81620001bd565b92915050565b6000602082840312156200016b576200016a620001b8565b5b60006200017b848285016200013b565b91505092915050565b6000620001918262000198565b9050919050565b600073ffffffffffffffffffffffffffffffffffffffff82169050919050565b600080fd5b620001c88162000184565b8114620001d457600080fd5b50565b6116c980620001e76000396000f3fe608060405234801561001057600080fd5b50600436106100b45760003560e01c80638da5cb5b116100715780638da5cb5b146101575780638dab0b65146101755780639a113ee2146101915780639a7c4b71146101ad578063e6a8e745146101c9578063f2fde38b146101e7576100b4565b8063142bc2ae146100b9578063450d11f0146100d75780635a319df9146100f5578063715018a6146101135780637f1e9cb01461011d578063888370941461013b575b600080fd5b6100c1610203565b6040516100ce91906111a0565b60405180910390f35b6100df610291565b6040516100ec9190611185565b60405180910390f35b6100fd6102b5565b60405161010a9190611284565b60405180910390f35b61011b6102bb565b005b6101256103f8565b6040516101329190611185565b60405180910390f35b61015560048036038101906101509190610e00565b61041e565b005b61015f6104f3565b60405161016c9190611185565b60405180910390f35b61018f600480360381019061018a9190610f8f565b61051d565b005b6101ab60048036038101906101a69190610e89565b61052d565b005b6101c760048036038101906101c29190610f1b565b6105b5565b005b6101d1610698565b6040516101de9190611185565b60405180910390f35b61020160048036038101906101fc9190610e00565b6106be565b005b60058054610210906113f9565b80601f016020809104026020016040519081016040528092919081815260200182805461023c906113f9565b80156102895780601f1061025e57610100808354040283529160200191610289565b820191906000526020600020905b81548152906001019060200180831161026c57829003601f168201915b505050505081565b60008054906101000a900473ffffffffffffffffffffffffffffffffffffffff1681565b60035481565b6102c361086a565b73ffffffffffffffffffffffffffffffffffffffff166102e16104f3565b73ffffffffffffffffffffffffffffffffffffffff1614610337576040517f08c379a000000000000000000000000000000000000000000000000000000000815260040161032e90611244565b60405180910390fd5b600073ffffffffffffffffffffffffffffffffffffffff16600260009054906101000a900473ffffffffffffffffffffffffffffffffffffffff1673ffffffffffffffffffffffffffffffffffffffff167f8be0079c531659141344cd1fd0a4f28419497f9722a3daafe3b4186f6b6457e060405160405180910390a36000600260006101000a81548173ffffffffffffffffffffffffffffffffffffffff021916908373ffffffffffffffffffffffffffffffffffffffff160217905550565b600160009054906101000a900473ffffffffffffffffffffffffffffffffffffffff1681565b600073ffffffffffffffffffffffffffffffffffffffff16600160009054906101000a900473ffffffffffffffffffffffffffffffffffffffff1673ffffffffffffffffffffffffffffffffffffffff16146104af576040517f08c379a00000000000000000000000000000000000000000000000000000000081526004016104a690611264565b60405180910390fd5b80600160006101000a81548173ffffffffffffffffffffffffffffffffffffffff021916908373ffffffffffffffffffffffffffffffffffffffff16021790555050565b6000600260009054906101000a900473ffffffffffffffffffffffffffffffffffffffff16905090565b610528838383610872565b505050565b61053561086a565b73ffffffffffffffffffffffffffffffffffffffff166105536104f3565b73ffffffffffffffffffffffffffffffffffffffff16146105a9576040517f08c379a00000000000000000000000000000000000000000000000000000000081526004016105a090611244565b60405180910390fd5b6105b281610a7c565b50565b60008054906101000a900473ffffffffffffffffffffffffffffffffffffffff1673ffffffffffffffffffffffffffffffffffffffff163373ffffffffffffffffffffffffffffffffffffffff1614610643576040517f08c379a000000000000000000000000000000000000000000000000000000000815260040161063a906111e4565b60405180910390fd5b610692848484848080601f016020809104026020016040519081016040528093929190818152602001838380828437600081840152601f19601f82011690508083019250505050505050610872565b50505050565b600460009054906101000a900473ffffffffffffffffffffffffffffffffffffffff1681565b6106c661086a565b73ffffffffffffffffffffffffffffffffffffffff166106e46104f3565b73ffffffffffffffffffffffffffffffffffffffff161461073a576040517f08c379a000000000000000000000000000000000000000000000000000000000815260040161073190611244565b60405180910390fd5b600073ffffffffffffffffffffffffffffffffffffffff168173ffffffffffffffffffffffffffffffffffffffff1614156107aa576040517f08c379a00000000000000000000000000000000000000000000000000000000081526004016107a190611224565b60405180910390fd5b8073ffffffffffffffffffffffffffffffffffffffff16600260009054906101000a900473ffffffffffffffffffffffffffffffffffffffff1673ffffffffffffffffffffffffffffffffffffffff167f8be0079c531659141344cd1fd0a4f28419497f9722a3daafe3b4186f6b6457e060405160405180910390a380600260006101000a81548173ffffffffffffffffffffffffffffffffffffffff021916908373ffffffffffffffffffffffffffffffffffffffff16021790555050565b600033905090565b81600160009054906101000a900473ffffffffffffffffffffffffffffffffffffffff1673ffffffffffffffffffffffffffffffffffffffff168173ffffffffffffffffffffffffffffffffffffffff1614610903576040517f08c379a00000000000000000000000000000000000000000000000000000000081526004016108fa90611204565b60405180910390fd5b8360038190555082600460006101000a81548173ffffffffffffffffffffffffffffffffffffffff021916908373ffffffffffffffffffffffffffffffffffffffff1602179055508160059080519060200190610961929190610b78565b50600080838060200190518101906109799190610e2d565b915091506000808373ffffffffffffffffffffffffffffffffffffffff16836040516109a5919061116e565b6000604051808303816000865af19150503d80600081146109e2576040519150601f19603f3d011682016040523d82523d6000602084013e6109e7565b606091505b509150915081610a7257604481511015610a0057600080fd5b600481019050610a2281806020019051810190610a1d9190610ed2565b610ab6565b80806020019051810190610a369190610ed2565b6040517f08c379a0000000000000000000000000000000000000000000000000000000008152600401610a6991906111c2565b60405180910390fd5b5050505050505050565b7f8c5261668696ce22758910d05bab8f186d6eb247ceac2af2e82c7dc17669b03681604051610aab91906111a0565b60405180910390a150565b610b4c81604051602401610aca91906111c2565b6040516020818303038152906040527f41304fac000000000000000000000000000000000000000000000000000000007bffffffffffffffffffffffffffffffffffffffffffffffffffffffff19166020820180517bffffffffffffffffffffffffffffffffffffffffffffffffffffffff8381831617835250505050610b4f565b50565b60008151905060006a636f6e736f6c652e6c6f679050602083016000808483855afa5050505050565b828054610b84906113f9565b90600052602060002090601f016020900481019282610ba65760008555610bed565b82601f10610bbf57805160ff1916838001178555610bed565b82800160010185558215610bed579182015b82811115610bec578251825591602001919060010190610bd1565b5b509050610bfa9190610bfe565b5090565b5b80821115610c17576000816000905550600101610bff565b5090565b6000610c2e610c29846112c4565b61129f565b905082815260208101848484011115610c4a57610c496114c9565b5b610c558482856113b7565b509392505050565b6000610c70610c6b846112c4565b61129f565b905082815260208101848484011115610c8c57610c8b6114c9565b5b610c978482856113c6565b509392505050565b6000610cb2610cad846112f5565b61129f565b905082815260208101848484011115610cce57610ccd6114c9565b5b610cd98482856113c6565b509392505050565b600081359050610cf08161164e565b92915050565b600081519050610d0581611665565b92915050565b60008083601f840112610d2157610d206114bf565b5b8235905067ffffffffffffffff811115610d3e57610d3d6114ba565b5b602083019150836001820283011115610d5a57610d596114c4565b5b9250929050565b600082601f830112610d7657610d756114bf565b5b8135610d86848260208601610c1b565b91505092915050565b600082601f830112610da457610da36114bf565b5b8151610db4848260208601610c5d565b91505092915050565b600082601f830112610dd257610dd16114bf565b5b8151610de2848260208601610c9f565b91505092915050565b600081359050610dfa8161167c565b92915050565b600060208284031215610e1657610e156114d3565b5b6000610e2484828501610ce1565b91505092915050565b60008060408385031215610e4457610e436114d3565b5b6000610e5285828601610cf6565b925050602083015167ffffffffffffffff811115610e7357610e726114ce565b5b610e7f85828601610d8f565b9150509250929050565b600060208284031215610e9f57610e9e6114d3565b5b600082013567ffffffffffffffff811115610ebd57610ebc6114ce565b5b610ec984828501610d61565b91505092915050565b600060208284031215610ee857610ee76114d3565b5b600082015167ffffffffffffffff811115610f0657610f056114ce565b5b610f1284828501610dbd565b91505092915050565b60008060008060608587031215610f3557610f346114d3565b5b6000610f4387828801610deb565b9450506020610f5487828801610ce1565b935050604085013567ffffffffffffffff811115610f7557610f746114ce565b5b610f8187828801610d0b565b925092505092959194509250565b600080600060608486031215610fa857610fa76114d3565b5b6000610fb686828701610deb565b9350506020610fc786828701610ce1565b925050604084013567ffffffffffffffff811115610fe857610fe76114ce565b5b610ff486828701610d61565b9150509250925092565b61100781611369565b82525050565b600061101882611326565b611022818561133c565b93506110328185602086016113c6565b61103b816114d8565b840191505092915050565b600061105182611326565b61105b818561134d565b935061106b8185602086016113c6565b80840191505092915050565b600061108282611331565b61108c8185611358565b935061109c8185602086016113c6565b6110a5816114d8565b840191505092915050565b60006110bd602183611358565b91506110c8826114e9565b604082019050919050565b60006110e0602b83611358565b91506110eb82611538565b604082019050919050565b6000611103602683611358565b915061110e82611587565b604082019050919050565b6000611126602083611358565b9150611131826115d6565b602082019050919050565b6000611149602a83611358565b9150611154826115ff565b604082019050919050565b611168816113ad565b82525050565b600061117a8284611046565b915081905092915050565b600060208201905061119a6000830184610ffe565b92915050565b600060208201905081810360008301526111ba818461100d565b905092915050565b600060208201905081810360008301526111dc8184611077565b905092915050565b600060208201905081810360008301526111fd816110b0565b9050919050565b6000602082019050818103600083015261121d816110d3565b9050919050565b6000602082019050818103600083015261123d816110f6565b9050919050565b6000602082019050818103600083015261125d81611119565b9050919050565b6000602082019050818103600083015261127d8161113c565b9050919050565b6000602082019050611299600083018461115f565b92915050565b60006112a96112ba565b90506112b5828261142b565b919050565b6000604051905090565b600067ffffffffffffffff8211156112df576112de61148b565b5b6112e8826114d8565b9050602081019050919050565b600067ffffffffffffffff8211156113105761130f61148b565b5b611319826114d8565b9050602081019050919050565b600081519050919050565b600081519050919050565b600082825260208201905092915050565b600081905092915050565b600082825260208201905092915050565b60006113748261138d565b9050919050565b60006113868261138d565b9050919050565b600073ffffffffffffffffffffffffffffffffffffffff82169050919050565b6000819050919050565b82818337600083830152505050565b60005b838110156113e45780820151818401526020810190506113c9565b838111156113f3576000848401525b50505050565b6000600282049050600182168061141157607f821691505b602082108114156114255761142461145c565b5b50919050565b611434826114d8565b810181811067ffffffffffffffff821117156114535761145261148b565b5b80604052505050565b7f4e487b7100000000000000000000000000000000000000000000000000000000600052602260045260246000fd5b7f4e487b7100000000000000000000000000000000000000000000000000000000600052604160045260246000fd5b600080fd5b600080fd5b600080fd5b600080fd5b600080fd5b600080fd5b6000601f19601f8301169050919050565b7f4678426173654368696c6454756e6e656c3a20494e56414c49445f53454e444560008201527f5200000000000000000000000000000000000000000000000000000000000000602082015250565b7f4678426173654368696c6454756e6e656c3a20494e56414c49445f53454e444560008201527f525f46524f4d5f524f4f54000000000000000000000000000000000000000000602082015250565b7f4f776e61626c653a206e6577206f776e657220697320746865207a65726f206160008201527f6464726573730000000000000000000000000000000000000000000000000000602082015250565b7f4f776e61626c653a2063616c6c6572206973206e6f7420746865206f776e6572600082015250565b7f4678426173654368696c6454756e6e656c3a20524f4f545f54554e4e454c5f4160008201527f4c52454144595f53455400000000000000000000000000000000000000000000602082015250565b61165781611369565b811461166257600080fd5b50565b61166e8161137b565b811461167957600080fd5b50565b611685816113ad565b811461169057600080fd5b5056fea2646970667358221220ff4e81c288bf5acee1afb3a65113f631d99faaf3ce70047c6935dd9104c216a964736f6c63430008050033",
  "devdoc": {
    "kind": "dev",
    "methods": {
      "owner()": {
        "details": "Returns the address of the current owner."
      },
      "renounceOwnership()": {
        "details": "Leaves the contract without owner. It will not be possible to call `onlyOwner` functions anymore. Can only be called by the current owner. NOTE: Renouncing ownership will leave the contract without an owner, thereby removing any functionality that is only available to the owner."
      },
      "transferOwnership(address)": {
        "details": "Transfers ownership of the contract to a new account (`newOwner`). Can only be called by the current owner."
      }
    },
    "version": 1
  },
  "userdoc": {
    "kind": "user",
    "methods": {},
    "version": 1
  },
  "storageLayout": {
    "storage": [
      {
        "astId": 307,
        "contract": "contracts/PolygonDAOChildTest.sol:PolygonDAOChildTest",
        "label": "fxChild",
        "offset": 0,
        "slot": "0",
        "type": "t_address"
      },
      {
        "astId": 309,
        "contract": "contracts/PolygonDAOChildTest.sol:PolygonDAOChildTest",
        "label": "fxRootTunnel",
        "offset": 0,
        "slot": "1",
        "type": "t_address"
      },
      {
        "astId": 7,
        "contract": "contracts/PolygonDAOChildTest.sol:PolygonDAOChildTest",
        "label": "_owner",
        "offset": 0,
        "slot": "2",
        "type": "t_address"
      },
      {
        "astId": 144,
        "contract": "contracts/PolygonDAOChildTest.sol:PolygonDAOChildTest",
        "label": "latestStateId",
        "offset": 0,
        "slot": "3",
        "type": "t_uint256"
      },
      {
        "astId": 146,
        "contract": "contracts/PolygonDAOChildTest.sol:PolygonDAOChildTest",
        "label": "latestRootMessageSender",
        "offset": 0,
        "slot": "4",
        "type": "t_address"
      },
      {
        "astId": 148,
        "contract": "contracts/PolygonDAOChildTest.sol:PolygonDAOChildTest",
        "label": "latestData",
        "offset": 0,
        "slot": "5",
        "type": "t_bytes_storage"
      }
    ],
    "types": {
      "t_address": {
        "encoding": "inplace",
        "label": "address",
        "numberOfBytes": "20"
      },
      "t_bytes_storage": {
        "encoding": "bytes",
        "label": "bytes",
        "numberOfBytes": "32"
      },
      "t_uint256": {
        "encoding": "inplace",
        "label": "uint256",
        "numberOfBytes": "32"
      }
    }
  }
}