{
  "address": "0xf81412E94bD28a740aeD456DeC862Df075CEb3C0",
  "abi": [
    {
      "anonymous": false,
      "inputs": [
        {
          "indexed": true,
          "internalType": "address",
          "name": "previousOwner",
          "type": "address"
        },
        {
          "indexed": true,
          "internalType": "address",
          "name": "newOwner",
          "type": "address"
        }
      ],
      "name": "OwnershipTransferred",
      "type": "event"
    },
    {
      "anonymous": false,
      "inputs": [
        {
          "indexed": true,
          "internalType": "address",
          "name": "caller",
          "type": "address"
        },
        {
          "indexed": true,
          "internalType": "address",
          "name": "spender",
          "type": "address"
        },
        {
          "indexed": false,
          "internalType": "uint256",
          "name": "amount",
          "type": "uint256"
        }
      ],
      "name": "SetAllowance",
      "type": "event"
    },
    {
      "anonymous": false,
      "inputs": [
        {
          "indexed": true,
          "internalType": "address",
          "name": "caller",
          "type": "address"
        },
        {
          "indexed": true,
          "internalType": "address",
          "name": "owner",
          "type": "address"
        },
        {
          "indexed": true,
          "internalType": "address",
          "name": "token",
          "type": "address"
        },
        {
          "indexed": false,
          "internalType": "uint256",
          "name": "amount",
          "type": "uint256"
        }
      ],
      "name": "TransferToOwner",
      "type": "event"
    },
    {
      "anonymous": false,
      "inputs": [
        {
          "indexed": true,
          "internalType": "address",
          "name": "caller",
          "type": "address"
        },
        {
          "indexed": true,
          "internalType": "address",
          "name": "token",
          "type": "address"
        },
        {
          "indexed": false,
          "internalType": "uint256",
          "name": "amount",
          "type": "uint256"
        }
      ],
      "name": "WithdrawOnChild",
      "type": "event"
    },
    {
      "anonymous": false,
      "inputs": [
        {
          "indexed": true,
          "internalType": "address",
          "name": "caller",
          "type": "address"
        }
      ],
      "name": "WithdrawOnRoot",
      "type": "event"
    },
    {
      "inputs": [
        {
          "internalType": "address",
          "name": "_syProvider",
          "type": "address"
        }
      ],
      "name": "claimAndWithdrawOnChild",
      "outputs": [],
      "stateMutability": "nonpayable",
      "type": "function"
    },
    {
      "inputs": [
        {
          "internalType": "uint256",
          "name": "_withdrawCooldown",
          "type": "uint256"
        },
        {
          "internalType": "address",
          "name": "_rootChainManager",
          "type": "address"
        }
      ],
      "name": "initialize",
      "outputs": [],
      "stateMutability": "nonpayable",
      "type": "function"
    },
    {
      "inputs": [
        {
          "internalType": "address",
          "name": "",
          "type": "address"
        }
      ],
      "name": "lastWithdraw",
      "outputs": [
        {
          "internalType": "uint256",
          "name": "",
          "type": "uint256"
        }
      ],
      "stateMutability": "view",
      "type": "function"
    },
    {
      "inputs": [],
      "name": "owner",
      "outputs": [
        {
          "internalType": "address",
          "name": "",
          "type": "address"
        }
      ],
      "stateMutability": "view",
      "type": "function"
    },
    {
      "inputs": [],
      "name": "renounceOwnership",
      "outputs": [],
      "stateMutability": "nonpayable",
      "type": "function"
    },
    {
      "inputs": [],
      "name": "rootChainManager",
      "outputs": [
        {
          "internalType": "address",
          "name": "",
          "type": "address"
        }
      ],
      "stateMutability": "view",
      "type": "function"
    },
    {
      "inputs": [
        {
          "internalType": "uint256",
          "name": "_withdrawCooldown",
          "type": "uint256"
        }
      ],
      "name": "setWithdrawCooldown",
      "outputs": [],
      "stateMutability": "nonpayable",
      "type": "function"
    },
    {
      "inputs": [
        {
          "internalType": "address",
          "name": "newOwner",
          "type": "address"
        }
      ],
      "name": "transferOwnership",
      "outputs": [],
      "stateMutability": "nonpayable",
      "type": "function"
    },
    {
      "inputs": [
        {
          "internalType": "address",
          "name": "_token",
          "type": "address"
        }
      ],
      "name": "transferToOwner",
      "outputs": [],
      "stateMutability": "nonpayable",
      "type": "function"
    },
    {
      "inputs": [
        {
          "internalType": "bytes",
          "name": "_data",
          "type": "bytes"
        },
        {
          "internalType": "address",
          "name": "_token",
          "type": "address"
        }
      ],
      "name": "withdrawAndTransferToOwner",
      "outputs": [
        {
          "internalType": "bytes",
          "name": "",
          "type": "bytes"
        }
      ],
      "stateMutability": "nonpayable",
      "type": "function"
    },
    {
      "inputs": [],
      "name": "withdrawCooldown",
      "outputs": [
        {
          "internalType": "uint256",
          "name": "",
          "type": "uint256"
        }
      ],
      "stateMutability": "view",
      "type": "function"
    },
    {
      "inputs": [
        {
          "internalType": "address",
          "name": "_childToken",
          "type": "address"
        }
      ],
      "name": "withdrawOnChild",
      "outputs": [],
      "stateMutability": "nonpayable",
      "type": "function"
    },
    {
      "inputs": [
        {
          "internalType": "bytes",
          "name": "_data",
          "type": "bytes"
        }
      ],
      "name": "withdrawOnRoot",
      "outputs": [
        {
          "internalType": "bytes",
          "name": "",
          "type": "bytes"
        }
      ],
      "stateMutability": "nonpayable",
      "type": "function"
    }
  ],
  "transactionHash": "0x91a5ab28b8754d414e9f0c56567faea592c822d10d2357c7c69544566ca6089e",
  "args": [],
  "solcInputHash": "d92c071cae543425331b6ca185d82af8",
  "bytecode": "0x608060405234801561001057600080fd5b50612397806100206000396000f3fe608060405234801561001057600080fd5b50600436106100cf5760003560e01c8063715018a61161008c5780638da5cb5b116100665780638da5cb5b146101fc578063bd07018d1461021a578063da35a26f14610238578063f2fde38b14610254576100cf565b8063715018a6146101ba578063812d504d146101c457806385d3f47e146101e0576100cf565b806316feab75146100d4578063260b1fd9146101045780633cbfe3a11461013457806344feed29146101525780635689c2601461016e578063624d7b721461018a575b600080fd5b6100ee60048036038101906100e991906118ac565b610270565b6040516100fb9190611c2b565b60405180910390f35b61011e6004803603810190610119919061186b565b6102e8565b60405161012b9190611c2b565b60405180910390f35b61013c610469565b6040516101499190611dcf565b60405180910390f35b61016c60048036038101906101679190611900565b61046f565b005b610188600480360381019061018391906117f0565b61054b565b005b6101a4600480360381019061019f91906117f0565b610708565b6040516101b19190611dcf565b60405180910390f35b6101c2610720565b005b6101de60048036038101906101d991906117f0565b61085d565b005b6101fa60048036038101906101f591906117f0565b610a75565b005b610204610d47565b6040516102119190611be7565b60405180910390f35b610222610d71565b60405161022f9190611be7565b60405180910390f35b610252600480360381019061024d9190611952565b610d97565b005b61026e600480360381019061026991906117f0565b610f34565b005b606060011515606560009054906101000a900460ff161515146102c8576040517f08c379a00000000000000000000000000000000000000000000000000000000081526004016102bf90611d2f565b60405180910390fd5b60006102d3846102e8565b90506102de8361085d565b8091505092915050565b606060011515606560009054906101000a900460ff16151514610340576040517f08c379a000000000000000000000000000000000000000000000000000000000815260040161033790611d2f565b60405180910390fd5b600080606560019054906101000a900473ffffffffffffffffffffffffffffffffffffffff1673ffffffffffffffffffffffffffffffffffffffff168460405161038a9190611bd0565b6000604051808303816000865af19150503d80600081146103c7576040519150601f19603f3d011682016040523d82523d6000602084013e6103cc565b606091505b5091509150818190610414576040517f08c379a000000000000000000000000000000000000000000000000000000000815260040161040b9190611c4d565b60405180910390fd5b5061041d6110e0565b73ffffffffffffffffffffffffffffffffffffffff167fc3ff84400b51b8faa19b096a526771e00f25836296ed44a71bc9d01fd59e4ae360405160405180910390a28092505050919050565b60675481565b6104776110e0565b73ffffffffffffffffffffffffffffffffffffffff16610495610d47565b73ffffffffffffffffffffffffffffffffffffffff16146104eb576040517f08c379a00000000000000000000000000000000000000000000000000000000081526004016104e290611d6f565b60405180910390fd5b60001515606560009054906101000a900460ff16151514610541576040517f08c379a000000000000000000000000000000000000000000000000000000000815260040161053890611ccf565b60405180910390fd5b8060678190555050565b60001515606560009054906101000a900460ff161515146105a1576040517f08c379a000000000000000000000000000000000000000000000000000000000815260040161059890611ccf565b60405180910390fd5b600073ffffffffffffffffffffffffffffffffffffffff168173ffffffffffffffffffffffffffffffffffffffff161415610611576040517f08c379a000000000000000000000000000000000000000000000000000000000815260040161060890611caf565b60405180910390fd5b600081905060008173ffffffffffffffffffffffffffffffffffffffff1663633156376040518163ffffffff1660e01b8152600401602060405180830381600087803b15801561066057600080fd5b505af1158015610674573d6000803e3d6000fd5b505050506040513d601f19601f820116820180604052508101906106989190611819565b90508173ffffffffffffffffffffffffffffffffffffffff1663c2fbe7bc6040518163ffffffff1660e01b8152600401600060405180830381600087803b1580156106e257600080fd5b505af11580156106f6573d6000803e3d6000fd5b5050505061070381610a75565b505050565b60666020528060005260406000206000915090505481565b6107286110e0565b73ffffffffffffffffffffffffffffffffffffffff16610746610d47565b73ffffffffffffffffffffffffffffffffffffffff161461079c576040517f08c379a000000000000000000000000000000000000000000000000000000000815260040161079390611d6f565b60405180910390fd5b600073ffffffffffffffffffffffffffffffffffffffff16603360009054906101000a900473ffffffffffffffffffffffffffffffffffffffff1673ffffffffffffffffffffffffffffffffffffffff167f8be0079c531659141344cd1fd0a4f28419497f9722a3daafe3b4186f6b6457e060405160405180910390a36000603360006101000a81548173ffffffffffffffffffffffffffffffffffffffff021916908373ffffffffffffffffffffffffffffffffffffffff160217905550565b60011515606560009054906101000a900460ff161515146108b3576040517f08c379a00000000000000000000000000000000000000000000000000000000081526004016108aa90611d2f565b60405180910390fd5b600073ffffffffffffffffffffffffffffffffffffffff168173ffffffffffffffffffffffffffffffffffffffff161415610923576040517f08c379a000000000000000000000000000000000000000000000000000000000815260040161091a90611d0f565b60405180910390fd5b60008190506000610932610d47565b905060008273ffffffffffffffffffffffffffffffffffffffff166370a08231306040518263ffffffff1660e01b815260040161096f9190611be7565b60206040518083038186803b15801561098757600080fd5b505afa15801561099b573d6000803e3d6000fd5b505050506040513d601f19601f820116820180604052508101906109bf9190611929565b90506109ec82828573ffffffffffffffffffffffffffffffffffffffff166110e89092919063ffffffff16565b8373ffffffffffffffffffffffffffffffffffffffff168273ffffffffffffffffffffffffffffffffffffffff16610a226110e0565b73ffffffffffffffffffffffffffffffffffffffff167f76a904d36c6485f9a5b321da55bfecf63789bc50598252e91560e3b6175c1c0684604051610a679190611dcf565b60405180910390a450505050565b60001515606560009054906101000a900460ff16151514610acb576040517f08c379a0000000000000000000000000000000000000000000000000000000008152600401610ac290611ccf565b60405180910390fd5b600073ffffffffffffffffffffffffffffffffffffffff168173ffffffffffffffffffffffffffffffffffffffff161415610b3b576040517f08c379a0000000000000000000000000000000000000000000000000000000008152600401610b3290611c6f565b60405180910390fd5b606754606660008373ffffffffffffffffffffffffffffffffffffffff1673ffffffffffffffffffffffffffffffffffffffff16815260200190815260200160002054610b889190611e83565b431015610b9457610d44565b43606660008373ffffffffffffffffffffffffffffffffffffffff1673ffffffffffffffffffffffffffffffffffffffff16815260200190815260200160002081905550600081905060008173ffffffffffffffffffffffffffffffffffffffff166370a08231306040518263ffffffff1660e01b8152600401610c189190611be7565b60206040518083038186803b158015610c3057600080fd5b505afa158015610c44573d6000803e3d6000fd5b505050506040513d601f19601f82011682018060405250810190610c689190611929565b90508173ffffffffffffffffffffffffffffffffffffffff16632e1a7d4d826040518263ffffffff1660e01b8152600401610ca39190611dcf565b600060405180830381600087803b158015610cbd57600080fd5b505af1158015610cd1573d6000803e3d6000fd5b505050508273ffffffffffffffffffffffffffffffffffffffff16610cf46110e0565b73ffffffffffffffffffffffffffffffffffffffff167f03d1c6e11435f9fdf99686494801bee42b031ab3c47c63abdbca7e22c33f5cbd83604051610d399190611dcf565b60405180910390a350505b50565b6000603360009054906101000a900473ffffffffffffffffffffffffffffffffffffffff16905090565b606560019054906101000a900473ffffffffffffffffffffffffffffffffffffffff1681565b600060019054906101000a900460ff1680610dbd575060008054906101000a900460ff16155b610dfc576040517f08c379a0000000000000000000000000000000000000000000000000000000008152600401610df390611d4f565b60405180910390fd5b60008060019054906101000a900460ff161590508015610e4c576001600060016101000a81548160ff02191690831515021790555060016000806101000a81548160ff0219169083151502179055505b610e5461116e565b610e5d8361046f565b600073ffffffffffffffffffffffffffffffffffffffff168273ffffffffffffffffffffffffffffffffffffffff1614610ef2576001606560006101000a81548160ff02191690831515021790555081606560016101000a81548173ffffffffffffffffffffffffffffffffffffffff021916908373ffffffffffffffffffffffffffffffffffffffff160217905550610f0e565b6000606560006101000a81548160ff0219169083151502179055505b8015610f2f5760008060016101000a81548160ff0219169083151502179055505b505050565b610f3c6110e0565b73ffffffffffffffffffffffffffffffffffffffff16610f5a610d47565b73ffffffffffffffffffffffffffffffffffffffff1614610fb0576040517f08c379a0000000000000000000000000000000000000000000000000000000008152600401610fa790611d6f565b60405180910390fd5b600073ffffffffffffffffffffffffffffffffffffffff168173ffffffffffffffffffffffffffffffffffffffff161415611020576040517f08c379a000000000000000000000000000000000000000000000000000000000815260040161101790611c8f565b60405180910390fd5b8073ffffffffffffffffffffffffffffffffffffffff16603360009054906101000a900473ffffffffffffffffffffffffffffffffffffffff1673ffffffffffffffffffffffffffffffffffffffff167f8be0079c531659141344cd1fd0a4f28419497f9722a3daafe3b4186f6b6457e060405160405180910390a380603360006101000a81548173ffffffffffffffffffffffffffffffffffffffff021916908373ffffffffffffffffffffffffffffffffffffffff16021790555050565b600033905090565b6111698363a9059cbb60e01b8484604051602401611107929190611c02565b604051602081830303815290604052907bffffffffffffffffffffffffffffffffffffffffffffffffffffffff19166020820180517bffffffffffffffffffffffffffffffffffffffffffffffffffffffff8381831617835250505050611257565b505050565b600060019054906101000a900460ff1680611194575060008054906101000a900460ff16155b6111d3576040517f08c379a00000000000000000000000000000000000000000000000000000000081526004016111ca90611d4f565b60405180910390fd5b60008060019054906101000a900460ff161590508015611223576001600060016101000a81548160ff02191690831515021790555060016000806101000a81548160ff0219169083151502179055505b61122b61131e565b6112336113f7565b80156112545760008060016101000a81548160ff0219169083151502179055505b50565b60006112b9826040518060400160405280602081526020017f5361666545524332303a206c6f772d6c6576656c2063616c6c206661696c65648152508573ffffffffffffffffffffffffffffffffffffffff166115799092919063ffffffff16565b905060008151111561131957808060200190518101906112d99190611842565b611318576040517f08c379a000000000000000000000000000000000000000000000000000000000815260040161130f90611daf565b60405180910390fd5b5b505050565b600060019054906101000a900460ff1680611344575060008054906101000a900460ff16155b611383576040517f08c379a000000000000000000000000000000000000000000000000000000000815260040161137a90611d4f565b60405180910390fd5b60008060019054906101000a900460ff1615905080156113d3576001600060016101000a81548160ff02191690831515021790555060016000806101000a81548160ff0219169083151502179055505b80156113f45760008060016101000a81548160ff0219169083151502179055505b50565b600060019054906101000a900460ff168061141d575060008054906101000a900460ff16155b61145c576040517f08c379a000000000000000000000000000000000000000000000000000000000815260040161145390611d4f565b60405180910390fd5b60008060019054906101000a900460ff1615905080156114ac576001600060016101000a81548160ff02191690831515021790555060016000806101000a81548160ff0219169083151502179055505b60006114b66110e0565b905080603360006101000a81548173ffffffffffffffffffffffffffffffffffffffff021916908373ffffffffffffffffffffffffffffffffffffffff1602179055508073ffffffffffffffffffffffffffffffffffffffff16600073ffffffffffffffffffffffffffffffffffffffff167f8be0079c531659141344cd1fd0a4f28419497f9722a3daafe3b4186f6b6457e060405160405180910390a35080156115765760008060016101000a81548160ff0219169083151502179055505b50565b60606115888484600085611591565b90509392505050565b6060824710156115d6576040517f08c379a00000000000000000000000000000000000000000000000000000000081526004016115cd90611cef565b60405180910390fd5b6115df856116a5565b61161e576040517f08c379a000000000000000000000000000000000000000000000000000000000815260040161161590611d8f565b60405180910390fd5b6000808673ffffffffffffffffffffffffffffffffffffffff1685876040516116479190611bd0565b60006040518083038185875af1925050503d8060008114611684576040519150601f19603f3d011682016040523d82523d6000602084013e611689565b606091505b50915091506116998282866116b8565b92505050949350505050565b600080823b905060008111915050919050565b606083156116c857829050611718565b6000835111156116db5782518084602001fd5b816040517f08c379a000000000000000000000000000000000000000000000000000000000815260040161170f9190611c4d565b60405180910390fd5b9392505050565b600061173261172d84611e0f565b611dea565b90508281526020810184848401111561174a57600080fd5b611755848285611f21565b509392505050565b60008135905061176c8161231c565b92915050565b6000815190506117818161231c565b92915050565b60008151905061179681612333565b92915050565b600082601f8301126117ad57600080fd5b81356117bd84826020860161171f565b91505092915050565b6000813590506117d58161234a565b92915050565b6000815190506117ea8161234a565b92915050565b60006020828403121561180257600080fd5b60006118108482850161175d565b91505092915050565b60006020828403121561182b57600080fd5b600061183984828501611772565b91505092915050565b60006020828403121561185457600080fd5b600061186284828501611787565b91505092915050565b60006020828403121561187d57600080fd5b600082013567ffffffffffffffff81111561189757600080fd5b6118a38482850161179c565b91505092915050565b600080604083850312156118bf57600080fd5b600083013567ffffffffffffffff8111156118d957600080fd5b6118e58582860161179c565b92505060206118f68582860161175d565b9150509250929050565b60006020828403121561191257600080fd5b6000611920848285016117c6565b91505092915050565b60006020828403121561193b57600080fd5b6000611949848285016117db565b91505092915050565b6000806040838503121561196557600080fd5b6000611973858286016117c6565b92505060206119848582860161175d565b9150509250929050565b61199781611ed9565b82525050565b60006119a882611e40565b6119b28185611e56565b93506119c2818560208601611f30565b6119cb81611ff2565b840191505092915050565b60006119e182611e40565b6119eb8185611e67565b93506119fb818560208601611f30565b80840191505092915050565b6000611a1282611e4b565b611a1c8185611e72565b9350611a2c818560208601611f30565b611a3581611ff2565b840191505092915050565b6000611a4d603083611e72565b9150611a5882612003565b604082019050919050565b6000611a70602683611e72565b9150611a7b82612052565b604082019050919050565b6000611a93602e83611e72565b9150611a9e826120a1565b604082019050919050565b6000611ab6602f83611e72565b9150611ac1826120f0565b604082019050919050565b6000611ad9602683611e72565b9150611ae48261213f565b604082019050919050565b6000611afc602a83611e72565b9150611b078261218e565b604082019050919050565b6000611b1f602e83611e72565b9150611b2a826121dd565b604082019050919050565b6000611b42602e83611e72565b9150611b4d8261222c565b604082019050919050565b6000611b65602083611e72565b9150611b708261227b565b602082019050919050565b6000611b88601d83611e72565b9150611b93826122a4565b602082019050919050565b6000611bab602a83611e72565b9150611bb6826122cd565b604082019050919050565b611bca81611f17565b82525050565b6000611bdc82846119d6565b915081905092915050565b6000602082019050611bfc600083018461198e565b92915050565b6000604082019050611c17600083018561198e565b611c246020830184611bc1565b9392505050565b60006020820190508181036000830152611c45818461199d565b905092915050565b60006020820190508181036000830152611c678184611a07565b905092915050565b60006020820190508181036000830152611c8881611a40565b9050919050565b60006020820190508181036000830152611ca881611a63565b9050919050565b60006020820190508181036000830152611cc881611a86565b9050919050565b60006020820190508181036000830152611ce881611aa9565b9050919050565b60006020820190508181036000830152611d0881611acc565b9050919050565b60006020820190508181036000830152611d2881611aef565b9050919050565b60006020820190508181036000830152611d4881611b12565b9050919050565b60006020820190508181036000830152611d6881611b35565b9050919050565b60006020820190508181036000830152611d8881611b58565b9050919050565b60006020820190508181036000830152611da881611b7b565b9050919050565b60006020820190508181036000830152611dc881611b9e565b9050919050565b6000602082019050611de46000830184611bc1565b92915050565b6000611df4611e05565b9050611e008282611f63565b919050565b6000604051905090565b600067ffffffffffffffff821115611e2a57611e29611fc3565b5b611e3382611ff2565b9050602081019050919050565b600081519050919050565b600081519050919050565b600082825260208201905092915050565b600081905092915050565b600082825260208201905092915050565b6000611e8e82611f17565b9150611e9983611f17565b9250827fffffffffffffffffffffffffffffffffffffffffffffffffffffffffffffffff03821115611ece57611ecd611f94565b5b828201905092915050565b6000611ee482611ef7565b9050919050565b60008115159050919050565b600073ffffffffffffffffffffffffffffffffffffffff82169050919050565b6000819050919050565b82818337600083830152505050565b60005b83811015611f4e578082015181840152602081019050611f33565b83811115611f5d576000848401525b50505050565b611f6c82611ff2565b810181811067ffffffffffffffff82111715611f8b57611f8a611fc3565b5b80604052505050565b7f4e487b7100000000000000000000000000000000000000000000000000000000600052601160045260246000fd5b7f4e487b7100000000000000000000000000000000000000000000000000000000600052604160045260246000fd5b6000601f19601f8301169050919050565b7f4861727665737465723a206368696c6420746f6b656e2061646472657373206d60008201527f7573742062652073706563696669656400000000000000000000000000000000602082015250565b7f4f776e61626c653a206e6577206f776e657220697320746865207a65726f206160008201527f6464726573730000000000000000000000000000000000000000000000000000602082015250565b7f4861727665737465723a2073792070726f76696465722061646472657373206d60008201527f757374206e6f7420626520307830000000000000000000000000000000000000602082015250565b7f4861727665737465723a2073686f756c64206f6e6c792062652063616c6c656460008201527f206f6e206368696c6420636861696e0000000000000000000000000000000000602082015250565b7f416464726573733a20696e73756666696369656e742062616c616e636520666f60008201527f722063616c6c0000000000000000000000000000000000000000000000000000602082015250565b7f4861727665737465723a20746f6b656e2061646472657373206d75737420626560008201527f2073706563696669656400000000000000000000000000000000000000000000602082015250565b7f4861727665737465723a2073686f756c64206f6e6c792062652063616c6c656460008201527f206f6e20726f6f7420636861696e000000000000000000000000000000000000602082015250565b7f496e697469616c697a61626c653a20636f6e747261637420697320616c72656160008201527f647920696e697469616c697a6564000000000000000000000000000000000000602082015250565b7f4f776e61626c653a2063616c6c6572206973206e6f7420746865206f776e6572600082015250565b7f416464726573733a2063616c6c20746f206e6f6e2d636f6e7472616374000000600082015250565b7f5361666545524332303a204552433230206f7065726174696f6e20646964206e60008201527f6f74207375636365656400000000000000000000000000000000000000000000602082015250565b61232581611ed9565b811461233057600080fd5b50565b61233c81611eeb565b811461234757600080fd5b50565b61235381611f17565b811461235e57600080fd5b5056fea26469706673582212209d1ec28e8f4d961313a051d4744d9029f80184ba7ee87d07eae700ca813063af64736f6c63430008040033",
  "devdoc": {
    "kind": "dev",
    "methods": {
      "owner()": {
        "details": "Returns the address of the current owner."
      },
      "renounceOwnership()": {
        "details": "Leaves the contract without owner. It will not be possible to call `onlyOwner` functions anymore. Can only be called by the current owner. NOTE: Renouncing ownership will leave the contract without an owner, thereby removing any functionality that is only available to the owner."
      },
      "transferOwnership(address)": {
        "details": "Transfers ownership of the contract to a new account (`newOwner`). Can only be called by the current owner."
      }
    },
    "version": 1
  },
  "userdoc": {
    "kind": "user",
    "methods": {},
    "version": 1
  },
  "storageLayout": {
    "storage": [
      {
        "astId": 136,
        "contract": "contracts/PolygonTokenHarvester.sol:PolygonTokenHarvester",
        "label": "_initialized",
        "offset": 0,
        "slot": "0",
        "type": "t_bool"
      },
      {
        "astId": 139,
        "contract": "contracts/PolygonTokenHarvester.sol:PolygonTokenHarvester",
        "label": "_initializing",
        "offset": 1,
        "slot": "0",
        "type": "t_bool"
      },
      {
        "astId": 220,
        "contract": "contracts/PolygonTokenHarvester.sol:PolygonTokenHarvester",
        "label": "__gap",
        "offset": 0,
        "slot": "1",
        "type": "t_array(t_uint256)50_storage"
      },
      {
        "astId": 10,
        "contract": "contracts/PolygonTokenHarvester.sol:PolygonTokenHarvester",
        "label": "_owner",
        "offset": 0,
        "slot": "51",
        "type": "t_address"
      },
      {
        "astId": 129,
        "contract": "contracts/PolygonTokenHarvester.sol:PolygonTokenHarvester",
        "label": "__gap",
        "offset": 0,
        "slot": "52",
        "type": "t_array(t_uint256)49_storage"
      },
      {
        "astId": 847,
        "contract": "contracts/PolygonTokenHarvester.sol:PolygonTokenHarvester",
        "label": "_onRootChain",
        "offset": 0,
        "slot": "101",
        "type": "t_bool"
      },
      {
        "astId": 849,
        "contract": "contracts/PolygonTokenHarvester.sol:PolygonTokenHarvester",
        "label": "rootChainManager",
        "offset": 1,
        "slot": "101",
        "type": "t_address"
      },
      {
        "astId": 853,
        "contract": "contracts/PolygonTokenHarvester.sol:PolygonTokenHarvester",
        "label": "lastWithdraw",
        "offset": 0,
        "slot": "102",
        "type": "t_mapping(t_address,t_uint256)"
      },
      {
        "astId": 855,
        "contract": "contracts/PolygonTokenHarvester.sol:PolygonTokenHarvester",
        "label": "withdrawCooldown",
        "offset": 0,
        "slot": "103",
        "type": "t_uint256"
      }
    ],
    "types": {
      "t_address": {
        "encoding": "inplace",
        "label": "address",
        "numberOfBytes": "20"
      },
      "t_array(t_uint256)49_storage": {
        "base": "t_uint256",
        "encoding": "inplace",
        "label": "uint256[49]",
        "numberOfBytes": "1568"
      },
      "t_array(t_uint256)50_storage": {
        "base": "t_uint256",
        "encoding": "inplace",
        "label": "uint256[50]",
        "numberOfBytes": "1600"
      },
      "t_bool": {
        "encoding": "inplace",
        "label": "bool",
        "numberOfBytes": "1"
      },
      "t_mapping(t_address,t_uint256)": {
        "encoding": "mapping",
        "key": "t_address",
        "label": "mapping(address => uint256)",
        "numberOfBytes": "32",
        "value": "t_uint256"
      },
      "t_uint256": {
        "encoding": "inplace",
        "label": "uint256",
        "numberOfBytes": "32"
      }
    }
  }
}