{
  "address": "0x1e0c8BD3EFb1EaF7b9537226cA058951210a55B7",
  "abi": [
    {
      "anonymous": false,
      "inputs": [
        {
          "indexed": true,
          "internalType": "address",
          "name": "previousOwner",
          "type": "address"
        },
        {
          "indexed": true,
          "internalType": "address",
          "name": "newOwner",
          "type": "address"
        }
      ],
      "name": "OwnershipTransferred",
      "type": "event"
    },
    {
      "anonymous": false,
      "inputs": [
        {
          "indexed": true,
          "internalType": "address",
          "name": "caller",
          "type": "address"
        },
        {
          "indexed": true,
          "internalType": "address",
          "name": "spender",
          "type": "address"
        },
        {
          "indexed": false,
          "internalType": "uint256",
          "name": "amount",
          "type": "uint256"
        }
      ],
      "name": "SetAllowance",
      "type": "event"
    },
    {
      "anonymous": false,
      "inputs": [
        {
          "indexed": true,
          "internalType": "address",
          "name": "caller",
          "type": "address"
        },
        {
          "indexed": true,
          "internalType": "address",
          "name": "owner",
          "type": "address"
        },
        {
          "indexed": true,
          "internalType": "address",
          "name": "token",
          "type": "address"
        },
        {
          "indexed": false,
          "internalType": "uint256",
          "name": "amount",
          "type": "uint256"
        }
      ],
      "name": "TransferToOwner",
      "type": "event"
    },
    {
      "anonymous": false,
      "inputs": [
        {
          "indexed": true,
          "internalType": "address",
          "name": "caller",
          "type": "address"
        },
        {
          "indexed": true,
          "internalType": "address",
          "name": "token",
          "type": "address"
        },
        {
          "indexed": false,
          "internalType": "uint256",
          "name": "amount",
          "type": "uint256"
        }
      ],
      "name": "WithdrawOnChild",
      "type": "event"
    },
    {
      "anonymous": false,
      "inputs": [
        {
          "indexed": true,
          "internalType": "address",
          "name": "caller",
          "type": "address"
        }
      ],
      "name": "WithdrawOnRoot",
      "type": "event"
    },
    {
      "inputs": [
        {
          "internalType": "address",
          "name": "_syProvider",
          "type": "address"
        }
      ],
      "name": "claimAndWithdrawOnChild",
      "outputs": [],
      "stateMutability": "nonpayable",
      "type": "function"
    },
    {
      "inputs": [
        {
          "internalType": "uint256",
          "name": "_withdrawCooldown",
          "type": "uint256"
        },
        {
          "internalType": "address",
          "name": "_rootChainManager",
          "type": "address"
        }
      ],
      "name": "initialize",
      "outputs": [],
      "stateMutability": "nonpayable",
      "type": "function"
    },
    {
      "inputs": [
        {
          "internalType": "address",
          "name": "",
          "type": "address"
        }
      ],
      "name": "lastWithdraw",
      "outputs": [
        {
          "internalType": "uint256",
          "name": "",
          "type": "uint256"
        }
      ],
      "stateMutability": "view",
      "type": "function"
    },
    {
      "inputs": [],
      "name": "owner",
      "outputs": [
        {
          "internalType": "address",
          "name": "",
          "type": "address"
        }
      ],
      "stateMutability": "view",
      "type": "function"
    },
    {
      "inputs": [],
      "name": "renounceOwnership",
      "outputs": [],
      "stateMutability": "nonpayable",
      "type": "function"
    },
    {
      "inputs": [],
      "name": "rootChainManager",
      "outputs": [
        {
          "internalType": "address",
          "name": "",
          "type": "address"
        }
      ],
      "stateMutability": "view",
      "type": "function"
    },
    {
      "inputs": [
        {
          "internalType": "uint256",
          "name": "_withdrawCooldown",
          "type": "uint256"
        }
      ],
      "name": "setWithdrawCooldown",
      "outputs": [],
      "stateMutability": "nonpayable",
      "type": "function"
    },
    {
      "inputs": [
        {
          "internalType": "address",
          "name": "newOwner",
          "type": "address"
        }
      ],
      "name": "transferOwnership",
      "outputs": [],
      "stateMutability": "nonpayable",
      "type": "function"
    },
    {
      "inputs": [
        {
          "internalType": "address",
          "name": "_token",
          "type": "address"
        }
      ],
      "name": "transferToOwner",
      "outputs": [],
      "stateMutability": "nonpayable",
      "type": "function"
    },
    {
      "inputs": [],
      "name": "withdrawCooldown",
      "outputs": [
        {
          "internalType": "uint256",
          "name": "",
          "type": "uint256"
        }
      ],
      "stateMutability": "view",
      "type": "function"
    },
    {
      "inputs": [
        {
          "internalType": "address",
          "name": "_childToken",
          "type": "address"
        }
      ],
      "name": "withdrawOnChild",
      "outputs": [],
      "stateMutability": "nonpayable",
      "type": "function"
    },
    {
      "inputs": [
        {
          "internalType": "bytes",
          "name": "_data",
          "type": "bytes"
        }
      ],
      "name": "withdrawOnRoot",
      "outputs": [
        {
          "internalType": "bytes",
          "name": "",
          "type": "bytes"
        }
      ],
      "stateMutability": "nonpayable",
      "type": "function"
    }
  ],
  "transactionHash": "0x3cec3634bc623f1237146ff357eb1e0351bc612a8c1a26be62dad35ab59ac6d5",
  "args": [],
  "solcInputHash": "22dbbb7a6af30b6c9f0026c452c1d09a",
  "bytecode": "0x608060405234801561001057600080fd5b50612280806100206000396000f3fe608060405234801561001057600080fd5b50600436106100b45760003560e01c8063812d504d11610071578063812d504d1461017957806385d3f47e146101955780638da5cb5b146101b1578063bd07018d146101cf578063da35a26f146101ed578063f2fde38b14610209576100b4565b8063260b1fd9146100b95780633cbfe3a1146100e957806344feed29146101075780635689c26014610123578063624d7b721461013f578063715018a61461016f575b600080fd5b6100d360048036038101906100ce91906117a8565b610225565b6040516100e09190611b14565b60405180910390f35b6100f16103a6565b6040516100fe9190611cb8565b60405180910390f35b610121600480360381019061011c91906117e9565b6103ac565b005b61013d6004803603810190610138919061172d565b610488565b005b6101596004803603810190610154919061172d565b610645565b6040516101669190611cb8565b60405180910390f35b61017761065d565b005b610193600480360381019061018e919061172d565b61079a565b005b6101af60048036038101906101aa919061172d565b6109b2565b005b6101b9610c84565b6040516101c69190611ad0565b60405180910390f35b6101d7610cae565b6040516101e49190611ad0565b60405180910390f35b6102076004803603810190610202919061183b565b610cd4565b005b610223600480360381019061021e919061172d565b610e71565b005b606060011515606560009054906101000a900460ff1615151461027d576040517f08c379a000000000000000000000000000000000000000000000000000000000815260040161027490611c18565b60405180910390fd5b600080606560019054906101000a900473ffffffffffffffffffffffffffffffffffffffff1673ffffffffffffffffffffffffffffffffffffffff16846040516102c79190611ab9565b6000604051808303816000865af19150503d8060008114610304576040519150601f19603f3d011682016040523d82523d6000602084013e610309565b606091505b5091509150818190610351576040517f08c379a00000000000000000000000000000000000000000000000000000000081526004016103489190611b36565b60405180910390fd5b5061035a61101d565b73ffffffffffffffffffffffffffffffffffffffff167fc3ff84400b51b8faa19b096a526771e00f25836296ed44a71bc9d01fd59e4ae360405160405180910390a28092505050919050565b60675481565b6103b461101d565b73ffffffffffffffffffffffffffffffffffffffff166103d2610c84565b73ffffffffffffffffffffffffffffffffffffffff1614610428576040517f08c379a000000000000000000000000000000000000000000000000000000000815260040161041f90611c58565b60405180910390fd5b60001515606560009054906101000a900460ff1615151461047e576040517f08c379a000000000000000000000000000000000000000000000000000000000815260040161047590611bb8565b60405180910390fd5b8060678190555050565b60001515606560009054906101000a900460ff161515146104de576040517f08c379a00000000000000000000000000000000000000000000000000000000081526004016104d590611bb8565b60405180910390fd5b600073ffffffffffffffffffffffffffffffffffffffff168173ffffffffffffffffffffffffffffffffffffffff16141561054e576040517f08c379a000000000000000000000000000000000000000000000000000000000815260040161054590611b98565b60405180910390fd5b600081905060008173ffffffffffffffffffffffffffffffffffffffff1663633156376040518163ffffffff1660e01b8152600401602060405180830381600087803b15801561059d57600080fd5b505af11580156105b1573d6000803e3d6000fd5b505050506040513d601f19601f820116820180604052508101906105d59190611756565b90508173ffffffffffffffffffffffffffffffffffffffff1663c2fbe7bc6040518163ffffffff1660e01b8152600401600060405180830381600087803b15801561061f57600080fd5b505af1158015610633573d6000803e3d6000fd5b50505050610640816109b2565b505050565b60666020528060005260406000206000915090505481565b61066561101d565b73ffffffffffffffffffffffffffffffffffffffff16610683610c84565b73ffffffffffffffffffffffffffffffffffffffff16146106d9576040517f08c379a00000000000000000000000000000000000000000000000000000000081526004016106d090611c58565b60405180910390fd5b600073ffffffffffffffffffffffffffffffffffffffff16603360009054906101000a900473ffffffffffffffffffffffffffffffffffffffff1673ffffffffffffffffffffffffffffffffffffffff167f8be0079c531659141344cd1fd0a4f28419497f9722a3daafe3b4186f6b6457e060405160405180910390a36000603360006101000a81548173ffffffffffffffffffffffffffffffffffffffff021916908373ffffffffffffffffffffffffffffffffffffffff160217905550565b60011515606560009054906101000a900460ff161515146107f0576040517f08c379a00000000000000000000000000000000000000000000000000000000081526004016107e790611c18565b60405180910390fd5b600073ffffffffffffffffffffffffffffffffffffffff168173ffffffffffffffffffffffffffffffffffffffff161415610860576040517f08c379a000000000000000000000000000000000000000000000000000000000815260040161085790611bf8565b60405180910390fd5b6000819050600061086f610c84565b905060008273ffffffffffffffffffffffffffffffffffffffff166370a08231306040518263ffffffff1660e01b81526004016108ac9190611ad0565b60206040518083038186803b1580156108c457600080fd5b505afa1580156108d8573d6000803e3d6000fd5b505050506040513d601f19601f820116820180604052508101906108fc9190611812565b905061092982828573ffffffffffffffffffffffffffffffffffffffff166110259092919063ffffffff16565b8373ffffffffffffffffffffffffffffffffffffffff168273ffffffffffffffffffffffffffffffffffffffff1661095f61101d565b73ffffffffffffffffffffffffffffffffffffffff167f76a904d36c6485f9a5b321da55bfecf63789bc50598252e91560e3b6175c1c06846040516109a49190611cb8565b60405180910390a450505050565b60001515606560009054906101000a900460ff16151514610a08576040517f08c379a00000000000000000000000000000000000000000000000000000000081526004016109ff90611bb8565b60405180910390fd5b600073ffffffffffffffffffffffffffffffffffffffff168173ffffffffffffffffffffffffffffffffffffffff161415610a78576040517f08c379a0000000000000000000000000000000000000000000000000000000008152600401610a6f90611b58565b60405180910390fd5b606754606660008373ffffffffffffffffffffffffffffffffffffffff1673ffffffffffffffffffffffffffffffffffffffff16815260200190815260200160002054610ac59190611d6c565b431015610ad157610c81565b43606660008373ffffffffffffffffffffffffffffffffffffffff1673ffffffffffffffffffffffffffffffffffffffff16815260200190815260200160002081905550600081905060008173ffffffffffffffffffffffffffffffffffffffff166370a08231306040518263ffffffff1660e01b8152600401610b559190611ad0565b60206040518083038186803b158015610b6d57600080fd5b505afa158015610b81573d6000803e3d6000fd5b505050506040513d601f19601f82011682018060405250810190610ba59190611812565b90508173ffffffffffffffffffffffffffffffffffffffff16632e1a7d4d826040518263ffffffff1660e01b8152600401610be09190611cb8565b600060405180830381600087803b158015610bfa57600080fd5b505af1158015610c0e573d6000803e3d6000fd5b505050508273ffffffffffffffffffffffffffffffffffffffff16610c3161101d565b73ffffffffffffffffffffffffffffffffffffffff167f03d1c6e11435f9fdf99686494801bee42b031ab3c47c63abdbca7e22c33f5cbd83604051610c769190611cb8565b60405180910390a350505b50565b6000603360009054906101000a900473ffffffffffffffffffffffffffffffffffffffff16905090565b606560019054906101000a900473ffffffffffffffffffffffffffffffffffffffff1681565b600060019054906101000a900460ff1680610cfa575060008054906101000a900460ff16155b610d39576040517f08c379a0000000000000000000000000000000000000000000000000000000008152600401610d3090611c38565b60405180910390fd5b60008060019054906101000a900460ff161590508015610d89576001600060016101000a81548160ff02191690831515021790555060016000806101000a81548160ff0219169083151502179055505b610d916110ab565b610d9a836103ac565b600073ffffffffffffffffffffffffffffffffffffffff168273ffffffffffffffffffffffffffffffffffffffff1614610e2f576001606560006101000a81548160ff02191690831515021790555081606560016101000a81548173ffffffffffffffffffffffffffffffffffffffff021916908373ffffffffffffffffffffffffffffffffffffffff160217905550610e4b565b6000606560006101000a81548160ff0219169083151502179055505b8015610e6c5760008060016101000a81548160ff0219169083151502179055505b505050565b610e7961101d565b73ffffffffffffffffffffffffffffffffffffffff16610e97610c84565b73ffffffffffffffffffffffffffffffffffffffff1614610eed576040517f08c379a0000000000000000000000000000000000000000000000000000000008152600401610ee490611c58565b60405180910390fd5b600073ffffffffffffffffffffffffffffffffffffffff168173ffffffffffffffffffffffffffffffffffffffff161415610f5d576040517f08c379a0000000000000000000000000000000000000000000000000000000008152600401610f5490611b78565b60405180910390fd5b8073ffffffffffffffffffffffffffffffffffffffff16603360009054906101000a900473ffffffffffffffffffffffffffffffffffffffff1673ffffffffffffffffffffffffffffffffffffffff167f8be0079c531659141344cd1fd0a4f28419497f9722a3daafe3b4186f6b6457e060405160405180910390a380603360006101000a81548173ffffffffffffffffffffffffffffffffffffffff021916908373ffffffffffffffffffffffffffffffffffffffff16021790555050565b600033905090565b6110a68363a9059cbb60e01b8484604051602401611044929190611aeb565b604051602081830303815290604052907bffffffffffffffffffffffffffffffffffffffffffffffffffffffff19166020820180517bffffffffffffffffffffffffffffffffffffffffffffffffffffffff8381831617835250505050611194565b505050565b600060019054906101000a900460ff16806110d1575060008054906101000a900460ff16155b611110576040517f08c379a000000000000000000000000000000000000000000000000000000000815260040161110790611c38565b60405180910390fd5b60008060019054906101000a900460ff161590508015611160576001600060016101000a81548160ff02191690831515021790555060016000806101000a81548160ff0219169083151502179055505b61116861125b565b611170611334565b80156111915760008060016101000a81548160ff0219169083151502179055505b50565b60006111f6826040518060400160405280602081526020017f5361666545524332303a206c6f772d6c6576656c2063616c6c206661696c65648152508573ffffffffffffffffffffffffffffffffffffffff166114b69092919063ffffffff16565b90506000815111156112565780806020019051810190611216919061177f565b611255576040517f08c379a000000000000000000000000000000000000000000000000000000000815260040161124c90611c98565b60405180910390fd5b5b505050565b600060019054906101000a900460ff1680611281575060008054906101000a900460ff16155b6112c0576040517f08c379a00000000000000000000000000000000000000000000000000000000081526004016112b790611c38565b60405180910390fd5b60008060019054906101000a900460ff161590508015611310576001600060016101000a81548160ff02191690831515021790555060016000806101000a81548160ff0219169083151502179055505b80156113315760008060016101000a81548160ff0219169083151502179055505b50565b600060019054906101000a900460ff168061135a575060008054906101000a900460ff16155b611399576040517f08c379a000000000000000000000000000000000000000000000000000000000815260040161139090611c38565b60405180910390fd5b60008060019054906101000a900460ff1615905080156113e9576001600060016101000a81548160ff02191690831515021790555060016000806101000a81548160ff0219169083151502179055505b60006113f361101d565b905080603360006101000a81548173ffffffffffffffffffffffffffffffffffffffff021916908373ffffffffffffffffffffffffffffffffffffffff1602179055508073ffffffffffffffffffffffffffffffffffffffff16600073ffffffffffffffffffffffffffffffffffffffff167f8be0079c531659141344cd1fd0a4f28419497f9722a3daafe3b4186f6b6457e060405160405180910390a35080156114b35760008060016101000a81548160ff0219169083151502179055505b50565b60606114c584846000856114ce565b90509392505050565b606082471015611513576040517f08c379a000000000000000000000000000000000000000000000000000000000815260040161150a90611bd8565b60405180910390fd5b61151c856115e2565b61155b576040517f08c379a000000000000000000000000000000000000000000000000000000000815260040161155290611c78565b60405180910390fd5b6000808673ffffffffffffffffffffffffffffffffffffffff1685876040516115849190611ab9565b60006040518083038185875af1925050503d80600081146115c1576040519150601f19603f3d011682016040523d82523d6000602084013e6115c6565b606091505b50915091506115d68282866115f5565b92505050949350505050565b600080823b905060008111915050919050565b6060831561160557829050611655565b6000835111156116185782518084602001fd5b816040517f08c379a000000000000000000000000000000000000000000000000000000000815260040161164c9190611b36565b60405180910390fd5b9392505050565b600061166f61166a84611cf8565b611cd3565b90508281526020810184848401111561168757600080fd5b611692848285611e0a565b509392505050565b6000813590506116a981612205565b92915050565b6000815190506116be81612205565b92915050565b6000815190506116d38161221c565b92915050565b600082601f8301126116ea57600080fd5b81356116fa84826020860161165c565b91505092915050565b60008135905061171281612233565b92915050565b60008151905061172781612233565b92915050565b60006020828403121561173f57600080fd5b600061174d8482850161169a565b91505092915050565b60006020828403121561176857600080fd5b6000611776848285016116af565b91505092915050565b60006020828403121561179157600080fd5b600061179f848285016116c4565b91505092915050565b6000602082840312156117ba57600080fd5b600082013567ffffffffffffffff8111156117d457600080fd5b6117e0848285016116d9565b91505092915050565b6000602082840312156117fb57600080fd5b600061180984828501611703565b91505092915050565b60006020828403121561182457600080fd5b600061183284828501611718565b91505092915050565b6000806040838503121561184e57600080fd5b600061185c85828601611703565b925050602061186d8582860161169a565b9150509250929050565b61188081611dc2565b82525050565b600061189182611d29565b61189b8185611d3f565b93506118ab818560208601611e19565b6118b481611edb565b840191505092915050565b60006118ca82611d29565b6118d48185611d50565b93506118e4818560208601611e19565b80840191505092915050565b60006118fb82611d34565b6119058185611d5b565b9350611915818560208601611e19565b61191e81611edb565b840191505092915050565b6000611936603083611d5b565b915061194182611eec565b604082019050919050565b6000611959602683611d5b565b915061196482611f3b565b604082019050919050565b600061197c602e83611d5b565b915061198782611f8a565b604082019050919050565b600061199f602f83611d5b565b91506119aa82611fd9565b604082019050919050565b60006119c2602683611d5b565b91506119cd82612028565b604082019050919050565b60006119e5602a83611d5b565b91506119f082612077565b604082019050919050565b6000611a08602e83611d5b565b9150611a13826120c6565b604082019050919050565b6000611a2b602e83611d5b565b9150611a3682612115565b604082019050919050565b6000611a4e602083611d5b565b9150611a5982612164565b602082019050919050565b6000611a71601d83611d5b565b9150611a7c8261218d565b602082019050919050565b6000611a94602a83611d5b565b9150611a9f826121b6565b604082019050919050565b611ab381611e00565b82525050565b6000611ac582846118bf565b915081905092915050565b6000602082019050611ae56000830184611877565b92915050565b6000604082019050611b006000830185611877565b611b0d6020830184611aaa565b9392505050565b60006020820190508181036000830152611b2e8184611886565b905092915050565b60006020820190508181036000830152611b5081846118f0565b905092915050565b60006020820190508181036000830152611b7181611929565b9050919050565b60006020820190508181036000830152611b918161194c565b9050919050565b60006020820190508181036000830152611bb18161196f565b9050919050565b60006020820190508181036000830152611bd181611992565b9050919050565b60006020820190508181036000830152611bf1816119b5565b9050919050565b60006020820190508181036000830152611c11816119d8565b9050919050565b60006020820190508181036000830152611c31816119fb565b9050919050565b60006020820190508181036000830152611c5181611a1e565b9050919050565b60006020820190508181036000830152611c7181611a41565b9050919050565b60006020820190508181036000830152611c9181611a64565b9050919050565b60006020820190508181036000830152611cb181611a87565b9050919050565b6000602082019050611ccd6000830184611aaa565b92915050565b6000611cdd611cee565b9050611ce98282611e4c565b919050565b6000604051905090565b600067ffffffffffffffff821115611d1357611d12611eac565b5b611d1c82611edb565b9050602081019050919050565b600081519050919050565b600081519050919050565b600082825260208201905092915050565b600081905092915050565b600082825260208201905092915050565b6000611d7782611e00565b9150611d8283611e00565b9250827fffffffffffffffffffffffffffffffffffffffffffffffffffffffffffffffff03821115611db757611db6611e7d565b5b828201905092915050565b6000611dcd82611de0565b9050919050565b60008115159050919050565b600073ffffffffffffffffffffffffffffffffffffffff82169050919050565b6000819050919050565b82818337600083830152505050565b60005b83811015611e37578082015181840152602081019050611e1c565b83811115611e46576000848401525b50505050565b611e5582611edb565b810181811067ffffffffffffffff82111715611e7457611e73611eac565b5b80604052505050565b7f4e487b7100000000000000000000000000000000000000000000000000000000600052601160045260246000fd5b7f4e487b7100000000000000000000000000000000000000000000000000000000600052604160045260246000fd5b6000601f19601f8301169050919050565b7f4861727665737465723a206368696c6420746f6b656e2061646472657373206d60008201527f7573742062652073706563696669656400000000000000000000000000000000602082015250565b7f4f776e61626c653a206e6577206f776e657220697320746865207a65726f206160008201527f6464726573730000000000000000000000000000000000000000000000000000602082015250565b7f4861727665737465723a2073792070726f76696465722061646472657373206d60008201527f757374206e6f7420626520307830000000000000000000000000000000000000602082015250565b7f4861727665737465723a2073686f756c64206f6e6c792062652063616c6c656460008201527f206f6e206368696c6420636861696e0000000000000000000000000000000000602082015250565b7f416464726573733a20696e73756666696369656e742062616c616e636520666f60008201527f722063616c6c0000000000000000000000000000000000000000000000000000602082015250565b7f4861727665737465723a20746f6b656e2061646472657373206d75737420626560008201527f2073706563696669656400000000000000000000000000000000000000000000602082015250565b7f4861727665737465723a2073686f756c64206f6e6c792062652063616c6c656460008201527f206f6e20726f6f7420636861696e000000000000000000000000000000000000602082015250565b7f496e697469616c697a61626c653a20636f6e747261637420697320616c72656160008201527f647920696e697469616c697a6564000000000000000000000000000000000000602082015250565b7f4f776e61626c653a2063616c6c6572206973206e6f7420746865206f776e6572600082015250565b7f416464726573733a2063616c6c20746f206e6f6e2d636f6e7472616374000000600082015250565b7f5361666545524332303a204552433230206f7065726174696f6e20646964206e60008201527f6f74207375636365656400000000000000000000000000000000000000000000602082015250565b61220e81611dc2565b811461221957600080fd5b50565b61222581611dd4565b811461223057600080fd5b50565b61223c81611e00565b811461224757600080fd5b5056fea264697066735822122042b8bbab5a72783bfb8bec5bbcfeb178e669ecb2157b3587447d4f939f22857564736f6c63430008040033",
  "devdoc": {
    "kind": "dev",
    "methods": {
      "owner()": {
        "details": "Returns the address of the current owner."
      },
      "renounceOwnership()": {
        "details": "Leaves the contract without owner. It will not be possible to call `onlyOwner` functions anymore. Can only be called by the current owner. NOTE: Renouncing ownership will leave the contract without an owner, thereby removing any functionality that is only available to the owner."
      },
      "transferOwnership(address)": {
        "details": "Transfers ownership of the contract to a new account (`newOwner`). Can only be called by the current owner."
      }
    },
    "version": 1
  },
  "userdoc": {
    "kind": "user",
    "methods": {},
    "version": 1
  },
  "storageLayout": {
    "storage": [
      {
        "astId": 136,
        "contract": "contracts/PolygonTokenHarvester.sol:PolygonTokenHarvester",
        "label": "_initialized",
        "offset": 0,
        "slot": "0",
        "type": "t_bool"
      },
      {
        "astId": 139,
        "contract": "contracts/PolygonTokenHarvester.sol:PolygonTokenHarvester",
        "label": "_initializing",
        "offset": 1,
        "slot": "0",
        "type": "t_bool"
      },
      {
        "astId": 220,
        "contract": "contracts/PolygonTokenHarvester.sol:PolygonTokenHarvester",
        "label": "__gap",
        "offset": 0,
        "slot": "1",
        "type": "t_array(t_uint256)50_storage"
      },
      {
        "astId": 10,
        "contract": "contracts/PolygonTokenHarvester.sol:PolygonTokenHarvester",
        "label": "_owner",
        "offset": 0,
        "slot": "51",
        "type": "t_address"
      },
      {
        "astId": 129,
        "contract": "contracts/PolygonTokenHarvester.sol:PolygonTokenHarvester",
        "label": "__gap",
        "offset": 0,
        "slot": "52",
        "type": "t_array(t_uint256)49_storage"
      },
      {
        "astId": 847,
        "contract": "contracts/PolygonTokenHarvester.sol:PolygonTokenHarvester",
        "label": "_onRootChain",
        "offset": 0,
        "slot": "101",
        "type": "t_bool"
      },
      {
        "astId": 849,
        "contract": "contracts/PolygonTokenHarvester.sol:PolygonTokenHarvester",
        "label": "rootChainManager",
        "offset": 1,
        "slot": "101",
        "type": "t_address"
      },
      {
        "astId": 853,
        "contract": "contracts/PolygonTokenHarvester.sol:PolygonTokenHarvester",
        "label": "lastWithdraw",
        "offset": 0,
        "slot": "102",
        "type": "t_mapping(t_address,t_uint256)"
      },
      {
        "astId": 855,
        "contract": "contracts/PolygonTokenHarvester.sol:PolygonTokenHarvester",
        "label": "withdrawCooldown",
        "offset": 0,
        "slot": "103",
        "type": "t_uint256"
      }
    ],
    "types": {
      "t_address": {
        "encoding": "inplace",
        "label": "address",
        "numberOfBytes": "20"
      },
      "t_array(t_uint256)49_storage": {
        "base": "t_uint256",
        "encoding": "inplace",
        "label": "uint256[49]",
        "numberOfBytes": "1568"
      },
      "t_array(t_uint256)50_storage": {
        "base": "t_uint256",
        "encoding": "inplace",
        "label": "uint256[50]",
        "numberOfBytes": "1600"
      },
      "t_bool": {
        "encoding": "inplace",
        "label": "bool",
        "numberOfBytes": "1"
      },
      "t_mapping(t_address,t_uint256)": {
        "encoding": "mapping",
        "key": "t_address",
        "label": "mapping(address => uint256)",
        "numberOfBytes": "32",
        "value": "t_uint256"
      },
      "t_uint256": {
        "encoding": "inplace",
        "label": "uint256",
        "numberOfBytes": "32"
      }
    }
  }
}