{
  "address": "0xbAa446FeC8b25b77a244B2E3820bd5dfDd111AD2",
  "abi": [
    {
      "anonymous": false,
      "inputs": [
        {
          "indexed": true,
          "internalType": "address",
          "name": "previousOwner",
          "type": "address"
        },
        {
          "indexed": true,
          "internalType": "address",
          "name": "newOwner",
          "type": "address"
        }
      ],
      "name": "OwnershipTransferred",
      "type": "event"
    },
    {
      "anonymous": false,
      "inputs": [
        {
          "indexed": true,
          "internalType": "address",
          "name": "caller",
          "type": "address"
        },
        {
          "indexed": true,
          "internalType": "address",
          "name": "spender",
          "type": "address"
        },
        {
          "indexed": false,
          "internalType": "uint256",
          "name": "amount",
          "type": "uint256"
        }
      ],
      "name": "SetAllowance",
      "type": "event"
    },
    {
      "anonymous": false,
      "inputs": [
        {
          "indexed": true,
          "internalType": "address",
          "name": "caller",
          "type": "address"
        },
        {
          "indexed": true,
          "internalType": "address",
          "name": "token",
          "type": "address"
        },
        {
          "indexed": false,
          "internalType": "uint256",
          "name": "amount",
          "type": "uint256"
        }
      ],
      "name": "TransferToChild",
      "type": "event"
    },
    {
      "inputs": [
        {
          "internalType": "address",
          "name": "_token",
          "type": "address"
        },
        {
          "internalType": "address",
          "name": "_rootChainManager",
          "type": "address"
        },
        {
          "internalType": "address",
          "name": "_erc20Predicate",
          "type": "address"
        }
      ],
      "name": "initialize",
      "outputs": [],
      "stateMutability": "nonpayable",
      "type": "function"
    },
    {
      "inputs": [],
      "name": "owner",
      "outputs": [
        {
          "internalType": "address",
          "name": "",
          "type": "address"
        }
      ],
      "stateMutability": "view",
      "type": "function"
    },
    {
      "inputs": [],
      "name": "renounceOwnership",
      "outputs": [],
      "stateMutability": "nonpayable",
      "type": "function"
    },
    {
      "inputs": [
        {
          "internalType": "address",
          "name": "_spender",
          "type": "address"
        },
        {
          "internalType": "uint256",
          "name": "_amount",
          "type": "uint256"
        }
      ],
      "name": "setAllowance",
      "outputs": [],
      "stateMutability": "nonpayable",
      "type": "function"
    },
    {
      "inputs": [],
      "name": "token",
      "outputs": [
        {
          "internalType": "address",
          "name": "",
          "type": "address"
        }
      ],
      "stateMutability": "view",
      "type": "function"
    },
    {
      "inputs": [
        {
          "internalType": "address",
          "name": "newOwner",
          "type": "address"
        }
      ],
      "name": "transferOwnership",
      "outputs": [],
      "stateMutability": "nonpayable",
      "type": "function"
    },
    {
      "inputs": [],
      "name": "transferToChild",
      "outputs": [],
      "stateMutability": "nonpayable",
      "type": "function"
    }
  ],
  "transactionHash": "0x0839d5135c38601b09164a2387dcfa5dcb4d4e010767a931bdb1ea5090664fb6",
  "args": [],
  "solcInputHash": "dd4d5e68367aca0a8548d55a75bdab83",
  "bytecode": "0x608060405234801561001057600080fd5b50611630806100206000396000f3fe608060405234801561001057600080fd5b506004361061007d5760003560e01c80638e9762fa1161005b5780638e9762fa146100c6578063c0c53b8b146100d0578063f2fde38b146100ec578063fc0c546a146101085761007d565b8063310ec4a714610082578063715018a61461009e5780638da5cb5b146100a8575b600080fd5b61009c60048036038101906100979190611023565b610126565b005b6100a66102bb565b005b6100b06103f8565b6040516100bd91906111e6565b60405180910390f35b6100ce610422565b005b6100ea60048036038101906100e59190610fd0565b610775565b005b61010660048036038101906101019190610fa3565b610a31565b005b610110610bdd565b60405161011d91906111e6565b60405180910390f35b61012e610c03565b73ffffffffffffffffffffffffffffffffffffffff1661014c6103f8565b73ffffffffffffffffffffffffffffffffffffffff16146101a2576040517f08c379a000000000000000000000000000000000000000000000000000000000815260040161019990611308565b60405180910390fd5b606760009054906101000a900473ffffffffffffffffffffffffffffffffffffffff1673ffffffffffffffffffffffffffffffffffffffff1663095ea7b383836040518363ffffffff1660e01b81526004016101ff92919061123f565b602060405180830381600087803b15801561021957600080fd5b505af115801561022d573d6000803e3d6000fd5b505050506040513d601f19601f820116820180604052508101906102519190611063565b508173ffffffffffffffffffffffffffffffffffffffff163373ffffffffffffffffffffffffffffffffffffffff167f3c07380f6fcae3bac39771c60e5c680334073911f2176b65f1d6925ba0badcdf836040516102af9190611328565b60405180910390a35050565b6102c3610c03565b73ffffffffffffffffffffffffffffffffffffffff166102e16103f8565b73ffffffffffffffffffffffffffffffffffffffff1614610337576040517f08c379a000000000000000000000000000000000000000000000000000000000815260040161032e90611308565b60405180910390fd5b600073ffffffffffffffffffffffffffffffffffffffff16603360009054906101000a900473ffffffffffffffffffffffffffffffffffffffff1673ffffffffffffffffffffffffffffffffffffffff167f8be0079c531659141344cd1fd0a4f28419497f9722a3daafe3b4186f6b6457e060405160405180910390a36000603360006101000a81548173ffffffffffffffffffffffffffffffffffffffff021916908373ffffffffffffffffffffffffffffffffffffffff160217905550565b6000603360009054906101000a900473ffffffffffffffffffffffffffffffffffffffff16905090565b600073ffffffffffffffffffffffffffffffffffffffff16606660009054906101000a900473ffffffffffffffffffffffffffffffffffffffff1673ffffffffffffffffffffffffffffffffffffffff1614156104b4576040517f08c379a00000000000000000000000000000000000000000000000000000000081526004016104ab906112a8565b60405180910390fd5b6000606760009054906101000a900473ffffffffffffffffffffffffffffffffffffffff16905060008173ffffffffffffffffffffffffffffffffffffffff166370a08231306040518263ffffffff1660e01b815260040161051691906111e6565b60206040518083038186803b15801561052e57600080fd5b505afa158015610542573d6000803e3d6000fd5b505050506040513d601f19601f820116820180604052508101906105669190611090565b90508173ffffffffffffffffffffffffffffffffffffffff1663095ea7b3606660009054906101000a900473ffffffffffffffffffffffffffffffffffffffff16836040518363ffffffff1660e01b81526004016105c592919061123f565b602060405180830381600087803b1580156105df57600080fd5b505af11580156105f3573d6000803e3d6000fd5b505050506040513d601f19601f820116820180604052508101906106179190611063565b50606560009054906101000a900473ffffffffffffffffffffffffffffffffffffffff1673ffffffffffffffffffffffffffffffffffffffff1663e3dec8fb30606760009054906101000a900473ffffffffffffffffffffffffffffffffffffffff168460405160200161068b9190611328565b6040516020818303038152906040526040518463ffffffff1660e01b81526004016106b893929190611201565b600060405180830381600087803b1580156106d257600080fd5b505af11580156106e6573d6000803e3d6000fd5b50505050606760009054906101000a900473ffffffffffffffffffffffffffffffffffffffff1673ffffffffffffffffffffffffffffffffffffffff163373ffffffffffffffffffffffffffffffffffffffff167f74cfd0716c6a416cc5488fa30bf7a391241d033438366aa274c6ab41e7077e45836040516107699190611328565b60405180910390a35050565b600060019054906101000a900460ff168061079b575060008054906101000a900460ff16155b6107da576040517f08c379a00000000000000000000000000000000000000000000000000000000081526004016107d1906112c8565b60405180910390fd5b60008060019054906101000a900460ff16159050801561082a576001600060016101000a81548160ff02191690831515021790555060016000806101000a81548160ff0219169083151502179055505b600073ffffffffffffffffffffffffffffffffffffffff168473ffffffffffffffffffffffffffffffffffffffff16141561089a576040517f08c379a0000000000000000000000000000000000000000000000000000000008152600401610891906112e8565b60405180910390fd5b6108a2610c0b565b83606760006101000a81548173ffffffffffffffffffffffffffffffffffffffff021916908373ffffffffffffffffffffffffffffffffffffffff160217905550600073ffffffffffffffffffffffffffffffffffffffff168373ffffffffffffffffffffffffffffffffffffffff1614610a0a57600073ffffffffffffffffffffffffffffffffffffffff168273ffffffffffffffffffffffffffffffffffffffff161415610987576040517f08c379a000000000000000000000000000000000000000000000000000000000815260040161097e90611268565b60405180910390fd5b81606660006101000a81548173ffffffffffffffffffffffffffffffffffffffff021916908373ffffffffffffffffffffffffffffffffffffffff16021790555082606560006101000a81548173ffffffffffffffffffffffffffffffffffffffff021916908373ffffffffffffffffffffffffffffffffffffffff1602179055505b8015610a2b5760008060016101000a81548160ff0219169083151502179055505b50505050565b610a39610c03565b73ffffffffffffffffffffffffffffffffffffffff16610a576103f8565b73ffffffffffffffffffffffffffffffffffffffff1614610aad576040517f08c379a0000000000000000000000000000000000000000000000000000000008152600401610aa490611308565b60405180910390fd5b600073ffffffffffffffffffffffffffffffffffffffff168173ffffffffffffffffffffffffffffffffffffffff161415610b1d576040517f08c379a0000000000000000000000000000000000000000000000000000000008152600401610b1490611288565b60405180910390fd5b8073ffffffffffffffffffffffffffffffffffffffff16603360009054906101000a900473ffffffffffffffffffffffffffffffffffffffff1673ffffffffffffffffffffffffffffffffffffffff167f8be0079c531659141344cd1fd0a4f28419497f9722a3daafe3b4186f6b6457e060405160405180910390a380603360006101000a81548173ffffffffffffffffffffffffffffffffffffffff021916908373ffffffffffffffffffffffffffffffffffffffff16021790555050565b606760009054906101000a900473ffffffffffffffffffffffffffffffffffffffff1681565b600033905090565b600060019054906101000a900460ff1680610c31575060008054906101000a900460ff16155b610c70576040517f08c379a0000000000000000000000000000000000000000000000000000000008152600401610c67906112c8565b60405180910390fd5b60008060019054906101000a900460ff161590508015610cc0576001600060016101000a81548160ff02191690831515021790555060016000806101000a81548160ff0219169083151502179055505b610cc8610cf4565b610cd0610dcd565b8015610cf15760008060016101000a81548160ff0219169083151502179055505b50565b600060019054906101000a900460ff1680610d1a575060008054906101000a900460ff16155b610d59576040517f08c379a0000000000000000000000000000000000000000000000000000000008152600401610d50906112c8565b60405180910390fd5b60008060019054906101000a900460ff161590508015610da9576001600060016101000a81548160ff02191690831515021790555060016000806101000a81548160ff0219169083151502179055505b8015610dca5760008060016101000a81548160ff0219169083151502179055505b50565b600060019054906101000a900460ff1680610df3575060008054906101000a900460ff16155b610e32576040517f08c379a0000000000000000000000000000000000000000000000000000000008152600401610e29906112c8565b60405180910390fd5b60008060019054906101000a900460ff161590508015610e82576001600060016101000a81548160ff02191690831515021790555060016000806101000a81548160ff0219169083151502179055505b6000610e8c610c03565b905080603360006101000a81548173ffffffffffffffffffffffffffffffffffffffff021916908373ffffffffffffffffffffffffffffffffffffffff1602179055508073ffffffffffffffffffffffffffffffffffffffff16600073ffffffffffffffffffffffffffffffffffffffff167f8be0079c531659141344cd1fd0a4f28419497f9722a3daafe3b4186f6b6457e060405160405180910390a3508015610f4c5760008060016101000a81548160ff0219169083151502179055505b50565b600081359050610f5e816115b5565b92915050565b600081519050610f73816115cc565b92915050565b600081359050610f88816115e3565b92915050565b600081519050610f9d816115e3565b92915050565b600060208284031215610fb957610fb86113eb565b5b6000610fc784828501610f4f565b91505092915050565b600080600060608486031215610fe957610fe86113eb565b5b6000610ff786828701610f4f565b935050602061100886828701610f4f565b925050604061101986828701610f4f565b9150509250925092565b6000806040838503121561103a576110396113eb565b5b600061104885828601610f4f565b925050602061105985828601610f79565b9150509250929050565b600060208284031215611079576110786113eb565b5b600061108784828501610f64565b91505092915050565b6000602082840312156110a6576110a56113eb565b5b60006110b484828501610f8e565b91505092915050565b6110c681611370565b82525050565b60006110d782611343565b6110e1818561134e565b93506110f18185602086016113b8565b6110fa816113f0565b840191505092915050565b600061111260258361135f565b915061111d82611401565b604082019050919050565b600061113560268361135f565b915061114082611450565b604082019050919050565b6000611158602a8361135f565b91506111638261149f565b604082019050919050565b600061117b602e8361135f565b9150611186826114ee565b604082019050919050565b600061119e602d8361135f565b91506111a98261153d565b604082019050919050565b60006111c160208361135f565b91506111cc8261158c565b602082019050919050565b6111e0816113ae565b82525050565b60006020820190506111fb60008301846110bd565b92915050565b600060608201905061121660008301866110bd565b61122360208301856110bd565b818103604083015261123581846110cc565b9050949350505050565b600060408201905061125460008301856110bd565b61126160208301846111d7565b9392505050565b6000602082019050818103600083015261128181611105565b9050919050565b600060208201905081810360008301526112a181611128565b9050919050565b600060208201905081810360008301526112c18161114b565b9050919050565b600060208201905081810360008301526112e18161116e565b9050919050565b6000602082019050818103600083015261130181611191565b9050919050565b60006020820190508181036000830152611321816111b4565b9050919050565b600060208201905061133d60008301846111d7565b92915050565b600081519050919050565b600082825260208201905092915050565b600082825260208201905092915050565b600061137b8261138e565b9050919050565b60008115159050919050565b600073ffffffffffffffffffffffffffffffffffffffff82169050919050565b6000819050919050565b60005b838110156113d65780820151818401526020810190506113bb565b838111156113e5576000848401525b50505050565b600080fd5b6000601f19601f8301169050919050565b7f5661756c743a206572633230507265646963617465206d757374206e6f74206260008201527f6520307830000000000000000000000000000000000000000000000000000000602082015250565b7f4f776e61626c653a206e6577206f776e657220697320746865207a65726f206160008201527f6464726573730000000000000000000000000000000000000000000000000000602082015250565b7f5661756c743a207472616e7366657220746f206368696c6420636861696e206960008201527f732064697361626c656400000000000000000000000000000000000000000000602082015250565b7f496e697469616c697a61626c653a20636f6e747261637420697320616c72656160008201527f647920696e697469616c697a6564000000000000000000000000000000000000602082015250565b7f5661756c743a20612076616c696420746f6b656e2061646472657373206d757360008201527f742062652070726f766964656400000000000000000000000000000000000000602082015250565b7f4f776e61626c653a2063616c6c6572206973206e6f7420746865206f776e6572600082015250565b6115be81611370565b81146115c957600080fd5b50565b6115d581611382565b81146115e057600080fd5b50565b6115ec816113ae565b81146115f757600080fd5b5056fea26469706673582212208a5180254d1623bd1e05ad51c6cde68c9ea5ed9e704bf1d4e5f66b0efdbbcd3264736f6c63430008060033",
  "devdoc": {
    "author": "Alex T",
    "details": "It needs to be deployed at the same address on both chains. Uses CREATE2 on deploy to achieve that",
    "events": {
      "SetAllowance(address,address,uint256)": {
        "details": "Emitted when setAlowance is called",
        "params": {
          "amount": "The amount of tokens that spender can spend",
          "caller": "Address that called setAllowance",
          "spender": "Address that the allowance has been set for"
        }
      },
      "TransferToChild(address,address,uint256)": {
        "details": "Emitted when transferToChild is called",
        "params": {
          "amount": "The amount of tokens that were sent to the child chain",
          "caller": "Address that called transferToChild",
          "token": "Address of the transferred token"
        }
      }
    },
    "kind": "dev",
    "methods": {
      "initialize(address,address,address)": {
        "details": "Needs to be called after deployment. Get addresses from https://github.com/maticnetwork/static/tree/master/network",
        "params": {
          "_erc20Predicate": "Polygon ERC20 Predicate. Zero address for child deployment",
          "_rootChainManager": "Polygon root network chain manager. Zero address for child deployment",
          "_token": "The address of the ERC20 that the vault will manipulate/own"
        }
      },
      "owner()": {
        "details": "Returns the address of the current owner."
      },
      "renounceOwnership()": {
        "details": "Leaves the contract without owner. It will not be possible to call `onlyOwner` functions anymore. Can only be called by the current owner. NOTE: Renouncing ownership will leave the contract without an owner, thereby removing any functionality that is only available to the owner."
      },
      "setAllowance(address,uint256)": {
        "details": "Emits SetAllowance on allowance being successfully set",
        "params": {
          "_amount": "How much cand the address spend",
          "_spender": "Address that is allowed to spend the funds"
        }
      },
      "transferOwnership(address)": {
        "details": "Transfers ownership of the contract to a new account (`newOwner`). Can only be called by the current owner."
      },
      "transferToChild()": {
        "details": "Emits TransferToChild on funds being sucessfuly deposited"
      }
    },
    "title": "PolygonCommunityVault",
    "version": 1
  },
  "userdoc": {
    "events": {
      "SetAllowance(address,address,uint256)": {
        "notice": "Notifies of allowance being set"
      },
      "TransferToChild(address,address,uint256)": {
        "notice": "Notifies of a transfer to the child chain being made"
      }
    },
    "kind": "user",
    "methods": {
      "initialize(address,address,address)": {
        "notice": "PolygonCommunityVault initializer"
      },
      "setAllowance(address,uint256)": {
        "notice": "Sets Allowance for specified contract for the managed token"
      },
      "transferToChild()": {
        "notice": "Transfers full balance of managed token through the Polygon Bridge"
      }
    },
    "notice": "Assists with moving a specified token from the root chain to the child chain. Made for Polygon",
    "version": 1
  },
  "storageLayout": {
    "storage": [
      {
        "astId": 136,
        "contract": "contracts/PolygonCommunityVault.sol:PolygonCommunityVault",
        "label": "_initialized",
        "offset": 0,
        "slot": "0",
        "type": "t_bool"
      },
      {
        "astId": 139,
        "contract": "contracts/PolygonCommunityVault.sol:PolygonCommunityVault",
        "label": "_initializing",
        "offset": 1,
        "slot": "0",
        "type": "t_bool"
      },
      {
        "astId": 220,
        "contract": "contracts/PolygonCommunityVault.sol:PolygonCommunityVault",
        "label": "__gap",
        "offset": 0,
        "slot": "1",
        "type": "t_array(t_uint256)50_storage"
      },
      {
        "astId": 10,
        "contract": "contracts/PolygonCommunityVault.sol:PolygonCommunityVault",
        "label": "_owner",
        "offset": 0,
        "slot": "51",
        "type": "t_address"
      },
      {
        "astId": 129,
        "contract": "contracts/PolygonCommunityVault.sol:PolygonCommunityVault",
        "label": "__gap",
        "offset": 0,
        "slot": "52",
        "type": "t_array(t_uint256)49_storage"
      },
      {
        "astId": 1526,
        "contract": "contracts/PolygonCommunityVault.sol:PolygonCommunityVault",
        "label": "rootChainManager",
        "offset": 0,
        "slot": "101",
        "type": "t_contract(IRootChainManager)2944"
      },
      {
        "astId": 1528,
        "contract": "contracts/PolygonCommunityVault.sol:PolygonCommunityVault",
        "label": "erc20Predicate",
        "offset": 0,
        "slot": "102",
        "type": "t_address"
      },
      {
        "astId": 1530,
        "contract": "contracts/PolygonCommunityVault.sol:PolygonCommunityVault",
        "label": "token",
        "offset": 0,
        "slot": "103",
        "type": "t_address"
      }
    ],
    "types": {
      "t_address": {
        "encoding": "inplace",
        "label": "address",
        "numberOfBytes": "20"
      },
      "t_array(t_uint256)49_storage": {
        "base": "t_uint256",
        "encoding": "inplace",
        "label": "uint256[49]",
        "numberOfBytes": "1568"
      },
      "t_array(t_uint256)50_storage": {
        "base": "t_uint256",
        "encoding": "inplace",
        "label": "uint256[50]",
        "numberOfBytes": "1600"
      },
      "t_bool": {
        "encoding": "inplace",
        "label": "bool",
        "numberOfBytes": "1"
      },
      "t_contract(IRootChainManager)2944": {
        "encoding": "inplace",
        "label": "contract IRootChainManager",
        "numberOfBytes": "20"
      },
      "t_uint256": {
        "encoding": "inplace",
        "label": "uint256",
        "numberOfBytes": "32"
      }
    }
  }
}