{
  "address": "0x7F33bA1355ae21383815f793d00ef36158692CA1",
  "abi": [
    {
      "anonymous": false,
      "inputs": [
        {
          "indexed": true,
          "internalType": "address",
          "name": "previousOwner",
          "type": "address"
        },
        {
          "indexed": true,
          "internalType": "address",
          "name": "newOwner",
          "type": "address"
        }
      ],
      "name": "OwnershipTransferred",
      "type": "event"
    },
    {
      "anonymous": false,
      "inputs": [
        {
          "indexed": true,
          "internalType": "address",
          "name": "caller",
          "type": "address"
        },
        {
          "indexed": true,
          "internalType": "address",
          "name": "spender",
          "type": "address"
        },
        {
          "indexed": false,
          "internalType": "uint256",
          "name": "amount",
          "type": "uint256"
        }
      ],
      "name": "SetAllowance",
      "type": "event"
    },
    {
      "anonymous": false,
      "inputs": [
        {
          "indexed": true,
          "internalType": "address",
          "name": "caller",
          "type": "address"
        },
        {
          "indexed": true,
          "internalType": "address",
          "name": "token",
          "type": "address"
        },
        {
          "indexed": false,
          "internalType": "uint256",
          "name": "amount",
          "type": "uint256"
        }
      ],
      "name": "TransferToChild",
      "type": "event"
    },
    {
      "inputs": [
        {
          "internalType": "address",
          "name": "_token",
          "type": "address"
        },
        {
          "internalType": "address",
          "name": "_rootChainManager",
          "type": "address"
        },
        {
          "internalType": "address",
          "name": "_erc20Predicate",
          "type": "address"
        }
      ],
      "name": "initialize",
      "outputs": [],
      "stateMutability": "nonpayable",
      "type": "function"
    },
    {
      "inputs": [],
      "name": "owner",
      "outputs": [
        {
          "internalType": "address",
          "name": "",
          "type": "address"
        }
      ],
      "stateMutability": "view",
      "type": "function"
    },
    {
      "inputs": [],
      "name": "renounceOwnership",
      "outputs": [],
      "stateMutability": "nonpayable",
      "type": "function"
    },
    {
      "inputs": [
        {
          "internalType": "address",
          "name": "spender",
          "type": "address"
        },
        {
          "internalType": "uint256",
          "name": "amount",
          "type": "uint256"
        }
      ],
      "name": "setAllowance",
      "outputs": [],
      "stateMutability": "nonpayable",
      "type": "function"
    },
    {
      "inputs": [],
      "name": "token",
      "outputs": [
        {
          "internalType": "address",
          "name": "",
          "type": "address"
        }
      ],
      "stateMutability": "view",
      "type": "function"
    },
    {
      "inputs": [
        {
          "internalType": "address",
          "name": "newOwner",
          "type": "address"
        }
      ],
      "name": "transferOwnership",
      "outputs": [],
      "stateMutability": "nonpayable",
      "type": "function"
    },
    {
      "inputs": [],
      "name": "transferToChild",
      "outputs": [],
      "stateMutability": "nonpayable",
      "type": "function"
    }
  ],
  "transactionHash": "0x853aab4330d43ab9a5a4e02467b6165cea1314c2269e0a67c7d1cb12e9b42360",
  "args": [],
  "solcInputHash": "87a464b76760a638dc7930bef06ebcd1",
  "bytecode": "0x608060405234801561001057600080fd5b50611c20806100206000396000f3fe608060405234801561001057600080fd5b506004361061007d5760003560e01c80638e9762fa1161005b5780638e9762fa146100c6578063c0c53b8b146100d0578063f2fde38b146100ec578063fc0c546a146101085761007d565b8063310ec4a714610082578063715018a61461009e5780638da5cb5b146100a8575b600080fd5b61009c60048036038101906100979190611320565b610126565b005b6100a6610258565b005b6100b0610395565b6040516100bd91906115e4565b60405180910390f35b6100ce6103bf565b005b6100ea60048036038101906100e591906112d1565b6106af565b005b610106600480360381019061010191906112a8565b61096b565b005b610110610b17565b60405161011d91906115e4565b60405180910390f35b61012e610b3d565b73ffffffffffffffffffffffffffffffffffffffff1661014c610395565b73ffffffffffffffffffffffffffffffffffffffff16146101a2576040517f08c379a000000000000000000000000000000000000000000000000000000000815260040161019990611771565b60405180910390fd5b6101ef8282606760009054906101000a900473ffffffffffffffffffffffffffffffffffffffff1673ffffffffffffffffffffffffffffffffffffffff16610b459092919063ffffffff16565b8173ffffffffffffffffffffffffffffffffffffffff163373ffffffffffffffffffffffffffffffffffffffff167f3c07380f6fcae3bac39771c60e5c680334073911f2176b65f1d6925ba0badcdf8360405161024c91906117f1565b60405180910390a35050565b610260610b3d565b73ffffffffffffffffffffffffffffffffffffffff1661027e610395565b73ffffffffffffffffffffffffffffffffffffffff16146102d4576040517f08c379a00000000000000000000000000000000000000000000000000000000081526004016102cb90611771565b60405180910390fd5b600073ffffffffffffffffffffffffffffffffffffffff16603360009054906101000a900473ffffffffffffffffffffffffffffffffffffffff1673ffffffffffffffffffffffffffffffffffffffff167f8be0079c531659141344cd1fd0a4f28419497f9722a3daafe3b4186f6b6457e060405160405180910390a36000603360006101000a81548173ffffffffffffffffffffffffffffffffffffffff021916908373ffffffffffffffffffffffffffffffffffffffff160217905550565b6000603360009054906101000a900473ffffffffffffffffffffffffffffffffffffffff16905090565b600073ffffffffffffffffffffffffffffffffffffffff16606660009054906101000a900473ffffffffffffffffffffffffffffffffffffffff1673ffffffffffffffffffffffffffffffffffffffff161415610451576040517f08c379a0000000000000000000000000000000000000000000000000000000008152600401610448906116f1565b60405180910390fd5b6000606760009054906101000a900473ffffffffffffffffffffffffffffffffffffffff16905060008173ffffffffffffffffffffffffffffffffffffffff166370a08231306040518263ffffffff1660e01b81526004016104b391906115e4565b60206040518083038186803b1580156104cb57600080fd5b505afa1580156104df573d6000803e3d6000fd5b505050506040513d601f19601f820116820180604052508101906105039190611385565b9050610552606660009054906101000a900473ffffffffffffffffffffffffffffffffffffffff16828473ffffffffffffffffffffffffffffffffffffffff16610b459092919063ffffffff16565b606560009054906101000a900473ffffffffffffffffffffffffffffffffffffffff1673ffffffffffffffffffffffffffffffffffffffff1663e3dec8fb30606760009054906101000a900473ffffffffffffffffffffffffffffffffffffffff16846040516020016105c591906117f1565b6040516020818303038152906040526040518463ffffffff1660e01b81526004016105f293929190611628565b600060405180830381600087803b15801561060c57600080fd5b505af1158015610620573d6000803e3d6000fd5b50505050606760009054906101000a900473ffffffffffffffffffffffffffffffffffffffff1673ffffffffffffffffffffffffffffffffffffffff163373ffffffffffffffffffffffffffffffffffffffff167f74cfd0716c6a416cc5488fa30bf7a391241d033438366aa274c6ab41e7077e45836040516106a391906117f1565b60405180910390a35050565b600060019054906101000a900460ff16806106d5575060008054906101000a900460ff16155b610714576040517f08c379a000000000000000000000000000000000000000000000000000000000815260040161070b90611731565b60405180910390fd5b60008060019054906101000a900460ff161590508015610764576001600060016101000a81548160ff02191690831515021790555060016000806101000a81548160ff0219169083151502179055505b600073ffffffffffffffffffffffffffffffffffffffff168473ffffffffffffffffffffffffffffffffffffffff1614156107d4576040517f08c379a00000000000000000000000000000000000000000000000000000000081526004016107cb90611751565b60405180910390fd5b6107dc610ca3565b83606760006101000a81548173ffffffffffffffffffffffffffffffffffffffff021916908373ffffffffffffffffffffffffffffffffffffffff160217905550600073ffffffffffffffffffffffffffffffffffffffff168373ffffffffffffffffffffffffffffffffffffffff161461094457600073ffffffffffffffffffffffffffffffffffffffff168273ffffffffffffffffffffffffffffffffffffffff1614156108c1576040517f08c379a00000000000000000000000000000000000000000000000000000000081526004016108b8906116b1565b60405180910390fd5b81606660006101000a81548173ffffffffffffffffffffffffffffffffffffffff021916908373ffffffffffffffffffffffffffffffffffffffff16021790555082606560006101000a81548173ffffffffffffffffffffffffffffffffffffffff021916908373ffffffffffffffffffffffffffffffffffffffff1602179055505b80156109655760008060016101000a81548160ff0219169083151502179055505b50505050565b610973610b3d565b73ffffffffffffffffffffffffffffffffffffffff16610991610395565b73ffffffffffffffffffffffffffffffffffffffff16146109e7576040517f08c379a00000000000000000000000000000000000000000000000000000000081526004016109de90611771565b60405180910390fd5b600073ffffffffffffffffffffffffffffffffffffffff168173ffffffffffffffffffffffffffffffffffffffff161415610a57576040517f08c379a0000000000000000000000000000000000000000000000000000000008152600401610a4e906116d1565b60405180910390fd5b8073ffffffffffffffffffffffffffffffffffffffff16603360009054906101000a900473ffffffffffffffffffffffffffffffffffffffff1673ffffffffffffffffffffffffffffffffffffffff167f8be0079c531659141344cd1fd0a4f28419497f9722a3daafe3b4186f6b6457e060405160405180910390a380603360006101000a81548173ffffffffffffffffffffffffffffffffffffffff021916908373ffffffffffffffffffffffffffffffffffffffff16021790555050565b606760009054906101000a900473ffffffffffffffffffffffffffffffffffffffff1681565b600033905090565b6000811480610bde575060008373ffffffffffffffffffffffffffffffffffffffff1663dd62ed3e30856040518363ffffffff1660e01b8152600401610b8c9291906115ff565b60206040518083038186803b158015610ba457600080fd5b505afa158015610bb8573d6000803e3d6000fd5b505050506040513d601f19601f82011682018060405250810190610bdc9190611385565b145b610c1d576040517f08c379a0000000000000000000000000000000000000000000000000000000008152600401610c14906117d1565b60405180910390fd5b610c9e8363095ea7b360e01b8484604051602401610c3c929190611666565b604051602081830303815290604052907bffffffffffffffffffffffffffffffffffffffffffffffffffffffff19166020820180517bffffffffffffffffffffffffffffffffffffffffffffffffffffffff8381831617835250505050610d8c565b505050565b600060019054906101000a900460ff1680610cc9575060008054906101000a900460ff16155b610d08576040517f08c379a0000000000000000000000000000000000000000000000000000000008152600401610cff90611731565b60405180910390fd5b60008060019054906101000a900460ff161590508015610d58576001600060016101000a81548160ff02191690831515021790555060016000806101000a81548160ff0219169083151502179055505b610d60610e53565b610d68610f2c565b8015610d895760008060016101000a81548160ff0219169083151502179055505b50565b6000610dee826040518060400160405280602081526020017f5361666545524332303a206c6f772d6c6576656c2063616c6c206661696c65648152508573ffffffffffffffffffffffffffffffffffffffff166110ae9092919063ffffffff16565b9050600081511115610e4e5780806020019051810190610e0e919061135c565b610e4d576040517f08c379a0000000000000000000000000000000000000000000000000000000008152600401610e44906117b1565b60405180910390fd5b5b505050565b600060019054906101000a900460ff1680610e79575060008054906101000a900460ff16155b610eb8576040517f08c379a0000000000000000000000000000000000000000000000000000000008152600401610eaf90611731565b60405180910390fd5b60008060019054906101000a900460ff161590508015610f08576001600060016101000a81548160ff02191690831515021790555060016000806101000a81548160ff0219169083151502179055505b8015610f295760008060016101000a81548160ff0219169083151502179055505b50565b600060019054906101000a900460ff1680610f52575060008054906101000a900460ff16155b610f91576040517f08c379a0000000000000000000000000000000000000000000000000000000008152600401610f8890611731565b60405180910390fd5b60008060019054906101000a900460ff161590508015610fe1576001600060016101000a81548160ff02191690831515021790555060016000806101000a81548160ff0219169083151502179055505b6000610feb610b3d565b905080603360006101000a81548173ffffffffffffffffffffffffffffffffffffffff021916908373ffffffffffffffffffffffffffffffffffffffff1602179055508073ffffffffffffffffffffffffffffffffffffffff16600073ffffffffffffffffffffffffffffffffffffffff167f8be0079c531659141344cd1fd0a4f28419497f9722a3daafe3b4186f6b6457e060405160405180910390a35080156110ab5760008060016101000a81548160ff0219169083151502179055505b50565b60606110bd84846000856110c6565b90509392505050565b60608247101561110b576040517f08c379a000000000000000000000000000000000000000000000000000000000815260040161110290611711565b60405180910390fd5b611114856111da565b611153576040517f08c379a000000000000000000000000000000000000000000000000000000000815260040161114a90611791565b60405180910390fd5b6000808673ffffffffffffffffffffffffffffffffffffffff16858760405161117c91906115cd565b60006040518083038185875af1925050503d80600081146111b9576040519150601f19603f3d011682016040523d82523d6000602084013e6111be565b606091505b50915091506111ce8282866111ed565b92505050949350505050565b600080823b905060008111915050919050565b606083156111fd5782905061124d565b6000835111156112105782518084602001fd5b816040517f08c379a0000000000000000000000000000000000000000000000000000000008152600401611244919061168f565b60405180910390fd5b9392505050565b60008135905061126381611ba5565b92915050565b60008151905061127881611bbc565b92915050565b60008135905061128d81611bd3565b92915050565b6000815190506112a281611bd3565b92915050565b6000602082840312156112ba57600080fd5b60006112c884828501611254565b91505092915050565b6000806000606084860312156112e657600080fd5b60006112f486828701611254565b935050602061130586828701611254565b925050604061131686828701611254565b9150509250925092565b6000806040838503121561133357600080fd5b600061134185828601611254565b92505060206113528582860161127e565b9150509250929050565b60006020828403121561136e57600080fd5b600061137c84828501611269565b91505092915050565b60006020828403121561139757600080fd5b60006113a584828501611293565b91505092915050565b6113b78161184f565b82525050565b60006113c88261180c565b6113d28185611822565b93506113e2818560208601611897565b6113eb816118ca565b840191505092915050565b60006114018261180c565b61140b8185611833565b935061141b818560208601611897565b80840191505092915050565b600061143282611817565b61143c818561183e565b935061144c818560208601611897565b611455816118ca565b840191505092915050565b600061146d60258361183e565b9150611478826118db565b604082019050919050565b600061149060268361183e565b915061149b8261192a565b604082019050919050565b60006114b3602a8361183e565b91506114be82611979565b604082019050919050565b60006114d660268361183e565b91506114e1826119c8565b604082019050919050565b60006114f9602e8361183e565b915061150482611a17565b604082019050919050565b600061151c602d8361183e565b915061152782611a66565b604082019050919050565b600061153f60208361183e565b915061154a82611ab5565b602082019050919050565b6000611562601d8361183e565b915061156d82611ade565b602082019050919050565b6000611585602a8361183e565b915061159082611b07565b604082019050919050565b60006115a860368361183e565b91506115b382611b56565b604082019050919050565b6115c78161188d565b82525050565b60006115d982846113f6565b915081905092915050565b60006020820190506115f960008301846113ae565b92915050565b600060408201905061161460008301856113ae565b61162160208301846113ae565b9392505050565b600060608201905061163d60008301866113ae565b61164a60208301856113ae565b818103604083015261165c81846113bd565b9050949350505050565b600060408201905061167b60008301856113ae565b61168860208301846115be565b9392505050565b600060208201905081810360008301526116a98184611427565b905092915050565b600060208201905081810360008301526116ca81611460565b9050919050565b600060208201905081810360008301526116ea81611483565b9050919050565b6000602082019050818103600083015261170a816114a6565b9050919050565b6000602082019050818103600083015261172a816114c9565b9050919050565b6000602082019050818103600083015261174a816114ec565b9050919050565b6000602082019050818103600083015261176a8161150f565b9050919050565b6000602082019050818103600083015261178a81611532565b9050919050565b600060208201905081810360008301526117aa81611555565b9050919050565b600060208201905081810360008301526117ca81611578565b9050919050565b600060208201905081810360008301526117ea8161159b565b9050919050565b600060208201905061180660008301846115be565b92915050565b600081519050919050565b600081519050919050565b600082825260208201905092915050565b600081905092915050565b600082825260208201905092915050565b600061185a8261186d565b9050919050565b60008115159050919050565b600073ffffffffffffffffffffffffffffffffffffffff82169050919050565b6000819050919050565b60005b838110156118b557808201518184015260208101905061189a565b838111156118c4576000848401525b50505050565b6000601f19601f8301169050919050565b7f5661756c743a206572633230507265646963617465206d757374206e6f74206260008201527f6520307830000000000000000000000000000000000000000000000000000000602082015250565b7f4f776e61626c653a206e6577206f776e657220697320746865207a65726f206160008201527f6464726573730000000000000000000000000000000000000000000000000000602082015250565b7f5661756c743a207472616e7366657220746f206368696c6420636861696e206960008201527f732064697361626c656400000000000000000000000000000000000000000000602082015250565b7f416464726573733a20696e73756666696369656e742062616c616e636520666f60008201527f722063616c6c0000000000000000000000000000000000000000000000000000602082015250565b7f496e697469616c697a61626c653a20636f6e747261637420697320616c72656160008201527f647920696e697469616c697a6564000000000000000000000000000000000000602082015250565b7f5661756c743a20612076616c696420746f6b656e2061646472657373206d757360008201527f742062652070726f766964656400000000000000000000000000000000000000602082015250565b7f4f776e61626c653a2063616c6c6572206973206e6f7420746865206f776e6572600082015250565b7f416464726573733a2063616c6c20746f206e6f6e2d636f6e7472616374000000600082015250565b7f5361666545524332303a204552433230206f7065726174696f6e20646964206e60008201527f6f74207375636365656400000000000000000000000000000000000000000000602082015250565b7f5361666545524332303a20617070726f76652066726f6d206e6f6e2d7a65726f60008201527f20746f206e6f6e2d7a65726f20616c6c6f77616e636500000000000000000000602082015250565b611bae8161184f565b8114611bb957600080fd5b50565b611bc581611861565b8114611bd057600080fd5b50565b611bdc8161188d565b8114611be757600080fd5b5056fea264697066735822122003138b4af282aa828b0992adc836705080f8cc1524a7923eaa8a9de1441810a464736f6c63430008040033",
  "devdoc": {
    "kind": "dev",
    "methods": {
      "owner()": {
        "details": "Returns the address of the current owner."
      },
      "renounceOwnership()": {
        "details": "Leaves the contract without owner. It will not be possible to call `onlyOwner` functions anymore. Can only be called by the current owner. NOTE: Renouncing ownership will leave the contract without an owner, thereby removing any functionality that is only available to the owner."
      },
      "transferOwnership(address)": {
        "details": "Transfers ownership of the contract to a new account (`newOwner`). Can only be called by the current owner."
      }
    },
    "version": 1
  },
  "userdoc": {
    "kind": "user",
    "methods": {},
    "version": 1
  },
  "storageLayout": {
    "storage": [
      {
        "astId": 136,
        "contract": "contracts/PolygonCommunityVault.sol:PolygonCommunityVault",
        "label": "_initialized",
        "offset": 0,
        "slot": "0",
        "type": "t_bool"
      },
      {
        "astId": 139,
        "contract": "contracts/PolygonCommunityVault.sol:PolygonCommunityVault",
        "label": "_initializing",
        "offset": 1,
        "slot": "0",
        "type": "t_bool"
      },
      {
        "astId": 220,
        "contract": "contracts/PolygonCommunityVault.sol:PolygonCommunityVault",
        "label": "__gap",
        "offset": 0,
        "slot": "1",
        "type": "t_array(t_uint256)50_storage"
      },
      {
        "astId": 10,
        "contract": "contracts/PolygonCommunityVault.sol:PolygonCommunityVault",
        "label": "_owner",
        "offset": 0,
        "slot": "51",
        "type": "t_address"
      },
      {
        "astId": 129,
        "contract": "contracts/PolygonCommunityVault.sol:PolygonCommunityVault",
        "label": "__gap",
        "offset": 0,
        "slot": "52",
        "type": "t_array(t_uint256)49_storage"
      },
      {
        "astId": 834,
        "contract": "contracts/PolygonCommunityVault.sol:PolygonCommunityVault",
        "label": "rootChainManager",
        "offset": 0,
        "slot": "101",
        "type": "t_contract(IRootChainManager)1018"
      },
      {
        "astId": 836,
        "contract": "contracts/PolygonCommunityVault.sol:PolygonCommunityVault",
        "label": "erc20Predicate",
        "offset": 0,
        "slot": "102",
        "type": "t_address"
      },
      {
        "astId": 838,
        "contract": "contracts/PolygonCommunityVault.sol:PolygonCommunityVault",
        "label": "token",
        "offset": 0,
        "slot": "103",
        "type": "t_address"
      }
    ],
    "types": {
      "t_address": {
        "encoding": "inplace",
        "label": "address",
        "numberOfBytes": "20"
      },
      "t_array(t_uint256)49_storage": {
        "base": "t_uint256",
        "encoding": "inplace",
        "label": "uint256[49]",
        "numberOfBytes": "1568"
      },
      "t_array(t_uint256)50_storage": {
        "base": "t_uint256",
        "encoding": "inplace",
        "label": "uint256[50]",
        "numberOfBytes": "1600"
      },
      "t_bool": {
        "encoding": "inplace",
        "label": "bool",
        "numberOfBytes": "1"
      },
      "t_contract(IRootChainManager)1018": {
        "encoding": "inplace",
        "label": "contract IRootChainManager",
        "numberOfBytes": "20"
      },
      "t_uint256": {
        "encoding": "inplace",
        "label": "uint256",
        "numberOfBytes": "32"
      }
    }
  }
}