{
  "address": "0x337CFC13aafc17Ed46aE58b0BB43c04E39054A5a",
  "abi": [
    {
      "anonymous": false,
      "inputs": [
        {
          "indexed": true,
          "internalType": "address",
          "name": "previousOwner",
          "type": "address"
        },
        {
          "indexed": true,
          "internalType": "address",
          "name": "newOwner",
          "type": "address"
        }
      ],
      "name": "OwnershipTransferred",
      "type": "event"
    },
    {
      "anonymous": false,
      "inputs": [
        {
          "indexed": true,
          "internalType": "address",
          "name": "caller",
          "type": "address"
        },
        {
          "indexed": true,
          "internalType": "address",
          "name": "spender",
          "type": "address"
        },
        {
          "indexed": false,
          "internalType": "uint256",
          "name": "amount",
          "type": "uint256"
        }
      ],
      "name": "SetAllowance",
      "type": "event"
    },
    {
      "anonymous": false,
      "inputs": [
        {
          "indexed": true,
          "internalType": "address",
          "name": "caller",
          "type": "address"
        },
        {
          "indexed": true,
          "internalType": "address",
          "name": "owner",
          "type": "address"
        },
        {
          "indexed": true,
          "internalType": "address",
          "name": "token",
          "type": "address"
        },
        {
          "indexed": false,
          "internalType": "uint256",
          "name": "amount",
          "type": "uint256"
        }
      ],
      "name": "TransferToOwner",
      "type": "event"
    },
    {
      "anonymous": false,
      "inputs": [
        {
          "indexed": true,
          "internalType": "address",
          "name": "caller",
          "type": "address"
        },
        {
          "indexed": true,
          "internalType": "address",
          "name": "token",
          "type": "address"
        },
        {
          "indexed": false,
          "internalType": "uint256",
          "name": "amount",
          "type": "uint256"
        }
      ],
      "name": "WithdrawOnChild",
      "type": "event"
    },
    {
      "anonymous": false,
      "inputs": [
        {
          "indexed": true,
          "internalType": "address",
          "name": "caller",
          "type": "address"
        }
      ],
      "name": "WithdrawOnRoot",
      "type": "event"
    },
    {
      "inputs": [
        {
          "internalType": "address",
          "name": "_syProvider",
          "type": "address"
        }
      ],
      "name": "claimAndWithdrawOnChild",
      "outputs": [],
      "stateMutability": "nonpayable",
      "type": "function"
    },
    {
      "inputs": [
        {
          "internalType": "address[]",
          "name": "_syProviders",
          "type": "address[]"
        }
      ],
      "name": "claimAndWithdrawOnChildMulti",
      "outputs": [],
      "stateMutability": "nonpayable",
      "type": "function"
    },
    {
      "inputs": [
        {
          "internalType": "uint256",
          "name": "_withdrawCooldown",
          "type": "uint256"
        },
        {
          "internalType": "address",
          "name": "_rootChainManager",
          "type": "address"
        }
      ],
      "name": "initialize",
      "outputs": [],
      "stateMutability": "nonpayable",
      "type": "function"
    },
    {
      "inputs": [
        {
          "internalType": "address",
          "name": "",
          "type": "address"
        }
      ],
      "name": "lastWithdraw",
      "outputs": [
        {
          "internalType": "uint256",
          "name": "",
          "type": "uint256"
        }
      ],
      "stateMutability": "view",
      "type": "function"
    },
    {
      "inputs": [],
      "name": "owner",
      "outputs": [
        {
          "internalType": "address",
          "name": "",
          "type": "address"
        }
      ],
      "stateMutability": "view",
      "type": "function"
    },
    {
      "inputs": [],
      "name": "renounceOwnership",
      "outputs": [],
      "stateMutability": "nonpayable",
      "type": "function"
    },
    {
      "inputs": [],
      "name": "rootChainManager",
      "outputs": [
        {
          "internalType": "address",
          "name": "",
          "type": "address"
        }
      ],
      "stateMutability": "view",
      "type": "function"
    },
    {
      "inputs": [
        {
          "internalType": "uint256",
          "name": "_withdrawCooldown",
          "type": "uint256"
        }
      ],
      "name": "setWithdrawCooldown",
      "outputs": [],
      "stateMutability": "nonpayable",
      "type": "function"
    },
    {
      "inputs": [
        {
          "internalType": "address",
          "name": "newOwner",
          "type": "address"
        }
      ],
      "name": "transferOwnership",
      "outputs": [],
      "stateMutability": "nonpayable",
      "type": "function"
    },
    {
      "inputs": [
        {
          "internalType": "address",
          "name": "_token",
          "type": "address"
        }
      ],
      "name": "transferToOwner",
      "outputs": [],
      "stateMutability": "nonpayable",
      "type": "function"
    },
    {
      "inputs": [],
      "name": "withdrawCooldown",
      "outputs": [
        {
          "internalType": "uint256",
          "name": "",
          "type": "uint256"
        }
      ],
      "stateMutability": "view",
      "type": "function"
    },
    {
      "inputs": [
        {
          "internalType": "address",
          "name": "_childToken",
          "type": "address"
        }
      ],
      "name": "withdrawOnChild",
      "outputs": [],
      "stateMutability": "nonpayable",
      "type": "function"
    },
    {
      "inputs": [
        {
          "internalType": "address[]",
          "name": "_childTokens",
          "type": "address[]"
        }
      ],
      "name": "withdrawOnChildMulti",
      "outputs": [],
      "stateMutability": "nonpayable",
      "type": "function"
    },
    {
      "inputs": [
        {
          "internalType": "bytes",
          "name": "_data",
          "type": "bytes"
        }
      ],
      "name": "withdrawOnRoot",
      "outputs": [],
      "stateMutability": "nonpayable",
      "type": "function"
    }
  ],
  "args": [],
  "solcInputHash": "9c27616fb0befbe64dadc96f09b303ec",
  "bytecode": "0x608060405234801561001057600080fd5b5061270f806100206000396000f3fe608060405234801561001057600080fd5b50600436106100ea5760003560e01c806385d3f47e1161008c578063bd07018d11610066578063bd07018d1461020d578063bebaa1001461022b578063da35a26f14610247578063f2fde38b14610263576100ea565b806385d3f47e146101b75780638da5cb5b146101d3578063bac845b4146101f1576100ea565b80635689c260116100c85780635689c26014610145578063624d7b7214610161578063715018a614610191578063812d504d1461019b576100ea565b8063260b1fd9146100ef5780633cbfe3a11461010b57806344feed2914610129575b600080fd5b61010960048036038101906101049190611a9e565b61027f565b005b6101136103af565b6040516101209190612034565b60405180910390f35b610143600480360381019061013e9190611adf565b6103b5565b005b61015f600480360381019061015a91906119e2565b610491565b005b61017b600480360381019061017691906119e2565b61064e565b6040516101889190612034565b60405180910390f35b610199610666565b005b6101b560048036038101906101b091906119e2565b6107a3565b005b6101d160048036038101906101cc91906119e2565b6109bb565b005b6101db610c8d565b6040516101e89190611e0c565b60405180910390f35b61020b60048036038101906102069190611a34565b610cb7565b005b610215610dc2565b6040516102229190611e0c565b60405180910390f35b61024560048036038101906102409190611a34565b610de8565b005b610261600480360381019061025c9190611b31565b610ef3565b005b61027d600480360381019061027891906119e2565b611090565b005b60011515606560009054906101000a900460ff161515146102d5576040517f08c379a00000000000000000000000000000000000000000000000000000000081526004016102cc90611f94565b60405180910390fd5b606560019054906101000a900473ffffffffffffffffffffffffffffffffffffffff1673ffffffffffffffffffffffffffffffffffffffff16633805550f826040518263ffffffff1660e01b81526004016103309190611e50565b600060405180830381600087803b15801561034a57600080fd5b505af115801561035e573d6000803e3d6000fd5b5050505061036a61123c565b73ffffffffffffffffffffffffffffffffffffffff167fc3ff84400b51b8faa19b096a526771e00f25836296ed44a71bc9d01fd59e4ae360405160405180910390a250565b60675481565b6103bd61123c565b73ffffffffffffffffffffffffffffffffffffffff166103db610c8d565b73ffffffffffffffffffffffffffffffffffffffff1614610431576040517f08c379a000000000000000000000000000000000000000000000000000000000815260040161042890611fd4565b60405180910390fd5b60001515606560009054906101000a900460ff16151514610487576040517f08c379a000000000000000000000000000000000000000000000000000000000815260040161047e90611f14565b60405180910390fd5b8060678190555050565b60001515606560009054906101000a900460ff161515146104e7576040517f08c379a00000000000000000000000000000000000000000000000000000000081526004016104de90611f14565b60405180910390fd5b600073ffffffffffffffffffffffffffffffffffffffff168173ffffffffffffffffffffffffffffffffffffffff161415610557576040517f08c379a000000000000000000000000000000000000000000000000000000000815260040161054e90611ef4565b60405180910390fd5b600081905060008173ffffffffffffffffffffffffffffffffffffffff1663633156376040518163ffffffff1660e01b8152600401602060405180830381600087803b1580156105a657600080fd5b505af11580156105ba573d6000803e3d6000fd5b505050506040513d601f19601f820116820180604052508101906105de9190611a0b565b90508173ffffffffffffffffffffffffffffffffffffffff1663c2fbe7bc6040518163ffffffff1660e01b8152600401600060405180830381600087803b15801561062857600080fd5b505af115801561063c573d6000803e3d6000fd5b50505050610649816109bb565b505050565b60666020528060005260406000206000915090505481565b61066e61123c565b73ffffffffffffffffffffffffffffffffffffffff1661068c610c8d565b73ffffffffffffffffffffffffffffffffffffffff16146106e2576040517f08c379a00000000000000000000000000000000000000000000000000000000081526004016106d990611fd4565b60405180910390fd5b600073ffffffffffffffffffffffffffffffffffffffff16603360009054906101000a900473ffffffffffffffffffffffffffffffffffffffff1673ffffffffffffffffffffffffffffffffffffffff167f8be0079c531659141344cd1fd0a4f28419497f9722a3daafe3b4186f6b6457e060405160405180910390a36000603360006101000a81548173ffffffffffffffffffffffffffffffffffffffff021916908373ffffffffffffffffffffffffffffffffffffffff160217905550565b60011515606560009054906101000a900460ff161515146107f9576040517f08c379a00000000000000000000000000000000000000000000000000000000081526004016107f090611f94565b60405180910390fd5b600073ffffffffffffffffffffffffffffffffffffffff168173ffffffffffffffffffffffffffffffffffffffff161415610869576040517f08c379a000000000000000000000000000000000000000000000000000000000815260040161086090611f74565b60405180910390fd5b60008190506000610878610c8d565b905060008273ffffffffffffffffffffffffffffffffffffffff166370a08231306040518263ffffffff1660e01b81526004016108b59190611e0c565b60206040518083038186803b1580156108cd57600080fd5b505afa1580156108e1573d6000803e3d6000fd5b505050506040513d601f19601f820116820180604052508101906109059190611b08565b905061093282828573ffffffffffffffffffffffffffffffffffffffff166112449092919063ffffffff16565b8373ffffffffffffffffffffffffffffffffffffffff168273ffffffffffffffffffffffffffffffffffffffff1661096861123c565b73ffffffffffffffffffffffffffffffffffffffff167f76a904d36c6485f9a5b321da55bfecf63789bc50598252e91560e3b6175c1c06846040516109ad9190612034565b60405180910390a450505050565b60001515606560009054906101000a900460ff16151514610a11576040517f08c379a0000000000000000000000000000000000000000000000000000000008152600401610a0890611f14565b60405180910390fd5b600073ffffffffffffffffffffffffffffffffffffffff168173ffffffffffffffffffffffffffffffffffffffff161415610a81576040517f08c379a0000000000000000000000000000000000000000000000000000000008152600401610a7890611eb4565b60405180910390fd5b606754606660008373ffffffffffffffffffffffffffffffffffffffff1673ffffffffffffffffffffffffffffffffffffffff16815260200190815260200160002054610ace9190612114565b431015610ada57610c8a565b43606660008373ffffffffffffffffffffffffffffffffffffffff1673ffffffffffffffffffffffffffffffffffffffff16815260200190815260200160002081905550600081905060008173ffffffffffffffffffffffffffffffffffffffff166370a08231306040518263ffffffff1660e01b8152600401610b5e9190611e0c565b60206040518083038186803b158015610b7657600080fd5b505afa158015610b8a573d6000803e3d6000fd5b505050506040513d601f19601f82011682018060405250810190610bae9190611b08565b90508173ffffffffffffffffffffffffffffffffffffffff16632e1a7d4d826040518263ffffffff1660e01b8152600401610be99190612034565b600060405180830381600087803b158015610c0357600080fd5b505af1158015610c17573d6000803e3d6000fd5b505050508273ffffffffffffffffffffffffffffffffffffffff16610c3a61123c565b73ffffffffffffffffffffffffffffffffffffffff167f03d1c6e11435f9fdf99686494801bee42b031ab3c47c63abdbca7e22c33f5cbd83604051610c7f9190612034565b60405180910390a350505b50565b6000603360009054906101000a900473ffffffffffffffffffffffffffffffffffffffff16905090565b60001515606560009054906101000a900460ff16151514610d0d576040517f08c379a0000000000000000000000000000000000000000000000000000000008152600401610d0490611f14565b60405180910390fd5b60008151905060008111610d56576040517f08c379a0000000000000000000000000000000000000000000000000000000008152600401610d4d90611f54565b60405180910390fd5b60005b81811015610dbd57610daa838281518110610d9d577f4e487b7100000000000000000000000000000000000000000000000000000000600052603260045260246000fd5b60200260200101516109bb565b8080610db590612225565b915050610d59565b505050565b606560019054906101000a900473ffffffffffffffffffffffffffffffffffffffff1681565b60001515606560009054906101000a900460ff16151514610e3e576040517f08c379a0000000000000000000000000000000000000000000000000000000008152600401610e3590611f14565b60405180910390fd5b60008151905060008111610e87576040517f08c379a0000000000000000000000000000000000000000000000000000000008152600401610e7e90611e94565b60405180910390fd5b60005b81811015610eee57610edb838281518110610ece577f4e487b7100000000000000000000000000000000000000000000000000000000600052603260045260246000fd5b6020026020010151610491565b8080610ee690612225565b915050610e8a565b505050565b600060019054906101000a900460ff1680610f19575060008054906101000a900460ff16155b610f58576040517f08c379a0000000000000000000000000000000000000000000000000000000008152600401610f4f90611fb4565b60405180910390fd5b60008060019054906101000a900460ff161590508015610fa8576001600060016101000a81548160ff02191690831515021790555060016000806101000a81548160ff0219169083151502179055505b610fb06112ca565b610fb9836103b5565b600073ffffffffffffffffffffffffffffffffffffffff168273ffffffffffffffffffffffffffffffffffffffff161461104e576001606560006101000a81548160ff02191690831515021790555081606560016101000a81548173ffffffffffffffffffffffffffffffffffffffff021916908373ffffffffffffffffffffffffffffffffffffffff16021790555061106a565b6000606560006101000a81548160ff0219169083151502179055505b801561108b5760008060016101000a81548160ff0219169083151502179055505b505050565b61109861123c565b73ffffffffffffffffffffffffffffffffffffffff166110b6610c8d565b73ffffffffffffffffffffffffffffffffffffffff161461110c576040517f08c379a000000000000000000000000000000000000000000000000000000000815260040161110390611fd4565b60405180910390fd5b600073ffffffffffffffffffffffffffffffffffffffff168173ffffffffffffffffffffffffffffffffffffffff16141561117c576040517f08c379a000000000000000000000000000000000000000000000000000000000815260040161117390611ed4565b60405180910390fd5b8073ffffffffffffffffffffffffffffffffffffffff16603360009054906101000a900473ffffffffffffffffffffffffffffffffffffffff1673ffffffffffffffffffffffffffffffffffffffff167f8be0079c531659141344cd1fd0a4f28419497f9722a3daafe3b4186f6b6457e060405160405180910390a380603360006101000a81548173ffffffffffffffffffffffffffffffffffffffff021916908373ffffffffffffffffffffffffffffffffffffffff16021790555050565b600033905090565b6112c58363a9059cbb60e01b8484604051602401611263929190611e27565b604051602081830303815290604052907bffffffffffffffffffffffffffffffffffffffffffffffffffffffff19166020820180517bffffffffffffffffffffffffffffffffffffffffffffffffffffffff83818316178352505050506113b3565b505050565b600060019054906101000a900460ff16806112f0575060008054906101000a900460ff16155b61132f576040517f08c379a000000000000000000000000000000000000000000000000000000000815260040161132690611fb4565b60405180910390fd5b60008060019054906101000a900460ff16159050801561137f576001600060016101000a81548160ff02191690831515021790555060016000806101000a81548160ff0219169083151502179055505b61138761147a565b61138f611553565b80156113b05760008060016101000a81548160ff0219169083151502179055505b50565b6000611415826040518060400160405280602081526020017f5361666545524332303a206c6f772d6c6576656c2063616c6c206661696c65648152508573ffffffffffffffffffffffffffffffffffffffff166116d59092919063ffffffff16565b905060008151111561147557808060200190518101906114359190611a75565b611474576040517f08c379a000000000000000000000000000000000000000000000000000000000815260040161146b90612014565b60405180910390fd5b5b505050565b600060019054906101000a900460ff16806114a0575060008054906101000a900460ff16155b6114df576040517f08c379a00000000000000000000000000000000000000000000000000000000081526004016114d690611fb4565b60405180910390fd5b60008060019054906101000a900460ff16159050801561152f576001600060016101000a81548160ff02191690831515021790555060016000806101000a81548160ff0219169083151502179055505b80156115505760008060016101000a81548160ff0219169083151502179055505b50565b600060019054906101000a900460ff1680611579575060008054906101000a900460ff16155b6115b8576040517f08c379a00000000000000000000000000000000000000000000000000000000081526004016115af90611fb4565b60405180910390fd5b60008060019054906101000a900460ff161590508015611608576001600060016101000a81548160ff02191690831515021790555060016000806101000a81548160ff0219169083151502179055505b600061161261123c565b905080603360006101000a81548173ffffffffffffffffffffffffffffffffffffffff021916908373ffffffffffffffffffffffffffffffffffffffff1602179055508073ffffffffffffffffffffffffffffffffffffffff16600073ffffffffffffffffffffffffffffffffffffffff167f8be0079c531659141344cd1fd0a4f28419497f9722a3daafe3b4186f6b6457e060405160405180910390a35080156116d25760008060016101000a81548160ff0219169083151502179055505b50565b60606116e484846000856116ed565b90509392505050565b606082471015611732576040517f08c379a000000000000000000000000000000000000000000000000000000000815260040161172990611f34565b60405180910390fd5b61173b85611801565b61177a576040517f08c379a000000000000000000000000000000000000000000000000000000000815260040161177190611ff4565b60405180910390fd5b6000808673ffffffffffffffffffffffffffffffffffffffff1685876040516117a39190611df5565b60006040518083038185875af1925050503d80600081146117e0576040519150601f19603f3d011682016040523d82523d6000602084013e6117e5565b606091505b50915091506117f5828286611814565b92505050949350505050565b600080823b905060008111915050919050565b6060831561182457829050611874565b6000835111156118375782518084602001fd5b816040517f08c379a000000000000000000000000000000000000000000000000000000000815260040161186b9190611e72565b60405180910390fd5b9392505050565b600061188e61188984612074565b61204f565b905080838252602082019050828560208602820111156118ad57600080fd5b60005b858110156118dd57816118c38882611925565b8452602084019350602083019250506001810190506118b0565b5050509392505050565b60006118fa6118f5846120a0565b61204f565b90508281526020810184848401111561191257600080fd5b61191d8482856121b2565b509392505050565b60008135905061193481612694565b92915050565b60008151905061194981612694565b92915050565b600082601f83011261196057600080fd5b813561197084826020860161187b565b91505092915050565b600081519050611988816126ab565b92915050565b600082601f83011261199f57600080fd5b81356119af8482602086016118e7565b91505092915050565b6000813590506119c7816126c2565b92915050565b6000815190506119dc816126c2565b92915050565b6000602082840312156119f457600080fd5b6000611a0284828501611925565b91505092915050565b600060208284031215611a1d57600080fd5b6000611a2b8482850161193a565b91505092915050565b600060208284031215611a4657600080fd5b600082013567ffffffffffffffff811115611a6057600080fd5b611a6c8482850161194f565b91505092915050565b600060208284031215611a8757600080fd5b6000611a9584828501611979565b91505092915050565b600060208284031215611ab057600080fd5b600082013567ffffffffffffffff811115611aca57600080fd5b611ad68482850161198e565b91505092915050565b600060208284031215611af157600080fd5b6000611aff848285016119b8565b91505092915050565b600060208284031215611b1a57600080fd5b6000611b28848285016119cd565b91505092915050565b60008060408385031215611b4457600080fd5b6000611b52858286016119b8565b9250506020611b6385828601611925565b9150509250929050565b611b768161216a565b82525050565b6000611b87826120d1565b611b9181856120e7565b9350611ba18185602086016121c1565b611baa816122cc565b840191505092915050565b6000611bc0826120d1565b611bca81856120f8565b9350611bda8185602086016121c1565b80840191505092915050565b6000611bf1826120dc565b611bfb8185612103565b9350611c0b8185602086016121c1565b611c14816122cc565b840191505092915050565b6000611c2c603183612103565b9150611c37826122dd565b604082019050919050565b6000611c4f603083612103565b9150611c5a8261232c565b604082019050919050565b6000611c72602683612103565b9150611c7d8261237b565b604082019050919050565b6000611c95602e83612103565b9150611ca0826123ca565b604082019050919050565b6000611cb8602f83612103565b9150611cc382612419565b604082019050919050565b6000611cdb602683612103565b9150611ce682612468565b604082019050919050565b6000611cfe603383612103565b9150611d09826124b7565b604082019050919050565b6000611d21602a83612103565b9150611d2c82612506565b604082019050919050565b6000611d44602e83612103565b9150611d4f82612555565b604082019050919050565b6000611d67602e83612103565b9150611d72826125a4565b604082019050919050565b6000611d8a602083612103565b9150611d95826125f3565b602082019050919050565b6000611dad601d83612103565b9150611db88261261c565b602082019050919050565b6000611dd0602a83612103565b9150611ddb82612645565b604082019050919050565b611def816121a8565b82525050565b6000611e018284611bb5565b915081905092915050565b6000602082019050611e216000830184611b6d565b92915050565b6000604082019050611e3c6000830185611b6d565b611e496020830184611de6565b9392505050565b60006020820190508181036000830152611e6a8184611b7c565b905092915050565b60006020820190508181036000830152611e8c8184611be6565b905092915050565b60006020820190508181036000830152611ead81611c1f565b9050919050565b60006020820190508181036000830152611ecd81611c42565b9050919050565b60006020820190508181036000830152611eed81611c65565b9050919050565b60006020820190508181036000830152611f0d81611c88565b9050919050565b60006020820190508181036000830152611f2d81611cab565b9050919050565b60006020820190508181036000830152611f4d81611cce565b9050919050565b60006020820190508181036000830152611f6d81611cf1565b9050919050565b60006020820190508181036000830152611f8d81611d14565b9050919050565b60006020820190508181036000830152611fad81611d37565b9050919050565b60006020820190508181036000830152611fcd81611d5a565b9050919050565b60006020820190508181036000830152611fed81611d7d565b9050919050565b6000602082019050818103600083015261200d81611da0565b9050919050565b6000602082019050818103600083015261202d81611dc3565b9050919050565b60006020820190506120496000830184611de6565b92915050565b600061205961206a565b905061206582826121f4565b919050565b6000604051905090565b600067ffffffffffffffff82111561208f5761208e61229d565b5b602082029050602081019050919050565b600067ffffffffffffffff8211156120bb576120ba61229d565b5b6120c4826122cc565b9050602081019050919050565b600081519050919050565b600081519050919050565b600082825260208201905092915050565b600081905092915050565b600082825260208201905092915050565b600061211f826121a8565b915061212a836121a8565b9250827fffffffffffffffffffffffffffffffffffffffffffffffffffffffffffffffff0382111561215f5761215e61226e565b5b828201905092915050565b600061217582612188565b9050919050565b60008115159050919050565b600073ffffffffffffffffffffffffffffffffffffffff82169050919050565b6000819050919050565b82818337600083830152505050565b60005b838110156121df5780820151818401526020810190506121c4565b838111156121ee576000848401525b50505050565b6121fd826122cc565b810181811067ffffffffffffffff8211171561221c5761221b61229d565b5b80604052505050565b6000612230826121a8565b91507fffffffffffffffffffffffffffffffffffffffffffffffffffffffffffffffff8214156122635761226261226e565b5b600182019050919050565b7f4e487b7100000000000000000000000000000000000000000000000000000000600052601160045260246000fd5b7f4e487b7100000000000000000000000000000000000000000000000000000000600052604160045260246000fd5b6000601f19601f8301169050919050565b7f4861727665737465723a206e65656420746f207370656369667920737920707260008201527f6f76696465727320666f7220636c61696d000000000000000000000000000000602082015250565b7f4861727665737465723a206368696c6420746f6b656e2061646472657373206d60008201527f7573742062652073706563696669656400000000000000000000000000000000602082015250565b7f4f776e61626c653a206e6577206f776e657220697320746865207a65726f206160008201527f6464726573730000000000000000000000000000000000000000000000000000602082015250565b7f4861727665737465723a2073792070726f76696465722061646472657373206d60008201527f757374206e6f7420626520307830000000000000000000000000000000000000602082015250565b7f4861727665737465723a2073686f756c64206f6e6c792062652063616c6c656460008201527f206f6e206368696c6420636861696e0000000000000000000000000000000000602082015250565b7f416464726573733a20696e73756666696369656e742062616c616e636520666f60008201527f722063616c6c0000000000000000000000000000000000000000000000000000602082015250565b7f4861727665737465723a206e65656420746f2073706563696679206368696c6460008201527f20746f6b656e7320746f20776974686472617700000000000000000000000000602082015250565b7f4861727665737465723a20746f6b656e2061646472657373206d75737420626560008201527f2073706563696669656400000000000000000000000000000000000000000000602082015250565b7f4861727665737465723a2073686f756c64206f6e6c792062652063616c6c656460008201527f206f6e20726f6f7420636861696e000000000000000000000000000000000000602082015250565b7f496e697469616c697a61626c653a20636f6e747261637420697320616c72656160008201527f647920696e697469616c697a6564000000000000000000000000000000000000602082015250565b7f4f776e61626c653a2063616c6c6572206973206e6f7420746865206f776e6572600082015250565b7f416464726573733a2063616c6c20746f206e6f6e2d636f6e7472616374000000600082015250565b7f5361666545524332303a204552433230206f7065726174696f6e20646964206e60008201527f6f74207375636365656400000000000000000000000000000000000000000000602082015250565b61269d8161216a565b81146126a857600080fd5b50565b6126b48161217c565b81146126bf57600080fd5b50565b6126cb816121a8565b81146126d657600080fd5b5056fea26469706673582212209f0c9eb4e76d7ba25a7228f796ae907bff63b06068034205ca003cb37a0ab7ea64736f6c63430008040033",
  "devdoc": {
    "kind": "dev",
    "methods": {
      "owner()": {
        "details": "Returns the address of the current owner."
      },
      "renounceOwnership()": {
        "details": "Leaves the contract without owner. It will not be possible to call `onlyOwner` functions anymore. Can only be called by the current owner. NOTE: Renouncing ownership will leave the contract without an owner, thereby removing any functionality that is only available to the owner."
      },
      "transferOwnership(address)": {
        "details": "Transfers ownership of the contract to a new account (`newOwner`). Can only be called by the current owner."
      }
    },
    "version": 1
  },
  "userdoc": {
    "kind": "user",
    "methods": {},
    "version": 1
  },
  "storageLayout": {
    "storage": [
      {
        "astId": 136,
        "contract": "contracts/PolygonTokenHarvester.sol:PolygonTokenHarvester",
        "label": "_initialized",
        "offset": 0,
        "slot": "0",
        "type": "t_bool"
      },
      {
        "astId": 139,
        "contract": "contracts/PolygonTokenHarvester.sol:PolygonTokenHarvester",
        "label": "_initializing",
        "offset": 1,
        "slot": "0",
        "type": "t_bool"
      },
      {
        "astId": 220,
        "contract": "contracts/PolygonTokenHarvester.sol:PolygonTokenHarvester",
        "label": "__gap",
        "offset": 0,
        "slot": "1",
        "type": "t_array(t_uint256)50_storage"
      },
      {
        "astId": 10,
        "contract": "contracts/PolygonTokenHarvester.sol:PolygonTokenHarvester",
        "label": "_owner",
        "offset": 0,
        "slot": "51",
        "type": "t_address"
      },
      {
        "astId": 129,
        "contract": "contracts/PolygonTokenHarvester.sol:PolygonTokenHarvester",
        "label": "__gap",
        "offset": 0,
        "slot": "52",
        "type": "t_array(t_uint256)49_storage"
      },
      {
        "astId": 847,
        "contract": "contracts/PolygonTokenHarvester.sol:PolygonTokenHarvester",
        "label": "_onRootChain",
        "offset": 0,
        "slot": "101",
        "type": "t_bool"
      },
      {
        "astId": 849,
        "contract": "contracts/PolygonTokenHarvester.sol:PolygonTokenHarvester",
        "label": "rootChainManager",
        "offset": 1,
        "slot": "101",
        "type": "t_address"
      },
      {
        "astId": 853,
        "contract": "contracts/PolygonTokenHarvester.sol:PolygonTokenHarvester",
        "label": "lastWithdraw",
        "offset": 0,
        "slot": "102",
        "type": "t_mapping(t_address,t_uint256)"
      },
      {
        "astId": 855,
        "contract": "contracts/PolygonTokenHarvester.sol:PolygonTokenHarvester",
        "label": "withdrawCooldown",
        "offset": 0,
        "slot": "103",
        "type": "t_uint256"
      }
    ],
    "types": {
      "t_address": {
        "encoding": "inplace",
        "label": "address",
        "numberOfBytes": "20"
      },
      "t_array(t_uint256)49_storage": {
        "base": "t_uint256",
        "encoding": "inplace",
        "label": "uint256[49]",
        "numberOfBytes": "1568"
      },
      "t_array(t_uint256)50_storage": {
        "base": "t_uint256",
        "encoding": "inplace",
        "label": "uint256[50]",
        "numberOfBytes": "1600"
      },
      "t_bool": {
        "encoding": "inplace",
        "label": "bool",
        "numberOfBytes": "1"
      },
      "t_mapping(t_address,t_uint256)": {
        "encoding": "mapping",
        "key": "t_address",
        "label": "mapping(address => uint256)",
        "numberOfBytes": "32",
        "value": "t_uint256"
      },
      "t_uint256": {
        "encoding": "inplace",
        "label": "uint256",
        "numberOfBytes": "32"
      }
    }
  }
}